:020000040800F2
:10000000E8050020D12B0008552A0008572A0008CF
:10001000592A00085B2A00085D2A00080000000039
:100020000000000000000000000000005F2A00083F
:10003000612A000800000000632A0008652A000801
:10004000052C0008092C00080D2C0008112C0008B4
:10005000152C0008192C00081D2C0008212C000864
:10006000252C0008292C00082D2C0008312C000814
:10007000352C0008392C00083D2C0008412C0008C4
:10008000452C0008492C00084D2C0008512C000874
:10009000552C0008592C00085D2C0008692A00081E
:1000A000612C0008652C0008692C00086D2C0008E4
:1000B000712C00080000000000000000752C0008F2
:1000C000792C00087D2C0008812C0008852C000864
:1000D000892C0008712A0008772A00088D2C000856
:1000E000852A0008912C0008000000000000000094
:1000F0000000000000000000000000000000000000
:1001000000000000952C000800000000992C000859
:1001100000000000000000009D2C0008A12C000839
:10012000A52C0008A92C0008AD2C0008B12C000853
:10013000B52C0008000000000000000000000000D6
:10014000B92C0008BD2C0008C12C0008C52C0008E3
:10015000C92C0008CD2C0008D12C0008D52C000893
:10016000D92C0008DD2C0008E12C0008000000005C
:10017000E52C0008E92C0008ED2C00080000000028
:10018000F12C0008F52C0008F92C000838B5040003
:1001900009D004F17405696809B900F01EF800F08F
:1001A00021F8012801D1012032BD606A08B100F0B8
:1001B0002AF800F00AF821F02A01FFE7816000F038
:1001C0001BF8BDE8324000F05CBB2068416821F4B8
:1001D0009041416020688168704700202870204667
:1001E00000F05CBD2421696020680268520852005A
:1001F0000260204600F0E8B92068016841F0010182
:10020000016020467047204600F0D8BA2DE9FC472F
:10021000054605F17404884660682028174699460B
:1002200046D1B8F1000F14BF002F012041D0207833
:1002300001283DD0012121700020E0602122626070
:1002400005F1500600F0B0FD378082467780A8683F
:10025000B0F5805F04BF286900280EBF47464046BE
:1002600000270021217080460FE018F8012B02853D
:1002700008E02868B8F1000FF7D137F8021BC1F386
:10028000080101857088411E718053467088CDF841
:10029000009000280FD000228021284600F01FFB8C
:1002A0000028E6D0032004E020206060002000E069
:1002B0000220BDE8F68700224021284600F00FFB0F
:1002C0000028F1D0EEE738B500F011F80DD109B1F2
:1002D000140001D1012032BD0478012C05D000F0BA
:1002E0000CF8BDE8384000F04BBB022032BD03469D
:1002F00003F174008468202C7047012505700020EC
:100300001866DFF894441868A0420BD040680402D5
:1003100008D51C6854E8005F45F0806544E800504B
:100320000028F6D118467047216851E8002F704721
:10033000206800F1080151E8001F490800F1080297
:10034000490042E8001000287047206800F10801C9
:1003500051E8001F00F1080221F0400142E80010BE
:1003600000287047296851E8002F22F4D07241E834
:10037000002000287047F8B5044640F60F002368B7
:10038000D9691A689E68084004F158050BD188069F
:1003900000D5970640F17D80E968002978D0204695
:1003A000BDE8F4400847F00703D4DFF8F0733A42A1
:1003B0006FD0C80707D5D70505D501201862AB6AED
:1003C00043F00103AB62880708D5F30706D5276819
:1003D00002203862A86A40F00400A862480708D5E5
:1003E000F30706D5276804203862A86A40F00200A7
:1003F000A86208070AD5930601D4F00706D5266837
:1004000008233362A86A40F00800A862080509D5ED
:10041000530107D526684FF400603062A86A40F0A7
:100420002000A862A86A002832D0880605D5910667
:1004300003D5E96809B120468847A86A21688A6817
:10044000510602D410F0280F1DD0204600F0EFFA1C
:1004500020688168480611D5FFF777FFFCD1A869AD
:1004600060B10FF21D618163A86900F0C6FC00282D
:100470000ED0A869816BBDE8F44008472046BDE86E
:10048000F24000F0DFBC204600F0DCFC0020A86257
:10049000F1BDA868012867D1C80665D5D70663D520
:1004A000102018622168886841062CD5A96908685F
:1004B000406880B20028EBD02A889042E8DA688051
:1004C000086801688A061AD4FFF72EFF22F48072AA
:1004D000FFF74DFFF8D1FFF72BFFFCD1FFF735FFFA
:1004E000FCD1202068620021A960FFF71DFF22F0E7
:1004F0001002FFF73CFFF8D1A86900F05BFC2988E7
:100500006888091A2AE02A8869886888511A0028A8
:100510001CBF88B2002851D0226852E8003F23F463
:10052000907342E800300028F6D1206800F047F8C8
:10053000520800F10803520043E800200028F4D1DB
:10054000202068620022AA60EA60226852E8003F28
:1005500023F0100342E800300028F6D12046BDE821
:10056000F44089B200F06FBCC80209D5760207D505
:100570004FF4801018622046BDE8F24000F064BCE1
:10058000080607D5130605D52969B9B12046BDE887
:10059000F4400847480611D551060FD5FFF7C4FEB1
:1005A00022F04002FFF7E3FEF8D12020286200216C
:1005B00029612046BDE8F24000F047BCF1BD00F1E2
:1005C000080252E8002F7047F8B5044674482268C4
:1005D000744F1368A168034020690B4361690343AA
:1005E000E0690B430343136000255168E06821F480
:1005F000405101435160A36967498A421CBF206A88
:1006000003439668684826F4306633439360BA42E1
:100610004FF40043654E2FD1366806F00306032ED3
:1006200037D8DFE806F0026F5C710127E169B1F5A8
:10063000004F4FF6F07640F0868047B1012F7AD018
:10064000022F08D0042F79D0082F7AD09DE000F037
:1006500055FF00280FD061684A0802EB4002B2FB48
:10066000F1F0A0F11001B142F0D20640C0F3420017
:1006700006432068C66089E04D4FBA4221D13668F2
:1006800016F00C063CD0042E3CD0082E27D00C2EA1
:100690003AD010278A42C9D137B1022F08D0042F8F
:1006A00034D0082F35D070E000F028FF00286DD03E
:1006B000626802EB4201884267D3130383422AD265
:1006C00063E03C4FBA420CD1366816F0300617D0C2
:1006D000102E17D0202E02D0302E15D0D9E70227A9
:1006E000D8E78A42D5D1366816F4406608D0B6F508
:1006F000806F07D0B6F5006FF1D0B6F5406FECE72C
:100700000027C7E70427C5E70827C3E700F0ADFEC9
:10071000CCE71846CCE7010E560816EB00206941DD
:10072000002300F059FFA0F54071234A91422CD2DA
:100730002168C8602AE000F0E9FE8AE700F095FE33
:1007400087E7184687E747B1012F16D0022F07D059
:10075000042F15D0082F16D017E000F0CFFEA8B157
:10076000616800EB5100B0FBF1F0A0F11001B14263
:100770000BD2226880B2D06008E000F0C7FEEEE73E
:1007800000F073FEEBE71846EAE7012500206066FB
:10079000A0662846F2BD0000008000402001000451
:1007A000F369FFEF003801400024F4008810024094
:1007B000004400400048004000FD0F0090F8241065
:1007C000CA0706D502685368816A23F400330B43D5
:1007D000536090F824108A0706D502685368C16AEE
:1007E00023F480330B43536090F824104A0706D556
:1007F00002685368016B23F480230B43536090F825
:1008000024100A0706D502685368416B23F400439D
:100810000B43536090F82410CA0606D5026893680B
:10082000816B23F480530B43936090F824108A0665
:1008300006D502689368C16B23F400530B439360A1
:1008400090F824104A0610D502685368016C23F40E
:1008500080130B435360036CB3F5801F05D15368BD
:10086000416C23F4C0030B43536090F824100A0634
:1008700006D501684A68806C22F4002202434A606F
:100880007047F8B5044604F174050020E8606FF085
:100890007E4700F089FA0646206801680A0708D5F5
:1008A0000097334600224FF40011204600F017F85D
:1008B00060B9206801684A070AD5009733460022CC
:1008C0004FF48001204600F00AF808B10320F2BD81
:1008D00020206860A860002020662870F2BD2DE905
:1008E000F041069C05460E4690461F462868C169A1
:1008F0003140B1420CBF0120002040452AD114F103
:10090000010FF3D000F050FAC01B844200D354B959
:10091000FFF728FDFCD100F026F8FCD100F01DF80F
:100920000021017014E0286801684A07DED5C1691A
:100930000A05DBD54FF400610162FFF713FDFCD11E
:1009400000F011F8FCD100F008F8C160002202703C
:10095000032000E00020BDE8F08105F174002021B3
:10096000416081607047286800F1080151E8001F6C
:10097000490800F10802490042E8001000287047C9
:1009800010B503460020596503F158010A804A80DA
:10099000C860FF229868B0F5805F04D1186990B9EB
:1009A00040F2FF120FE018B9186960B17F2007E02C
:1009B000B0F1805F06D1186908B97F2203E03F20BB
:1009C000888001E000228A800020886222224A6218
:1009D0001868FFF7F4FD00F1080442F0010244E852
:1009E00000200028F4D19868B0F5805F04BF186932
:1009F000002807BF0FF2E102CA600FF29500C8603D
:100A000000220A77186948B1196851E8002F42F4AA
:100A10009072FFF7ACFCF7D1002010BD196851E8C7
:100A2000002F42F02002FFF7A2FCF7D1F4E70268A2
:100A300052E8003F23F4907342E800310029F6D1D8
:100A4000016801F1080252E8002F520801F1080381
:100A5000520043E800210029F2D1016E012908D19A
:100A6000026852E8003F23F0100342E800310029F9
:100A7000F6D12021C167002202664266704700005D
:100A8000806A00F1520100220A810A8000F0DAB97E
:100A900010B500F04AF819D18B8C9188446D0B4049
:100AA0002370416D4B1C00F03AF899B900F043F8FF
:100AB00000F05FF8FCD100F055F806D1936000F02B
:100AC00044F844BF10230B6260E064E0088B40F000
:100AD0000800088310BD000010B500F026F819D1F9
:100AE0008B8C9188446D0B402380416D8B1C00F0F2
:100AF00016F899B900F01FF800F03BF8FCD100F0AF
:100B000031F806D1936000F020F844BF10230B6247
:100B10003CE040E0088B40F00800088310BD4365CE
:100B200051884B1E53805188704700F1580201686C
:100B3000536A222B7047036853E8004F24F49074E3
:100B400043E800410029F6D17047036853E8004F9D
:100B500024F0100443E800410029F6D10168CB6974
:100B6000DC067047202151620023D360916801297F
:100B70007047016801F1080353E8003F5B0801F189
:100B800008045B0044E80031002970471188BDE883
:100B9000104000F058B9BDE8104000F0B7BD30B4C7
:100BA000002513E050F8042BD30744BFA9F101033B
:100BB0009A18091F042942F8045BFAD213468C07DD
:100BC00044BF15809B1CC90748BF1D7050F8041B0B
:100BD0000029E7D130BC70476C4881B0816841F092
:100BE00001018160816801F00101009100990268B2
:100BF00042F080520260006800F08050009000983F
:100C000001B0704710B586B000F0B0F82068604CB5
:100C10006049A04219D1486940F480504861486950
:100C200000F48050059005980A6842F001020A60BD
:100C30000222096801F00101059141F602010598BF
:100C400000F022F84FF090401AE0534A904219D138
:100C5000C86840F48040C860C86800F480400590CF
:100C600005980A6842F002020A600222096801F04F
:100C7000020105914FF444410598484800F004F8FA
:100C800000F0F2FE06B010BD009101920021029129
:100C900003220521049103926946704710B59EB066
:100CA00000F064F806A8602100F0CAFF20683C4903
:100CB000384C884229D10122002106920E9106A8C3
:100CC00000F0C2FF08B100F0C5FE606940F480404A
:100CD0006061606900F4804005900598216841F0EA
:100CE00002012160C021226802F002020592022264
:100CF00005982A4800F03FF800F0B6FE00220021D7
:100D0000252001F095F925202CE0264988422BD199
:100D10000222002106920F9106A800F095FF08B16B
:100D200000F098FEE06840F40030E060E06800F415
:100D3000003005900598216841F0010121600C21E7
:100D4000226802F0010205920222059800F013F8D1
:100D50004FF0904000F088FE00220021262001F094
:100D600067F9262001F082F91EB010BD04466846DE
:100D7000142100F065BF009101920021029103222D
:100D80000721049103926946704700005810024001
:100D9000003001404C100240003800400004004880
:100DA000003801400044004001484068704700BFDF
:100DB0000000002000F124014A78022A05D0042016
:100DC000886100220A70012070470268136823F0CE
:100DD0000E0313600068026852085200026001208E
:100DE00091F82020CB6902F01C029040586000224C
:100DF000012048700A700020704738B500F12401C6
:100E000000244A78022A03D004208861012417E0D4
:100E10000268136823F00E031360026815686D08FA
:100E20006D001560012291F82030CD6903F01C039C
:100E30009A406A6001224A700C70496901B1884782
:100E4000204632BD70477047704770472DE9FC4718
:100E5000050017D0DFF84077DFF84C67BC68F8680A
:100E600000F003082878C10604F00C0452D524B120
:100E70000C2C08BFB8F1010F2FD13868810703D5BA
:100E8000A869002800F05181396808074EBF396809
:100E900071680909286A01F0F001814206D200F068
:100EA00041FB002809D100F030FA08E000F02DFAEB
:100EB0002CB9286A00F036FB002840F0368100F09B
:100EC000D4FABA6800F0C7FADFF8D406006801F077
:100ED000F9F8010000F0198111E2A86990B13968B0
:100EE00041F001013960FFF75FFF814638688107F3
:100EF00000F10981FFF758FFA0EB09000328F5D3A3
:100F00000320FCE138684008400000F013FA8146F5
:100F10003868810740F1F980FFF746FFA0EB090030
:100F20000328F5D3ECE76868B0F5803F04D1386852
:100F300040F48030386011E0B0F5A02F386806D159
:100F400040F480203860396841F4803105E020F4B5
:100F500080303860396821F480213960686868B170
:100F6000FFF722FF81463868810300F1E080FFF738
:100F70001BFFA0EB09006528F5D3C1E7FFF714FFBD
:100F800081463868810340F1D280FFF70DFFA0EB66
:100F900009006528F5D3B3E7FFF706FF00F0B1F9C4
:100FA000C0F0EB80ACE7E86880B1396841F480714B
:100FB0003960FFF7F9FE80463868410500F1C880C6
:100FC000FFF7F2FE00F09DF9F6D399E7386820F4B8
:100FD000807000F0AFF980463868410540F1BF806D
:100FE000FFF7E2FE00F08DF9F6D389E740084000F4
:100FF0007060FFF7D9FE80467068810740F1C180BC
:10100000FFF7D2FE00F07DF9F6D379E705283068C6
:1010100006D140F004003060316841F0010105E084
:10102000400840003060316821F004013160A86858
:1010300041F2893968B1FFF7B7FE8246306881070F
:1010400000F1D580FFF7B0FEA0EB0A004845F5D3CC
:1010500056E7FFF7A9FE82463068810740F1C78056
:10106000FFF7A2FEA0EB0A004845F5D348E7FFF7DB
:101070009BFE00F046F9C0F0CF8041E740084000F9
:10108000B060FFF791FE8046B068810740F1C880EC
:10109000FFF78AFE00F035F9F6D331E7FFF784FE5B
:1010A000001B0328C0F0F6802AE7FFF77DFE001B37
:1010B0000328C0F0198123E7386881010CD438680F
:1010C00040F080703860F96841F08071F960FFF796
:1010D0006BFE04463868810100F11081FFF764FE61
:1010E000001B0328F6D30BE70C2C1ED000F01FF9D1
:1010F00004463868810140F1FC80FFF755FE001B73
:101100000328F6D3FCE600F000F92878C1070ED5D5
:10111000082C05D00C2C08BFB8F1030F7FF403AFE7
:101120003868810303D5686808B90120E7E02878AA
:10113000810714D5042C05D00C2C08BFB8F1020F80
:101140007FF431AF3868410502D5E8680028ECD05B
:101150007868296920F0F85040EA016078602878C2
:1011600001070ED56869002870683FF43FAF40F072
:1011700001007060FFF718FE8046706881077FF5F8
:101180000BAF2878410739D5B86DC1004FF0000882
:101190000AD4B86D40F08050B8654FF00108B86DC2
:1011A00000F0805000900098DFF80094D9F800001B
:1011B000C10513D4D9F8000040F48070C9F80000CC
:1011C000FFF7F2FD8246D9F80000C10506D4FFF70B
:1011D000EBFDA0EB0A000328F5D391E6A8680128EF
:1011E0007FF414AF306840F0010030601FE7B8F1C1
:1011F000000F03D0B86D20F08050B86528788106C4
:101200000ED5686A0028B0683FF438AF40F001009E
:10121000B060FFF7C9FD8046B06881077FF527AF52
:10122000A86A00286AD002287FF45EAFF868EA6AEC
:1012300000F00301914201BF00F070012A6B521EC1
:10124000B1EB021F1CD16A6B00F4FE41B1EB022F1F
:1012500002BF00F07841AA6BB1EBC26F10D1EA6B0C
:10126000520800F4C001521EB1EB425F08D1296C54
:10127000490800F0C060491EB0EB416F3FF41CAF5D
:101280000C2C3FF452AF386841013FF54EAF00F0EF
:101290004EF80446386881013FF500AFFA68DFF880
:1012A0001013E86A0A40296B0243491E686B42EA40
:1012B0000112E96B490842EA0022286C491E4008E5
:1012C00042EA4152401E42EA4062A86B42EAC062D2
:1012D000FA60396841F080713960F86840F08070D8
:1012E000F860FFF761FD0446386881017FF5DDAEE7
:1012F00004E0FA68DFF8BC020240FA600020BDE8B2
:10130000F687A0EB080003287047386840F0080013
:1013100038603968286A21F0F00101433960796842
:10132000E86921F47F4141EA00217960704738681B
:1013300020F080703860FFF737BD2DE9F0410400E0
:10134000884675D0DFF87062306800F007004045CD
:1013500002D200F06FF86BD12078DFF83C528107A1
:1013600006D5A068A96801F0F001814200F06CF890
:101370002078C1074AD56068032802D129688A010C
:1013800008E0022802D129688A0303E000282968BE
:1013900002D18A0702D44BE04A0549D5A9688908D9
:1013A00040EA8100A860FFF7FFFC0746A868616873
:1013B00000F00C00B0EB810F28D0FFF7F5FCC01B4C
:1013C00041F289318842F1D303201DE020784107A2
:1013D00005D5AA68E06822F4E0620243AA60217899
:1013E000080706D5A968206921F4605141EAC001C7
:1013F000A96000F03AF8AA6800F02DF8BDE8F041C5
:101400006748006800F05EBEBDE8F0812078810783
:1014100006D5A068A96801F0F001884200F014F830
:10142000306800F007008045D0D200F003F8CDD03E
:101430000120E9E73168C90848EAC1013160306834
:1014400000F007004045704704D2A96821F0F00180
:101450000843A86070475949C2F30312895C4F4A98
:1014600001F01F01C8401060704770B54A4A554BE3
:101470009068D6680025002110F00C0006F00306E5
:10148000514C03D00C2812D1012E1AD115682E0709
:1014900004D4444D2E68C6F3032502E01568C5F355
:1014A00003154A4E56F8255048B9294624E0042829
:1014B00008BF214620D008281ED119461CE00C2860
:1014C0001AD1D06800F00300022803D0032808BF17
:1014D0001D4600E02546D168D068D268C0F30620DA
:1014E0004543C1F30210C2F34161401C491CB5FBE6
:1014F000F0F04900B0FBF1F1084670BD2748304AD2
:10150000006813683249C3F3022206E023482C4ADC
:10151000006813682E49C3F3C222895C01F01F01E1
:10152000C84070477CB52B4E054630680024C1008A
:1015300002D500F0E9FD0EE0306840F080503060E8
:10154000316801F080510091009800F0DDFD3168B4
:1015500021F080513160B0F5007F04D1802D0CD98D
:10156000A12D09D304E0802D88BF032405D801D123
:10157000022402E0702D00D101240F480168C9083F
:1015800044EAC1010160006800F00700A04201D0F8
:10159000012076BD002076BD001002400C00002026
:1015A000080000209410024090100240007000409B
:1015B0008C809D01FCFFEEFE00200240782B00088D
:1015C0000810024000127A000024F4009C2A00084F
:1015D000FC2B000858100240D3BBD9B1B2F5803FB4
:1015E0005BD2022A1ED98C46B1FBF2F102FB11C379
:1015F0001B0443EA1043B3FBF2FC02FB1C3380B232
:1016000040EA0343B3FBF2F002FB103240EA0C4025
:1016100000237047022A05D98446B0FBF2F002FB92
:1016200010C270474AB105D100F0010249085FEAD3
:101630003000704700220023704700F0A9BD0B0066
:101640000200002100207047F7D3002200237047DA
:10165000904271EB030CF2D370B5B1FA81F4B3FA96
:1016600083F52C1BA340C4F1200532FA05F6334361
:10167000A2405FF00046E64002E05B085FEA32020B
:10168000841A71EB030524BF204629467641F4D322
:1016900002000B003000002170BD70B5B1FA81F47A
:1016A000B2FA82F5C4F120046419B4F12006DAD349
:1016B000B2405FF00044F440002502E052085FEAC7
:1016C0003303C61A71EB020E24BF304671466441E3
:1016D0006D41F3D302000B002000290070BD000013
:1016E000B0F5807F00D0704710B5C74C00230122B1
:1016F00004F16401204600F089FE04F16401BDE8B4
:10170000104064230122C148FEF780BD7CB500680B
:10171000BF4BC04CC04DBC4E984215D100F0BBF839
:101720002846FEF7D0FD00F085F900F0B3F820461A
:1017300000F099FD02B0BDE8704000224FF48061D6
:101740004FF0904000F05EBAB44988421DD100F0DD
:10175000A2F8AE48FEF7B7FD00F09CF8304600F066
:1017600082FD01200090012306F1650206F1660169
:10177000204600F0F1FE06F16501284602B0BDE802
:10178000704064230122FEF741BD73BD2DE9F04195
:1017900001F030F900F083F800F0BCF89B4C9F4852
:1017A000206000210C2060614FF4E135A160E16010
:1017B0002161A161E1612162616265602046FEF7FD
:1017C000E5FC08B100F046F900218F4E7160B16070
:1017D0000121934830607161002030613062706295
:1017E000B0620721306370634FF4E0674FF4007814
:1017F000F162F760C6F81880304600F0CBFC08B103
:1018000000F028F98348874901604FF4827218215B
:101810004260C161002301220721836003614261AC
:10182000036243628362C16203634363C760C0F8BB
:10183000188000F0AFFC08B100F00CF9764F744846
:10184000386000210C207861B960F9603961B961B4
:10185000F961396279627D603846FEF797FC08B11C
:1018600000F0F8F87CA564230F2229463846FEF7DD
:10187000CDFC64230F2229462046FEF7C7FC00F06A
:101880000AF83846FEF71FFD00F005F82046FEF77F
:101890001AFDFEE70123012206F16401704780B5BD
:1018A00096B005A8442100F0CBF96846142100F059
:1018B000C7F94FF4007000F02DFC08B100F0CAF831
:1018C00002214FF4807205910892102102220991A1
:1018D0000F9210920A2101221192129107220221E5
:1018E00013921491159105A8FFF7B0FA08B100F012
:1018F000B1F80F200321009001910022029203927F
:10190000049204216846FFF718FD08B100F0A2F820
:1019100017B000BD38B586B06846142100F090F9C4
:101920004148046844F0040404604FF40055016821
:101930003E4C01F0040105910599026842F08002D5
:101940000260036803F0800305930599026842F082
:1019500001020260036803F0010305930599026820
:1019600042F0020202600022006800F002000590CE
:10197000B02105984FF0904000F044F900224FF458
:101980000051204600F03EF900F054F84FF4881161
:1019900001910022029200956946254800F064F802
:1019A0004FF496610091012200210291039101926E
:1019B00069464FF0904000F057F84020002100F0B9
:1019C00040F801200190002202920392009569469E
:1019D000204600F049F84FF480704FF4041100F0F5
:1019E00030F800220021172000F022FB172000F021
:1019F0003DFB00220021282000F01AFB282000F0E7
:101A000035FB07B030BD0000180100209400002015
:101A100000380140800100201000002000440040F8
:101A200000380040003001404C10024000040048E3
:101A30000008004801224FF480614FF0904000F010
:101A4000E1B8009001910122029269464FF0904066
:101A500000F00AB872B6FEE7696E707574206461B2
:101A60007461203A200000002DE9F84F00266C4AEE
:101A70000F2380460D4634E06A4CA04514BF07246E
:101A800004248C4044EA0E044CF82740C7436649BE
:101A90008C6807EA040C6C68E40248BF40EA0C0C4E
:101AA000C1F808C0CC6807EA040C6C68A40248BFFF
:101AB00040EA0C0CC1F80CC04C6807EA040C6C68D6
:101AC000A40348BF40EA0C0CC1F804C00C6807EA44
:101AD000040C6F68FC0348BF40EA0C0CC1F800C05E
:101AE000761C296831FA06F000F08A80012000FA9D
:101AF00006FE1EEA0100F3D077000321B9406FEA29
:101B0000010C696801F00304012C1CBF01F0030102
:101B1000022913D1D8F80810EC680CEA0101BC4086
:101B20002143C8F80810D8F8041021EA0E046968A7
:101B3000C1F30011B1402143C8F80410B1002C7961
:101B400004F00304032C21D0D8F80C400CEA040E56
:101B5000AC68BC4044EA0E04C8F80C402C7904F090
:101B60000304022C12D1F40808EB840E01F01C09C6
:101B7000DEF82040D5F810B003FA09FA24EA0A0486
:101B80000BFA09F949EA0404CEF82040D8F80040DD
:101B900095F804E00EF0030E0CEA04040EFA07F7C1
:101BA0002743C8F800706F6817F4403F98D0176853
:101BB000DFF878C047F00107176001F00C011468E6
:101BC00004F00104009403FA01FE009FB7085CF8DA
:101BD000274024EA0E0EB8F1904F08BF00240ED023
:101BE000134CA04508BF012409D0124CA04508BFE2
:101BF000022404D0104CA0457FF43EAF032440E7FC
:101C0000BDE8F18F0AB181617047816270470B4A6C
:101C1000136803421CBF1060FFF762BD70470000ED
:101C2000601002400010004800040140080001401C
:101C30000004004800080048000C0048140401405B
:101C4000002200F0EDBE00002DE9FC47054600240F
:101C50002868DFF88C630105A1461BD5686C58B174
:101C6000B0F5000F03D0B0F5400F09D010E0326896
:101C700042F48032326004E0002100F02AF9044688
:101C80003CB9F16F686C21F440010143F16701E058
:101C90000124A146286881032BD5F06CC1004FF0C8
:101CA00000080AD4F06C40F08050F0644FF0010856
:101CB000F06C00F0805000900098DFF828733868CE
:101CC00040F480703860FFF76FF882463868C105CD
:101CD00000F1D180FFF768F8A0EB0A000328F5D3E4
:101CE0000324A146B8F1000F03D0F06C20F080501F
:101CF000F0642878C10705D5F26F286A920840EA97
:101D00008202F2672978880705D5F16F686A21F0A9
:101D10000C010143F1672978480705D5F16FA86ADE
:101D200021F030010143F1672978880605D5F16F6C
:101D3000E86A21F440610143F1672968880505D507
:101D4000F16FE86B21F440210143F16729684805F0
:101D500005D5F16F286C21F440110143F167297812
:101D6000480605D5F16F286B21F440510143F16716
:101D70002978080605D5F16F686B21F440410143CD
:101D8000F1672968C80505D5F16FA86B21F44031CA
:101D90000143F167296888041ED5F16FA86C21F012
:101DA00040610143F167A86CB0F1006F0CD100F005
:101DB0008AF811E0FEF7F8FF001B41F289318842F2
:101DC00076D34FF003098DE7B0F1806F04D100F0B6
:101DD0007FF8010018BF81462868010314D5F26F0F
:101DE000E86C22F040620243F267E86CB0F1006FE9
:101DF00002D100F068F807E0B0F1806F04D100F084
:101E000067F8010018BF81462868410314D5F26FB6
:101E1000286D22F040620243F267286DB0F1006F36
:101E200002D100F050F807E0B0F1806F04D100F06B
:101E30004FF8010018BF8146286841040FD5F26FA2
:101E4000686D22F040520243F267696DB1F1805F24
:101E500005D1022100F03DF8010018BF8146286835
:101E6000010405D5F26FA86D22F080420243F267AB
:101E70004846BDE8F687002C7FF433AFDFF8687181
:101E8000386810F440701CBFE96D88420BD0386888
:101E9000396841F48031396020F440703A6822F4A6
:101EA00080323A603860C00706D5FEF77DFF0446F1
:101EB000386881077FF57EAF3A68E86D22F440729A
:101EC00002433A600EE7306840F48010306070479B
:101ED0000121281DFFE72DE9F0410746434E3868F0
:101EE0000C46F168002511F0030F0DD0F16801F0E8
:101EF0000301814237D1B0B3F0687968C0F30210B2
:101F0000401C884213D02EE0012804D02BD3032894
:101F100023D01ED327E03268910724D5F268796870
:101F200022F073021043491E40EA0110F06030684D
:101F300020F080603060FEF737FF80463068010196
:101F400034D5FEF731FFA0EB08000328F6D30325B4
:101F50003CE031684A05E1D405E031688A03DDD40C
:101F600031684A03DAD4012530E0012C326906D108
:101F70003B691F4800F02DF841EA435105E07B69B9
:101F80001C4800F026F841EA43613161306840F0B6
:101F900080603060FEF708FF04463068010111D40C
:101FA000FEF702FF001B0328F7D3D0E7B968002C27
:101FB000DBD132691048FB68024042EA012141EA64
:101FC000C361E2E73169B869014331612846BDE880
:101FD000F08102405B0842EA01215B1E704700006D
:101FE0000C100240007000409010024000100240AF
:101FF000FF809FFFFF80FFF9FF80FF0709010200BC
:1020000002D42A4881547047294B02F00F021A4427
:1020100002F8041C7047274B19684FF6FF020002B4
:10202000114000F4E06008432349084318607047FA
:1020300038B5204B1C68C4F30223C3F10704052CF8
:1020400028BF04241D1D072D34BF0023DB1E0125DE
:1020500005FA04F4641E2140994005FA03F35B1E5F
:102060001A401143BDE83440C8E70000010007D41E
:10207000012200F01F01114B8A40400943F8202043
:10208000704710B5401EB0F1807F01D3012010BD14
:102090000B4C60600F214FF0FF30FFF7AFFF0021C6
:1020A000A16007202060002010BD000000E400E0D7
:1020B00018ED00E00CED00E00000FA0500E100E0A2
:1020C00010E000E070B50E4E044630780025A0B157
:1020D0004FF47A710B4AB1FBF0F11068B0FBF1F0EC
:1020E000FFF7CFFF48B9102C07D2002221464FF04E
:1020F000FF30FFF79DFFB46000E00125284670BD6A
:10210000000000200C000020DFF87800006800F4D8
:10211000C060704710B5DFF86C10B0F5007F08683C
:1021200000F4C06015D1B0F5007F1BD00868DFF85F
:102130005820DFF8584020F4C06040F4007000F0F0
:1021400018F84A6953050FD5002818BF401EF8D16A
:102150000AE0B0F5806F05D0086820F4C06040F454
:1021600080600860002010BD48694105FAD5032051
:1021700010BD0860322013684343B3FBF4F0401CE9
:1021800070470000007000400C00002040420F002B
:102190007047000038B5040001D1012032BD606AEB
:1021A00028B900F0FCFB05D00021E16102E000202D
:1021B000206160610020A06204F15C05687820B9AC
:1021C000002129702046FEF71DFD0220687000F0F6
:1021D000DEFBE168B1F5E06F04D90020B1F5706F66
:1021E00003D104E04FF4805001D00021A162616866
:1021F000A268237C01F4827102F404421143227D1F
:1022000003F002031943A36902F001021143227F84
:1022100003F40073194394F8203002F0380211439C
:10222000A26A03F080031943236802F400521143A9
:102230001960A16994F8242094F83430090C01F055
:10224000040102F010021143E26803F0080319438D
:1022500002F47062114308432168486000206860FE
:102260000121697032BD2DE9F843054605F14406A8
:102270000027307E01280C469146984608BF022070
:1022800000F0C28001203076FEF78EFD717E0129BC
:1022900018BF022757D1002C18BFB9F1000F00F06A
:1022A000AD8003217176F761AC63A5F83C90A5F889
:1022B0003E902F6437807780F760B760A968B1F5EA
:1022C000004F09D129680B6823F040030B6029688F
:1022D0000C6844F480440C6029680B685C0600F0CC
:1022E0005AFA40F20172EB686968934244462ED371
:1022F000002918BFB9F1010F09D1A96B2B680A8811
:10230000DA60A96B8A1CAA63E98F4A1EEA878046B5
:1023100008E0A96B0A88C260A86B811CA963E88FDA
:10232000411EE987E88F002855D0286881688A0710
:10233000EFD4FEF739FDA0EB0800A04204D314F15E
:10234000010FEFD003275AE0002CEBD1FAE7002968
:1023500018BFB9F1010F0CD1A96B2A68EB8F022BC2
:1023600009D30988D160AA6B911CA963EA8F911ED9
:10237000E987804610E00B781373A96B4A1CAA63A7
:10238000E98F4A1EEA87F4E70988C160A86B811CBF
:10239000A963E88F811EE987E88FE0B1286881682A
:1023A0008A070BD5A96BEA8F022AEDD2097801734F
:1023B000A86B411CA963E88F411EECE7FEF7F4FC13
:1023C000A0EB0800A04203D314F1010FE4D0B9E759
:1023D000002CE1D1B6E742462146284600F0E3FA58
:1023E00008B12020F061A86830B900972968CA6850
:1023F000009289680091009AF06900B101270120DC
:102400007076002131763846BDE8F2832DE9F84335
:10241000002600F0C2FA04BFA06800289146984642
:1024200004F1440709D104267E76CDF800804B469E
:102430002A46204600F090F88CE0387E012808BF3C
:102440000220F9D001203876FEF7AEFC797E012912
:1024500018BF022679D1002D18BFB9F1000F73D033
:1024600004217976FE612564A7F80090A7F8029010
:10247000A663A687E687BE60FE6040F20171E3684E
:1024800022688B4204D3556825F48055556003E0DB
:10249000536843F480535360A268B2F5004F09D1EA
:1024A0002268136823F0400313602268156825F43E
:1024B00080451560226813685D0603D4136843F0F5
:1024C000400313600546E2688A4220D204E0007BA4
:1024D000216C087000F058F9788858B3206881683A
:1024E000CA07F4D4FEF760FC401B404504D318F142
:1024F000010FF1D0032628E0B8F1000FECD1F9E785
:10250000C068216C0880206C821C00F03FF978883C
:1025100080B120688168CA07F2D4FEF745FC401BF1
:10252000404503D318F1010FF1D0E3E7B8F1000FF4
:10253000EDD1DFE72A464146204600F0FDF908B11B
:102540002020F861F86900B1012601207876002189
:1025500039763046BDE8F2832DE9F047044604F1B0
:1025600044070026387E01288A4690464FF001092C
:1025700008BF022000F006811D4687F81890FEF77C
:1025800013FC7A7E012A09D06168B1F5827F02BF0F
:10259000A1680029042A01D00226EEE0BAF1000F5A
:1025A00018BFB8F1000F00D00DB90126E5E0797E23
:1025B00004291CBF05217976FE61C4F840807D8026
:1025C0003D80C4F838A0E587A587BE60FE6040F274
:1025D0000172E168914238BF022D04D321684B6833
:1025E00023F4805303E021684B6843F480534B602D
:1025F00021680B685B0600F0CEF8E3686168DDF8DF
:102600002080934242D3002918BF012D09D1A16B2C
:1026100023680A88DA60A16B8A1CA263E18F4A1ED4
:10262000E2870546E08F002804BF7888002800F084
:102630009B802168886882070FD5E08F002818BF2B
:10264000B9F1000F09D0A06B0288CA60B146A06B37
:10265000811CA163E08F411EE18721688868C20761
:102660000AD5788840B1C868216C08804FF001090C
:10267000206C821C00F08AF8FEF796FB401B404558
:10268000D0D318F1010FCDD0032676E0002918BF72
:10269000012D0CD1A16B2268E38F022B09D309888D
:1026A000D160A26B911CA163E28F911EE187054668
:1026B0003AE00B781373A16B4A1CA263E18F4A1EA8
:1026C000E287F4E700780873A16B481CA063E18FF0
:1026D000481EE087B14621688868C2071CD5788803
:1026E000D0B1206C7A88022A10D3C9680180206C8E
:1026F000821C22647888811E79807888022809D219
:102700002068416841F48051416003E0097B017019
:1027100000F03AF84FF00109FEF746FB401B404538
:102720001ED318F1010FAFD1E08F002804BF7888C5
:10273000002819D0216888688207CCD5E08F00284E
:1027400018BFB9F1000FC6D0A06BE28F022AB9D32F
:102750000088C860A16B881CA063E18F881EB8E761
:10276000B8F1000FE0D18FE720462A46414600F03D
:102770001AF910B120200126F86101217976002094
:1027800038763046BDE8F087206C421C2264788899
:10279000411E7980704703D40B6843F040030B60FF
:1027A00070472DE9F843089C05460E4690461F46A3
:1027B000FEF7FAFA381A2418FEF7F6FA8146DFF81F
:1027C000300201684901090D6143009105E000985C
:1027D00000B900240098401E0090286881683140AC
:1027E000B1420CBF01200020404532D017F1010F4B
:1027F000F3D0FEF7D9FAA0EB0900A04201D2002CD9
:10280000E5D12868416821F0E00141606868B0F5D1
:10281000827F0BD1A868B0F5004F18BFB0F5806F6C
:1028200004D12868016821F040010160A86AB0F570
:10283000005F09D12868016821F40051016028680F
:10284000026842F40052026005F15C0000F06EF88C
:1028500000E00020BDE8F2832DE9FC4706460A9D12
:1028600000208DF800000F4614469846FEF79CFAAB
:10287000A8EB00002D18FEF797FA81463068DFF8C4
:1028800070110A6800F10C0A23204243120D6A43BA
:10289000019205E0019800B900250198401E0190C1
:1028A000306881683940A1423DD0B7F5C06F08BF9C
:1028B000002C05D19AF800008DF800009DF800105A
:1028C00018F1010FECD0FEF76FFAA0EB0900A84257
:1028D00001D2002DDED13068416821F0E001416075
:1028E0007068B0F5827F0BD1B068B0F5004F18BFAB
:1028F000B0F5806F04D13068016821F040010160BB
:10290000B06AB0F5005F09D13068016821F4005168
:1029100001603068026842F40052026006F15C0017
:1029200000F004F800E00020BDE8F68701214170C6
:1029300000220270032070477CB500F02EF8164686
:1029400008D1A068B0F5004F18BFB0F5806F01D175
:1029500000F01DF800F015F870B900F020F80ED165
:10296000A068B0F5004F18BFB0F5806F07D1009692
:102970002B4600F037F810B100F02CF876BD00209F
:1029800076BD00962B4600228021204609E720686C
:10299000016821F040010160704704460D466068FF
:1029A000B0F5827F70477CB50D461646044600960A
:1029B0002B4600224FF4C051FFF74EFF38B9FFF706
:1029C000E0FF20B900962B4600F00CF808B100F0AB
:1029D00001F876BD206E40F020002066032070478D
:1029E0000090642300224FF4C061204634E70000C9
:1029F0000C000020094810B5016841F480710160A5
:102A00000320FFF708FB0020FFF75CFB00240028F1
:102A100014BF0124FEF7E0F8204610BD002002405C
:102A200000B500BF130096469446103928BFA0E8B1
:102A30000C50FAD85FEA417C28BF0CC048BF40F870
:102A4000042BC90728BF20F8022B48BF00F8012B30
:102A500000BD0000FEE7FEE7FEE7FEE7FEE7704789
:102A60007047704700F012B84FF48070FFF7CFB88E
:102A70000248FDF780BC0248FDF77DBC1000002035
:102A8000940000204FF40050FFF7C1B8024841689D
:102A900002788A184260704700000020A08601007A
:102AA000400D0300801A060000350C0040420F0064
:102AB00080841E0000093D0000127A000024F4000A
:102AC00000366E010048E801006CDC0230B450F8BA
:102AD000041B79B10268436802440830DC0744BF34
:102AE000A9F10104E31852F8045B43F8045B091FE1
:102AF000F9D1ECE730BC704710B50749794418317B
:102B0000064C7C44163404E00A68081D11448847CA
:102B10000146A142F8D110BD2C0000004C0000007D
:102B20004EF68851CEF20001086840F4700008604B
:102B3000BFF34F8FBFF36F8F4FF00070E1EE100ABD
:102B4000704700005BE0FFFFD40100001000002090
:102B50000000000079FFFFFF10000000840000006B
:102B600000000020000000000248016841F47001EC
:102B70000160704788ED00E00000000000000000E8
:102B8000010203040607080900F00DF8002801D02F
:102B9000FFF7B2FFAFF300800020AFF30080FEF735
:102BA000F5FD00F002F80120704700F001B80000C8
:102BB0000746384600F002F8FBE7000080B5AFF3A7
:102BC0000080024A11001820ABBEFBE7260002007D
:102BD0000148804701480047692B0008F12B000895
:102BE00001000000000000001000000000093D008E
:102BF000AFF30080FFF794FFFFF7C6FF000000006F
:102C000001020304FFF7FEBFFFF7FEBFFFF7FEBFA1
:102C1000FFF7FEBFFFF7FEBFFFF7FEBFFFF7FEBFE8
:102C2000FFF7FEBFFFF7FEBFFFF7FEBFFFF7FEBFD8
:102C3000FFF7FEBFFFF7FEBFFFF7FEBFFFF7FEBFC8
:102C4000FFF7FEBFFFF7FEBFFFF7FEBFFFF7FEBFB8
:102C5000FFF7FEBFFFF7FEBFFFF7FEBFFFF7FEBFA8
:102C6000FFF7FEBFFFF7FEBFFFF7FEBFFFF7FEBF98
:102C7000FFF7FEBFFFF7FEBFFFF7FEBFFFF7FEBF88
:102C8000FFF7FEBFFFF7FEBFFFF7FEBFFFF7FEBF78
:102C9000FFF7FEBFFFF7FEBFFFF7FEBFFFF7FEBF68
:102CA000FFF7FEBFFFF7FEBFFFF7FEBFFFF7FEBF58
:102CB000FFF7FEBFFFF7FEBFFFF7FEBFFFF7FEBF48
:102CC000FFF7FEBFFFF7FEBFFFF7FEBFFFF7FEBF38
:102CD000FFF7FEBFFFF7FEBFFFF7FEBFFFF7FEBF28
:102CE000FFF7FEBFFFF7FEBFFFF7FEBFFFF7FEBF18
:0C2CF000FFF7FEBFFFF7FEBFFFF7FEBFBF
:0400000508002BF1D3
:00000001FF
