:020000040800F2
:1000000030050020BD220008AD210008AF21000806
:10001000B1210008B3210008B5210008000000004C
:10002000000000000000000000000000B7210008F0
:10003000B921000800000000BB210008BD21000814
:10004000F1220008F5220008F9220008FD2200082C
:100050000123000805230008092300080D230008D8
:100060001123000815230008192300081D23000888
:100070002123000825230008292300082D23000838
:100080003123000835230008392300083D230008E8
:100090004123000845230008492300084D23000898
:1000A0005123000855230008592300085D23000848
:1000B0006123000800000000000000006523000824
:1000C000692300086D2300087123000875230008C8
:1000D000792300087D230008812300088523000878
:1000E000C121000889230008000000000000000072
:1000F0000000000000000000000000000000000000
:10010000000000008D23000800000000912300087B
:100110000000000000000000C9210008952300082D
:10012000992300089D230008A1230008A5230008A7
:10013000A9230008000000000000000000000000EB
:10014000AD230008B1230008B5230008B923000837
:10015000BD230008C1230008C5230008C9230008E7
:10016000CD230008D1230008D5230008000000009B
:10017000D9230008DD230008E12300080000000067
:10018000E5230008E9230008ED2300082DE9FC47DA
:10019000050017D0DFF84077DFF84C67BC68F868D7
:1001A00000F003082878C10604F00C0452D524B1ED
:1001B0000C2C08BFB8F1010F2FD13868810703D587
:1001C000A869002800F05181396808074EBF3968D6
:1001D00071680909286A01F0F001814206D200F035
:1001E00041FB002809D100F030FA08E000F02DFAB8
:1001F0002CB9286A00F036FB002840F0368100F068
:10020000D4FABA6800F0C7FADFF8D406006800F044
:1002100083FB010000F0198111E2A86990B13968EF
:1002200041F00101396000F099FB8146386881078F
:1002300000F1098100F092FBA0EB09000328F5D33F
:100240000320FCE138684008400000F013FA8146C2
:100250003868810740F1F98000F080FBA0EB0900CD
:100260000328F5D3ECE76868B0F5803F04D138681F
:1002700040F48030386011E0B0F5A02F386806D126
:1002800040F480203860396841F4803105E020F482
:1002900080303860396821F480213960686868B13D
:1002A00000F05CFB81463868810300F1E08000F0DB
:1002B00055FBA0EB09006528F5D3C1E700F04EFB24
:1002C00081463868810340F1D28000F047FBA0EB03
:1002D00009006528F5D3B3E700F040FB00F0B1F961
:1002E000C0F0EB80ACE7E86880B1396841F4807118
:1002F000396000F033FB80463868410500F1C88062
:1003000000F02CFB00F09DF9F6D399E7386820F453
:10031000807000F0AFF980463868410540F1BF8039
:1003200000F01CFB00F08DF9F6D389E7400840008F
:10033000706000F013FB80467068810740F1C18057
:1003400000F00CFB00F07DF9F6D379E70528306862
:1003500006D140F004003060316841F0010105E051
:10036000400840003060316821F004013160A86825
:1003700041F2893968B100F0F1FA824630688107AC
:1003800000F1D58000F0EAFAA0EB0A004845F5D369
:1003900056E700F0E3FA82463068810740F1C780F3
:1003A00000F0DCFAA0EB0A004845F5D348E700F07E
:1003B000D5FA00F046F9C0F0CF8041E74008400090
:1003C000B06000F0CBFA8046B068810740F1C88089
:1003D00000F0C4FA00F035F9F6D331E700F0BEFAC8
:1003E000001B0328C0F0F6802AE700F0B7FA001BD4
:1003F0000328C0F0198123E7386881010CD43868DC
:1004000040F080703860F96841F08071F96000F068
:10041000A5FA04463868810100F1108100F09EFAC7
:10042000001B0328F6D30BE70C2C1ED000F01FF99D
:1004300004463868810140F1FC8000F08FFA001B0F
:100440000328F6D3FCE600F000F92878C1070ED5A2
:10045000082C05D00C2C08BFB8F1030F7FF403AFB4
:100460003868810303D5686808B90120E7E0287877
:10047000810714D5042C05D00C2C08BFB8F1020F4D
:100480007FF431AF3868410502D5E8680028ECD028
:100490007868296920F0F85040EA0160786028788F
:1004A00001070ED56869002870683FF43FAF40F03F
:1004B0000100706000F052FA8046706881077FF595
:1004C0000BAF2878410739D5B86DC1004FF000084F
:1004D0000AD4B86D40F08050B8654FF00108B86D8F
:1004E00000F0805000900098DFF80094D9F80000E8
:1004F000C10513D4D9F8000040F48070C9F8000099
:1005000000F02CFA8246D9F80000C10506D400F0AC
:1005100025FAA0EB0A000328F5D391E6A868012884
:100520007FF414AF306840F0010030601FE7B8F18D
:10053000000F03D0B86D20F08050B8652878810690
:100540000ED5686A0028B0683FF438AF40F001006B
:10055000B06000F003FA8046B06881077FF527AFEE
:10056000A86A00286AD002287FF45EAFF868EA6AB9
:1005700000F00301914201BF00F070012A6B521E8E
:10058000B1EB021F1CD16A6B00F4FE41B1EB022FEC
:1005900002BF00F07841AA6BB1EBC26F10D1EA6BD9
:1005A000520800F4C001521EB1EB425F08D1296C21
:1005B000490800F0C060491EB0EB416F3FF41CAF2A
:1005C0000C2C3FF452AF386841013FF54EAF00F0BC
:1005D0004EF80446386881013FF500AFFA68DFF84D
:1005E0001013E86A0A40296B0243491E686B42EA0D
:1005F0000112E96B490842EA0022286C491E4008B2
:1006000042EA4152401E42EA4062A86B42EAC0629E
:10061000FA60396841F080713960F86840F08070A4
:10062000F86000F09BF90446386881017FF5DDAE83
:1006300004E0FA68DFF8BC020240FA600020BDE87E
:10064000F687A0EB080003287047386840F00800E0
:1006500038603968286A21F0F0010143396079680F
:10066000E86921F47F4141EA0021796070473868E8
:1006700020F08070386000F071B92DE9F04104007D
:10068000884675D0DFF87062306800F0070040459A
:1006900002D200F06FF86BD12078DFF83C5281076E
:1006A00006D5A068A96801F0F001814200F06CF85D
:1006B0002078C1074AD56068032802D129688A01D9
:1006C00008E0022802D129688A0303E0002829688B
:1006D00002D18A0702D44BE04A0549D5A9688908A6
:1006E00040EA8100A86000F039F90746A86861680F
:1006F00000F00C00B0EB810F28D000F02FF9C01BE8
:1007000041F289318842F1D303201DE0207841076E
:1007100005D5AA68E06822F4E0620243AA60217865
:10072000080706D5A968206921F4605141EAC00193
:10073000A96000F03AF8AA6800F02DF8BDE8F04191
:100740006748006800F0E8B8BDE8F08120788107CC
:1007500006D5A068A96801F0F001884200F014F8FD
:10076000306800F007008045D0D200F003F8CDD00B
:100770000120E9E73168C90848EAC1013160306801
:1007800000F007004045704704D2A96821F0F0014D
:100790000843A86070475949C2F30312895C4F4A65
:1007A00001F01F01C8401060704770B54A4A554BB0
:1007B0009068D6680025002110F00C0006F00306B2
:1007C000514C03D00C2812D1012E1AD115682E07D6
:1007D00004D4444D2E68C6F3032502E01568C5F322
:1007E00003154A4E56F8255048B9294624E00428F6
:1007F00008BF214620D008281ED119461CE00C282D
:100800001AD1D06800F00300022803D0032808BFE3
:100810001D4600E02546D168D068D268C0F30620A6
:100820004543C1F30210C2F34161401C491CB5FBB2
:10083000F0F04900B0FBF1F1084670BD2748304A9E
:10084000006813683249C3F3022206E023482C4AA9
:10085000006813682E49C3F3C222895C01F01F01AE
:10086000C84070477CB52B4E054630680024C10057
:1008700002D500F079F80EE0306840F0805030602A
:10088000316801F080510091009800F06DF83168F6
:1008900021F080513160B0F5007F04D1802D0CD95A
:1008A000A12D09D304E0802D88BF032405D801D1F0
:1008B000022402E0702D00D101240F480168C9080C
:1008C00044EAC1010160006800F00700A04201D0C5
:1008D000012076BD002076BD001002400C000020F3
:1008E0000800002094100240901002400070004068
:1008F0008C809D01FCFFEEFE002002406422000877
:100900000810024000127A000024F4005021000870
:10091000E82200085810024070B50E4E04463078A8
:100920000025A0B14FF47A710B4AB1FBF0F11068C9
:10093000B0FBF1F000F09FF848B9102C07D200226C
:1009400021464FF0FF3000F06DF8B46000E0012563
:10095000284670BD000000200C00002001484068BF
:10096000704700BF00000020DFF87800006800F446
:10097000C060704710B5DFF86C10B0F5007F0868F4
:1009800000F4C06015D1B0F5007F1BD00868DFF817
:100990005820DFF8584020F4C06040F4007000F0A8
:1009A00018F84A6953050FD5002818BF401EF8D122
:1009B0000AE0B0F5806F05D0086820F4C06040F40C
:1009C00080600860002010BD48694105FAD5032009
:1009D00010BD0860322013684343B3FBF4F0401CA1
:1009E00070470000007000400C00002040420F00E3
:1009F0000901020002D42A4881547047294B02F0B1
:100A00000F021A4402F8041C7047274B19684FF66E
:100A1000FF020002114000F4E0600843234908434C
:100A20001860704738B5204B1C68C4F30223C3F12B
:100A30000704052C28BF04241D1D072D34BF0023E7
:100A4000DB1E012505FA04F4641E2140994005FAD5
:100A500003F35B1E1A401143BDE83440C8E70000B1
:100A6000010007D4012200F01F01114B8A40400908
:100A700043F82020704710B5401EB0F1807F01D3AD
:100A8000012010BD0B4C60600F214FF0FF30FFF7CD
:100A9000AFFF0021A16007202060002010BD0000F2
:100AA00000E400E018ED00E00CED00E00000FA05C5
:100AB00000E100E010E000E038B5040001D10120C1
:100AC00032BD00F0CDF818B900F00DFA00F07DFB52
:100AD0002CE090F83D10012901D00120704702213F
:100AE00080F83D100168CA6842F00102CA600168DE
:100AF000DFF85C0181421EBFB1F1804FDFF8540185
:100B000081420DD18A68DFF850010240062A18BFE1
:100B1000B2F5803F08D0086840F00100086003E0AB
:100B20000A6842F001020A600020704702206870E3
:100B3000211D206800F0DBF901202873A870E870FF
:100B400028716871A871E87128726872A872E872D9
:100B50006870002032BD38B5040001D1012032BDDB
:100B600000F07EF818B900F0BEF900F01DFBDDE7DB
:100B700038B5044604F13E0009B902780FE00429B3
:100B800008BF42780BD0082908BF827807D00C290B
:100B900008BFC27803D010290CBF02794279012A1C
:100BA00001D0012032BD11B90222027014E00429E3
:100BB00002D1022242700FE0082902D10222827083
:100BC0000AE00C2902D10222C27005E0102907BFF9
:100BD00002220271022343712068012200F0C0FA50
:100BE00000F029F81EBF8842DFF87030984200F00C
:100BF00027F81CBFB3F1804F8B4208D100F015F8E5
:100C000018BFB1F5803F04D000F00AF801E000F011
:100C100002F8002032BD196841F0010119607047E7
:100C2000186840F00100186070479968DFF82800E4
:100C30000140062970472068054A064990427047DE
:100C400003D1456C45F400454564236893427047E1
:100C5000002C014000400140070001000044014019
:100C600004F13C056878704710B5044620680169B6
:100C70008A0715D5C1688A0712D56FF00201016194
:100C800001222277806910F0030F204602D000F085
:100C90001BFB03E000F019FB00F094F80020207724
:100CA000206801694A0715D5C1684A0712D56FF057
:100CB0000401016102222277806910F4407F2046FE
:100CC00002D000F001FB03E000F0FFFA00F07AF838
:100CD00000202077206801690A0715D5C1680A0736
:100CE00012D56FF00801016104222277C06910F06B
:100CF000030F204602D000F0E7FA03E000F0E5FA27
:100D000000F060F80020207720680169CA0615D538
:100D1000C168CA0612D56FF010010161082222775E
:100D2000C06910F4407F204602D000F0CDFA03E005
:100D300000F0CBFA00F046F8002020772068016927
:100D4000CA0708D5C168CA0705D56FF0010101615E
:100D5000204600F0BBFA206801690A0608D5C16880
:100D60000A0605D56FF080010161204600F0EFFB17
:100D700020680169CA0508D5C1680A0605D56FF45F
:100D800080710161204600F0E3FB206801694A069A
:100D900008D5C1684A0605D56FF0400101612046BB
:100DA00000F0D7FB206801698A060AD5C1688A0667
:100DB00007D56FF0200101612046BDE8104000F02A
:100DC000C9BB10BD204600F0C6BB002084F83C0023
:100DD0002846704770B500F07FF801D1022070BD41
:100DE000012084F83C0052B1042A19D0082A29D0E5
:100DF0000C2A38D0102A48D0142A57D068E020682E
:100E000000F0A2F82168886940F0080088618869CC
:100E100020F0040088618A69306902438A6158E0E1
:100E2000206800F0C2F82068816941F400618161A6
:100E3000816921F4806181618169326941EA02211D
:100E4000816146E0206800F0E0F82168C86940F060
:100E50000800C861C86920F00400C861CA69306927
:100E60000243CA6135E0206800F0FEF82068C169DD
:100E700041F40061C161C16921F48061C161C1694E
:100E8000326941EA0221C16123E0206800F00DF9D6
:100E90002168486D40F008004865486D20F0040066
:100EA00048654A6D306902434A6512E0206800F0E7
:100EB00020F92068416D41F400614165416D21F4E4
:100EC00080614165416D326941EA0221416500E07E
:100ED0000125FFF77AFF70BD0446002594F83C0019
:100EE00001280E467047002129702046704770B5D2
:100EF000944E0368944C954DB04218BFB0F1804FAA
:100F000001BF23F070034A681343B04205D0B0F12B
:100F1000804F1CBFA842A04203D1CA6823F440738B
:100F200013434A6923F0800313430360B0428B6884
:100F3000C3621CBFA842A0420A68826201D109694B
:100F400001630122426170BDF0B5026ADFF8F4C1AD
:100F50007E4F520852000262046A456886697C4AE4
:100F60000B6816408A6824F002041E431443764B33
:100F700060451CBFB842984209D1CA6824F00804F1
:100F80001443604518BFB84224F0040401D09842CD
:100F900005D14B698A6925F440751D4315434560A9
:100FA0008661496841630462F0BD70B5026A22F04F
:100FB00010020262036A44688569664A0E68154039
:100FC00045EA06258A685F4E23F02003B04243EAD3
:100FD000021307D1CA6823F0800343EA021323F007
:100FE000400305E0594A90421CBF574EB04206D11B
:100FF0004E698A6924F44064164344EA86044460D6
:10100000856149688163036270BD70B5026A504BA7
:1010100022F480720262046A4568C6690A681E404A
:1010200016438B68474A24F40074904244EA032430
:1010300007D1CA6824F4006444EA022424F48064DA
:1010400005E0424A90421CBF3F4B984206D14B6993
:101050008A6925F44055134345EA03154560C66186
:101060004968C163046270BD70B5026A22F480529F
:101070000262056A4368C469364A00F05BF825F4E9
:10108000005545EA0235B0421FBF304A90422E4E0D
:10109000B04204D14A6923F4804343EA8213436097
:1010A000C46149680164056270BD70B5026A2A4B6B
:1010B00022F480320262066A4468456D0A681D4067
:1010C00015438B681F4A26F4003646EA03469042D1
:1010D0001FBF1E4B98421C4A904204D14A6924F417
:1010E000803444EA022444604565496881650662AB
:1010F00070BD70B5026A22F480120262056A43680C
:10110000446D164A00F016F825F4001545EA02551C
:10111000B0421FBF0D4A90420B4EB04204D14A6903
:1011200023F4802343EA8223436044654968C16510
:10113000056270BD0E68144044EA06248A68014EB8
:1011400070470000002C0140004401400040014075
:101150008CFFFEFFFF8CFFFE8FFFFEFFFF8FFFFE69
:1011600010B501F01F01036A01248C40A343036200
:1011700002FA01F1036A1943016210BD4E4881B0C1
:10118000816841F001018160816801F001010091F5
:101190000099026842F080520260006800F08050BE
:1011A0000090009801B0704781B00068B0F1804FA6
:1011B00009D14148016841F001010160006800F077
:1011C00001000090009801B0704700683B498842D8
:1011D00000D0704780B53848026842F010020260C3
:1011E0000022006800F010000090002100983620D6
:1011F000FFF718FCBDE802403620FFF731BC10B500
:1012000086B000F048F82468B4F1804F0FD12C4824
:10121000016841F001010160012100F041F80491F1
:101220004FF090400121059101A900F095F906B019
:1012300010BD10B59EB000F02EF806A8602100F099
:101240009DFA20681F49884223D10222002106927C
:101250000F9106A800F096FA08B100F076F9184848
:10126000C16841F40031C160C16801F400310091EE
:101270000099026842F0010202600C2100F010F8AF
:10128000032207210591049201A94FF0904000F03C
:1012900063F91EB010BD044601A8142100F06EBA17
:1012A000006800F001000090022200980191029273
:1012B00000210391704700005810024000100040C8
:1012C0004C10024000440040704770470068964947
:1012D000884204D14FF40051944800F010BA70478E
:1012E000F8B58AB000F028FC00F078F800F0B3F808
:1012F0008F4D904828604FF4E1310C200022686146
:101300006960AA60EA602A61AA61EA612A626A6287
:10131000284600F027FC08B100F017F968460021C4
:101320000022002305F1840480E80E007E4EE6646E
:10133000616542F210764FF47A776166D0352665A2
:10134000A7652846FFF7B8FB08B100F0FEF80021BA
:10135000009102912846694600F028FE08B100F08D
:10136000F4F8684600218C468E4680E8025003A8B7
:101370001C2100F003FA4FF0804020600021A160A2
:101380002161A1616660E7602046FFF7E4FB08B1D8
:1013900000F0DBF80021009102912046694600F040
:1013A00005FE08B100F0D1F8602103916422049297
:1013B000002105910022079203A92046FFF70AFDAC
:1013C00008B100F0C2F82046FFF719FF2846FFF7E2
:1013D00080FB00212046FFF7CBFBFEE780B596B0EF
:1013E00005A8442100F0CAF96846142100F0C6F9A6
:1013F0004FF40070FFF7BEFA08B100F0A6F8022122
:101400004FF48072059108921021022209910F92E7
:1014100010920A21012211921291072202211392A5
:101420001491159105A8FEF7B1FE08B100F08DF8F2
:10143000032101910F204FF4E061009000220391FD
:101440000292049204216846FFF717F908B100F0F0
:101450007CF817B000BD38B586B06846142100F09E
:101460008DF93548046844F0040404604FF40055D5
:1014700001682E4C01F0040105910599026842F0C3
:1014800080020260036803F08003059305990268F7
:1014900042F001020260036803F00103059305991D
:1014A000026842F0020202600022006800F00200BE
:1014B0000590B02105984FF0904000F01BF90022F4
:1014C0004FF40051204600F015F94FF488110191B6
:1014D0000022029200956946184800F03DF8B021BC
:1014E00000910122002102910391019200F028F85D
:1014F00040200021009001910122029200F020F88A
:101500000120019000220292039200956946204634
:1015100000F022F8002200212820FFF783FA28207B
:10152000FFF79EFA07B030BD0010004000040048ED
:1015300010000020004400404C1002400008004809
:1015400069464FF0904000F007B872B6FEE770476A
:1015500070477047704770472DE9F84F0026704A72
:101560000F2380460D4634E06E4CA04514BF07247F
:1015700004248C4044EA0E044CF82740C7436A49CF
:101580008C6807EA040C6C68E40248BF40EA0C0C63
:10159000C1F808C0CC6807EA040C6C68A40248BF14
:1015A00040EA0C0CC1F80CC04C6807EA040C6C68EB
:1015B000A40348BF40EA0C0CC1F804C00C6807EA59
:1015C000040C6F68FC0348BF40EA0C0CC1F800C073
:1015D000761C296831FA06F000F08A80012000FAB2
:1015E00006FE1EEA0100F3D077000321B9406FEA3E
:1015F000010C696801F00304012C1CBF01F0030118
:10160000022913D1D8F80810EC680CEA0101BC409B
:101610002143C8F80810D8F8041021EA0E046968BC
:10162000C1F30011B1402143C8F80410B1002C7976
:1016300004F00304032C21D0D8F80C400CEA040E6B
:10164000AC68BC4044EA0E04C8F80C402C7904F0A5
:101650000304022C12D1F40808EB840E01F01C09DB
:10166000DEF82040D5F810B003FA09FA24EA0A049B
:101670000BFA09F949EA0404CEF82040D8F80040F2
:1016800095F804E00EF0030E0CEA04040EFA07F7D6
:101690002743C8F800706F6817F4403F98D0176868
:1016A000DFF888C047F00107176001F00C011468EB
:1016B00004F00104009403FA01FE009FB7085CF8EF
:1016C000274024EA0E0EB8F1904F08BF00240ED038
:1016D000174CA04508BF012409D0164CA04508BFEF
:1016E000022404D0144CA0457FF43EAF032440E70D
:1016F000BDE8F18F0AB1816170478162704742692C
:1017000001EA0203914341EA0341816170470B4AB8
:10171000136803421CBF106000F012B8704700004D
:101720006010024000100048000401400800014021
:101730000004004800080048000C00481404014060
:10174000704730B4002513E050F8042BD30744BF92
:10175000A9F101039A18091F042942F8045BFAD27F
:1017600013468C0744BF15809B1CC90748BF1D70DA
:1017700050F8041B0029E7D130BC7047002200F06C
:1017800047BC00002DE9FC47054600242868DFF827
:101790008C630105A1461BD5686C58B1B0F5000FEC
:1017A00003D0B0F5400F09D010E0326842F4803227
:1017B000326004E0002100F02AF904463CB9F16FE0
:1017C000686C21F440010143F16701E00124A14666
:1017D000286881032BD5F06CC1004FF000080AD4B3
:1017E000F06C40F08050F0644FF00108F06C00F0B5
:1017F000805000900098DFF82873386840F48070BB
:101800003860FFF7ABF882463868C10500F1D18037
:10181000FFF7A4F8A0EB0A000328F5D30324A146A0
:10182000B8F1000F03D0F06C20F08050F0642878FD
:10183000C10705D5F26F286A920840EA8202F26772
:101840002978880705D5F16F686A21F00C010143FA
:10185000F1672978480705D5F16FA86A21F03001B2
:101860000143F1672978880605D5F16FE86A21F40C
:1018700040610143F1672968880505D5F16FE86B80
:1018800021F440210143F1672968480505D5F16F2E
:10189000286C21F440110143F1672978480605D5E9
:1018A000F16F286B21F440510143F1672978080654
:1018B00005D5F16F686B21F440410143F167296858
:1018C000C80505D5F16FA86B21F440310143F167DC
:1018D000296888041ED5F16FA86C21F0406101438E
:1018E000F167A86CB0F1006F0CD100F08AF811E03C
:1018F000FFF734F8001B41F28931884276D34FF06C
:1019000003098DE7B0F1806F04D100F07FF801008A
:1019100018BF81462868010314D5F26FE86C22F0E5
:1019200040620243F267E86CB0F1006F02D100F050
:1019300068F807E0B0F1806F04D100F067F80100AB
:1019400018BF81462868410314D5F26F286D22F034
:1019500040620243F267286DB0F1006F02D100F0DF
:1019600050F807E0B0F1806F04D100F04FF80100AB
:1019700018BF8146286841040FD5F26F686D22F0C8
:1019800040520243F267696DB1F1805F05D10221D7
:1019900000F03DF8010018BF81462868010405D514
:1019A000F26FA86D22F080420243F2674846BDE81C
:1019B000F687002C7FF433AFDFF86871386810F4D5
:1019C00040701CBFE96D88420BD03868396841F41B
:1019D0008031396020F440703A6822F480323A60F5
:1019E0003860C00706D5FEF7B9FF0446386881079E
:1019F0007FF57EAF3A68E86D22F4407202433A60A8
:101A00000EE7306840F48010306070470121281DD7
:101A1000FFE72DE9F0410746434E38680C46F16870
:101A2000002511F0030F0DD0F16801F00301814290
:101A300037D1B0B3F0687968C0F30210401C884217
:101A400013D02EE0012804D02BD3032823D01ED39B
:101A500027E03268910724D5F268796822F0730292
:101A60001043491E40EA0110F060306820F08060A9
:101A70003060FEF773FF80463068010134D5FEF711
:101A80006DFFA0EB08000328F6D303253CE0316886
:101A90004A05E1D405E031688A03DDD431684A03A0
:101AA000DAD4012530E0012C326906D13B691F48A8
:101AB00000F02DF841EA435105E07B691C4800F035
:101AC00026F841EA43613161306840F0806030605F
:101AD000FEF744FF04463068010111D4FEF73EFFD3
:101AE000001B0328F7D3D0E7B968002CDBD132699B
:101AF0001048FB68024042EA012141EAC361E2E783
:101B00003169B869014331612846BDE8F08102407E
:101B10005B0842EA01215B1E704700000C10024086
:101B2000007000409010024000100240FF809FFFB4
:101B3000FF80FFF9FF80FF07094810B5016841F4F5
:101B4000807101600320FEF760FF0020FEF7E4FED5
:101B50000024002814BF0124FFF710FB204610BD0D
:101B60000020024038B5040009D004F1740569680A
:101B700009B900F01EF800F021F8012801D1012078
:101B800032BD606A08B100F02AF800F00AF821F0CE
:101B90002A01FFE7816000F01BF8BDE8324000F049
:101BA00086B92068416821F49041416020688168CD
:101BB0007047002028702046FFF73BBB2421696056
:101BC00020680268520852000260204600F014B8F3
:101BD0002068016841F001010160204670472046FD
:101BE00000F002B9296851E8002F22F4D07241E8D0
:101BF0000020002870470000F8B5044673482268AA
:101C0000734F1368A168034020690B436169034364
:101C1000E0690B430343136000255168E06821F439
:101C2000405101435160A36967498A421CBF206A41
:101C300003439668674826F4306633439360BA429C
:101C40004FF40043644E2FD1366806F00306032E8E
:101C500037D8DFE806F0026F5C710127E169B1F562
:101C6000004F4FF6F07640F0868047B1012F7AD0D2
:101C7000022F08D0042F79D0082F7AD09DE0FEF7EC
:101C8000DDFD00280FD061684A0802EB4002B2FB7C
:101C9000F1F0A0F11001B142F0D20640C0F34200D1
:101CA00006432068C66089E04C4FBA4221D13668AD
:101CB00016F00C063CD0042E3CD0082E27D00C2E5B
:101CC0003AD010278A42C9D137B1022F08D0042F49
:101CD00034D0082F35D070E0FEF7B0FD00286DD06D
:101CE000626802EB4201884267D3130383422AD21F
:101CF00063E03B4FBA420CD1366816F0300617D07D
:101D0000102E17D0202E02D0302E15D0D9E7022762
:101D1000D8E78A42D5D1366816F4406608D0B6F5C1
:101D2000806F07D0B6F5006FF1D0B6F5406FECE7E5
:101D30000027C7E70427C5E70827C3E7FEF735FDF7
:101D4000CCE71846CCE7010E560816EB0020694197
:101D5000002300F077F9A0F54071224A91422CD27D
:101D60002168C8602AE0FEF771FD8AE7FEF71DFDD5
:101D700087E7184687E747B1012F16D0022F07D013
:101D8000042F15D0082F16D017E0FEF757FDA8B185
:101D9000616800EB5100B0FBF1F0A0F11001B1421D
:101DA0000BD2226880B2D06008E0FEF74FFDEEE76C
:101DB000FEF7FBFCEBE71846EAE70125002060662A
:101DC000A0662846F2BD000000800040F369FFEFE6
:101DD000003801400024F400881002400044004014
:101DE0000048004000FD0F0090F82410CA0706D5F7
:101DF00002685368816A23F400330B43536090F800
:101E000024108A0706D502685368C16A23F4803318
:101E10000B43536090F824104A0706D502685368B4
:101E2000016B23F480230B43536090F824100A07BE
:101E300006D502685368416B23F400430B4353609B
:101E400090F82410CA0606D502689368816B23F4C3
:101E500080530B43936090F824108A0606D50268DD
:101E60009368C16B23F400530B43936090F82410E4
:101E70004A0610D502685368016C23F480130B43A3
:101E80005360036CB3F5801F05D15368416C23F494
:101E9000C0030B43536090F824100A0606D501686E
:101EA0004A68806C22F4002202434A607047F8B509
:101EB000044604F174050020E8606FF07E47FEF7E9
:101EC0004DFD0646206801680A0708D5009733468D
:101ED00000224FF40011204600F017F860B9206886
:101EE00001684A070AD50097334600224FF4800163
:101EF000204600F00AF808B10320F2BD20206860F7
:101F0000A860002020662870F2BD2DE9F041069CF3
:101F100005460E4690461F462868C1693140B142C9
:101F20000CBF0120002040452AD114F1010FF3D04D
:101F3000FEF714FDC01B844200D354B9FFF752FED4
:101F4000FCD100F026F8FCD100F01DF80021017052
:101F500014E0286801684A07DED5C1690A05DBD5A7
:101F60004FF400610162FFF73DFEFCD100F011F873
:101F7000FCD100F008F8C16000220270032000E0EC
:101F80000020BDE8F08105F17400202141608160EE
:101F90007047286800F1080151E8001F490800F166
:101FA0000802490042E8001000287047F0B500F12F
:101FB0003C042278012A01D10220F0BD01222270C6
:101FC000022363700568DFF840C06E68AF6865453E
:101FD00003D14B6826F470061E430A6826F070068B
:101FE00016436E60026862451EBFB2F1804F07481B
:101FF000824204D1886827F0800707439760012157
:10200000617000202070F0BD002C014000400140B4
:1020100000B500BF130096469446103928BFA0E8CB
:102020000C50FAD85FEA417C28BF0CC048BF40F88A
:10203000042BC90728BF20F8022B48BF00F8012B4A
:1020400000BD0000D3BBD9B1B2F5803F5BD2022AFC
:102050001ED98C46B1FBF2F102FB11C31B0443EA0B
:102060001043B3FBF2FC02FB1C3380B240EA034393
:10207000B3FBF2F002FB103240EA0C400023704741
:10208000022A05D98446B0FBF2F002FB10C2704769
:102090004AB105D100F0010249085FEA30007047FB
:1020A00000220023704700F051B80B00020000210D
:1020B00000207047F7D3002200237047904271EB55
:1020C000030CF2D370B5B1FA81F4B3FA83F52C1B8B
:1020D000A340C4F1200532FA05F63343A2405FF075
:1020E0000046E64002E05B085FEA3202841A71EBC8
:1020F000030524BF204629467641F4D302000B0095
:102100003000002170BD70B5B1FA81F4B2FA82F5E9
:10211000C4F120046419B4F12006DAD3B2405FF0B0
:102120000044F440002502E052085FEA3303C61A77
:1021300071EB020E24BF3046714664416D41F3D30A
:1021400002000B002000290070BD00007047000055
:10215000A0860100400D0300801A060000350C0027
:1021600040420F0080841E0000093D0000127A00EA
:102170000024F40000366E010048E801006CDC0227
:1021800030B450F8041B79B1026843680244083047
:10219000DC0744BFA9F10104E31852F8045B43F8DB
:1021A000045B091FF9D1ECE730BC7047FEE7FEE79E
:1021B000FEE7FEE7FEE770477047704700F00AB899
:1021C0004FF40050FFF7A3BA0148FEF74DBD0000E1
:1021D000E00000200248416802788A184260704797
:1021E0000000002010B5074979441831064C7C44A2
:1021F000163404E00A68081D114488470146A142CC
:10220000F8D110BD2C0000004C0000004EF68851A3
:10221000CEF20001086840F470000860BFF34F8FF1
:10222000BFF36F8F4FF00070E1EE100A70470000AF
:1022300013F5FFFF1C01000010000020000000004B
:1022400041FFFFFF1000000084000000000000209C
:10225000000000000248016841F47001016070470D
:1022600088ED00E00000000000000000010203040F
:102270000607080900F00DF8002801D0FFF7B2FFAB
:10228000AFF300800020AFF30080FFF729F800F0E3
:1022900002F80120704700F001B8000007463846F8
:1022A00000F002F8FBE7000080B5AFF30080024ABF
:1022B00011001820ABBEFBE7260002000148804752
:1022C0000148004755220008DD22000801000000F7
:1022D000000000001000000000093D00AFF3008086
:1022E000FFF794FFFFF7C6FF0000000001020304A0
:1022F000FFF7FEBFFFF7FEBFFFF7FEBFFFF7FEBF12
:10230000FFF7FEBFFFF7FEBFFFF7FEBFFFF7FEBF01
:10231000FFF7FEBFFFF7FEBFFFF7FEBFFFF7FEBFF1
:10232000FFF7FEBFFFF7FEBFFFF7FEBFFFF7FEBFE1
:10233000FFF7FEBFFFF7FEBFFFF7FEBFFFF7FEBFD1
:10234000FFF7FEBFFFF7FEBFFFF7FEBFFFF7FEBFC1
:10235000FFF7FEBFFFF7FEBFFFF7FEBFFFF7FEBFB1
:10236000FFF7FEBFFFF7FEBFFFF7FEBFFFF7FEBFA1
:10237000FFF7FEBFFFF7FEBFFFF7FEBFFFF7FEBF91
:10238000FFF7FEBFFFF7FEBFFFF7FEBFFFF7FEBF81
:10239000FFF7FEBFFFF7FEBFFFF7FEBFFFF7FEBF71
:1023A000FFF7FEBFFFF7FEBFFFF7FEBFFFF7FEBF61
:1023B000FFF7FEBFFFF7FEBFFFF7FEBFFFF7FEBF51
:1023C000FFF7FEBFFFF7FEBFFFF7FEBFFFF7FEBF41
:1023D000FFF7FEBFFFF7FEBFFFF7FEBFFFF7FEBF31
:1023E000FFF7FEBFFFF7FEBFFFF7FEBFFFF7FEBF21
:04000005080022DDF0
:00000001FF
