:020000040800F2
:1000000028050020412C0008312B0008332B000864
:10001000352B0008372B0008392B000800000000A2
:100020000000000000000000000000003B2B000862
:100030003D2B0008000000003F2B0008412B00086A
:10004000752C0008792C00087D2C0008812C0008F4
:10005000852C0008892C00088D2C0008912C0008A4
:10006000952C0008992C00089D2C0008A12C000854
:10007000A52C0008A92C0008AD2C0008B12C000804
:10008000B52C0008B92C0008452B0008BD2C000831
:10009000C12C0008C52C0008C92C0008CD2C000874
:1000A000D12C0008D52C0008D92C0008DD2C000824
:1000B000E12C00080000000000000000E52C000812
:1000C000E92C0008ED2C0008F12C0008F52C0008A4
:1000D000F92C0008FD2C00084B2B0008012D00080E
:1000E000052D0008092D0008000000000000000098
:1000F0000000000000000000000000000000000000
:10010000000000000D2D000800000000112D000867
:100110000000000000000000152D0008192D000847
:100120001D2D0008212D0008252D0008292D00086F
:100130002D2D00080000000000000000000000005D
:10014000312D0008352D0008392D00083D2D0008FF
:10015000412D0008452D0008492D00084D2D0008AF
:10016000512D0008552D0008592D000800000000F1
:100170005D2D0008612D0008652D000800000000BD
:10018000692D00086D2D0008712D0008603000EB0E
:100190008100006800F0F8407047603000EB81009B
:1001A000016821F000410A4302607047C06800F412
:1001B0004060401E8041C00F7047CB0D10B5143019
:1001C00003F004031818090D01F01F010368072448
:1001D0008C40A34302FA01F11943016010BDF8B548
:1001E0000025044600950CB90120F2BD04F150062B
:1001F000706820B9204600F055FCB5603570216864
:100200008868800004D58A68DFF8100702408A6099
:1002100021688868C00012D48A68DFF804070240A9
:1002200042F080528A60DFF8FC16DFF8FC2608688E
:10023000B0FBF2F2521C5200009200F0FCFB20686E
:100240008168C90008D4726842F01002726001250A
:10025000B16841F00101B16081687268D30678D459
:10026000490776D4726822F4807242F0020272600A
:100270008068C0070CD4DFF8B4160868C00707D43C
:10028000DFF8AC160A68606822F47C1202430A6048
:1002900004F13002607E5368E16894F8207043EA0C
:1002A0004033A0680B430343012F43EA074303D1C4
:1002B000606A401E43EA4043A06A20B1E16A00F44C
:1002C0007070084303432168DFF86806CF68074071
:1002D0003B43CB6021688B6888685B0724D40007A8
:1002E00022D4CB68DFF85006277E0340107843EA1B
:1002F000873343EA4003CB60107A01280FD123688B
:100300001F69D16810696FF38A070F43516907436A
:1003100090690F43074347F001071F6104E020681D
:100320000169490849000161206901282068016BC1
:1003300005D1E2690909521E42EA011101E00909E9
:1003400009010163706820F0020040F00100706054
:1003500004E0706840F01000706001252846F2BD8E
:1003600038B504462068806840074BD404F1500536
:100370002978012946D000F058F8010041D100F059
:100380004AF846BFA96821F00601002100F03CF8B8
:1003900021684A6822F01C024A60616908292168C4
:1003A0004A680CBF42F0080242F004024A60616BE6
:1003B00021B921684A6842F010024A602168CA687F
:1003C000930119D56A6822F4005242F480526A609F
:1003D0006269082A4A6807D122F020024A6021682F
:1003E0004A6842F0400206E022F040024A6021687A
:1003F0004A6842F020024A602268DFF84C1693688F
:100400001BE017E0022032BDA9601C2221680A60AF
:1004100000232B7070476A68DFF830160A4042F4F8
:1004200080726A606968CA0470470120287020469B
:1004300000F0B8BA0021297032BD0B4043F004032C
:10044000936032BD0068006C7047F8B505462868B7
:1004500006684768B0070ED5B9070CD5686DC106A8
:1004600003D4686D40F400606865284600F0E0FB46
:10047000296802200860700701D5790703D4300786
:100480002ED539072CD5686DC10603D4686D40F4AC
:10049000007068652868FFF789FED8B12868C168D0
:1004A000890417D40268110714D5816849070FD44D
:1004B000426822F00C024260686D20F4807068652A
:1004C000686DC10406D4686D40F00100686501E004
:1004D00000F0A0F8284600F0C9FB29680C2008604D
:1004E000B00601D5B90603D4700639D5790637D5DB
:1004F000686DC10603D4686D40F4005068652868D3
:10050000C16C01F0C0014C1EA441FFF74FFE2968E9
:10051000CA68E40FF4B1930102D5D8B1900419D49C
:100520000868400616D5920214D4886800070FD4D4
:100530004A6822F060024A60686D20F48050686565
:10054000686DC10506D4686D40F00100686501E082
:1005500000F060F8284600F0F9FC29686020086087
:1005600030060BD5390609D5686D40F480306865D2
:10057000284600F0ECFC296880200860F0050CD5C6
:10058000F9050AD5686D40F400306865284600F02A
:10059000DFFC29684FF480700860B0050CD5B90500
:1005A0000AD5686D40F480206865284600F0D1FCCB
:1005B00029684FF400700860F00615D5F90613D5C8
:1005C000686B18B12968C868C1070AD5686D40F41E
:1005D00080606865A86D40F00200A865284600F0BC
:1005E000B9FC296810200860700512D5790510D56E
:1005F000686D40F4804068654FF48061A86D40F0FC
:100600000800A865286801602846BDE8F24000F0AF
:10061000A2BCF1BD686D40F010006865A86D40F0A7
:100620000100A86570470000F8B50646002406F1F1
:1006300050050F4600942978012901D10220F2BD0E
:100640000120287031688868400700F15D81786872
:10065000062812D2801E03280DD8DFE800F002041D
:1006600006080C2008E0122103E0182004E04FF4F3
:100670008071796001E006207860796832683868B6
:100680008B09303203F00C039A1801F01F01D2F8E5
:1006900000C01F238B40C0F384602CEA030300FAE0
:1006A00001F119431160306882688168520720D4D3
:1006B00009071ED4BA683968FFF77FFD3068C16842
:1006C0003A69042A16D060303B6800EB820C9B48E4
:1006D000DCF80020024003F0F8431343C9087A69AC
:1006E000480000F006008240134343F00043CCF87A
:1006F000003076E00021FFF749FD400330682146D5
:1007000004D1FFF743FDC0F3846003E0FFF73EFD33
:1007100000F016F939684A030EBFC1F3846191FAFB
:10072000A1F1B1FA81F1884204D1306800220021A0
:10073000FFF733FD00F011F9400304D100F00DF98B
:10074000C0F3846003E000F008F900F0F9F83968BC
:100750004A030EBFC1F3846191FAA1F1B1FA81F1AC
:10076000884204D1306800220121FFF716FD00F015
:10077000F0F8400304D100F0ECF8C0F3846003E02B
:1007800000F0E7F800F0DCF839684A030EBFC1F367
:10079000846191FAA1F1B1FA81F1884204D1306803
:1007A00000220221FFF7F9FC00F0CFF8400304D14A
:1007B00000F0CBF8C0F3846003E000F0C6F800F06E
:1007C000BFF839684A030EBFC1F3846191FAA1F101
:1007D000B1FA81F1884204D1306800220321FFF789
:1007E000DCFC31688868C00747D4FA683B68D1F8F8
:1007F000B0C0DFF85CE202F01802C3F312002EFA78
:1008000002F22CEA000013400343C1F8B030F8684C
:10081000DFF84012884230D1386841030EBFC0F380
:10082000846290FAA0F1B1FA81F2521C012102F027
:100830001F020A2A0DD200F099F89B0602F01F024F
:10084000401C03F0F843914000F01F0000F0A4F8B2
:100850000FE000F08BF8401C9B0602F01F0200F036
:100860001F0003F0F84391400A3800F095F841F07A
:100870000071BA683068FFF7A0FC3B68DFF8D80168
:10088000034246D02A48DFF8D4710168DFF8D0214E
:10089000BB4201F0E0711AD10B023AD4366896429D
:1008A00037D100F05EF841F4000101601D481E4A96
:1008B0000168B1FBF2F2521C0C20424300920098F6
:1008C00000281EBF0098401E0090F8D121E0DFF8FC
:1008D0009471BB4209D1CB011BD43668964218D122
:1008E00000F03FF841F080710CE0DFF87C71BB4212
:1008F0000FD14B020DD4366896420AD100F031F880
:1009000041F48001016004E0686840F02000686004
:100910000124002028702046F2BD0000C0FFFF5FC8
:10092000C0FFFF7F0C000020400D030008000450B2
:100930000803045007C0F0FFFDBFFFFF00F0FF03F6
:1009400090FAA0F0B0FA80F0704730680321FFF70A
:100950001DBC30680221FFF719BC30680121FFF788
:1009600015BC026822F0E07211437047420304D1C3
:10097000C0F38462134610460BE090FAA0F2B2FA7C
:1009800082F390FAA0F290FAA0F0B2FA82F2B0FAF2
:1009900080F05B1C521C7047194300EB400041EA99
:1009A000005170477CB5044600200090216888689B
:1009B000C20734D488686FF39E1000282CD1886851
:1009C000214D284040F00100886028490868000255
:1009D0000AD52749274B0A68B2FBF3F35B1C0C20AE
:1009E0004343009300F027F800F0B6FA064620686B
:1009F0000168CA0713D48168C90704D482682A40F1
:100A000042F00102826000F0A7FA801B0328EED3B7
:100A100020680168CA07EAD400F003F876BD002018
:100A200076BD606D40F010006065A06D40F0010083
:100A3000A0650120704702E00098401E00900098D9
:100A40000028F9D170470000C0FFFF7FFEF1FFFFD3
:100A5000FFFF070000007F4000000880000052C731
:100A600000000450000084CB010000800803045003
:100A70000C000020400D0300674881B0816841F000
:100A800001018160816801F0010100910099026813
:100A900042F080520260006800F0805000900098A0
:100AA00001B0704710B59EB000F06EF806A8602146
:100AB00000F058FA2068594988423CD14FF48042EE
:100AC00006924FF08051022207921B910822099250
:100AD0000121022208910B920C9207214FF08072A3
:100AE0000A910D9206A800F041FA08B100F02BFA25
:100AF0004B48016841F400510160026802F4005261
:100B000000920099026842F004020260012100682C
:100B100000F0040000900B220098424800F02FF8EB
:100B200001A900F0FDFB00220021122000F0F4FCDE
:100B3000122000F00FFD1EB010BD38B586B000F0D9
:100B400023F82468384DAC4216D13548C16841F0CD
:100B50000051C160C16801F0005100F055F830212A
:100B6000006800F001000090032200F007F84FF049
:100B7000904001A900F0D4FB07B030BD009801916E
:100B80000292002103917047044601A8142100F04D
:100B9000E9B910B59EB0FFF7F7FF06A8602100F095
:100BA000E1F92068214988422CD1022200210692D5
:100BB0000F9106A800F0DAF908B100F0C4F918485E
:100BC000C16841F40031C160C16801F4003100F036
:100BD0001BF80C21006800F0010000900222FFF7D2
:100BE000CDFF032207210591049201A94FF0904007
:100BF00000F096FB00220021262000F08DFC26202C
:100C000000F0A8FC1EB010BD00910099026842F0EF
:100C100001020260704700005810024000000450BA
:100C20004C1002400008004800740040004400409E
:100C3000704730B4002513E050F8042BD30744BFAD
:100C4000A9F101039A18091F042942F8045BFAD29A
:100C500013468C0744BF15809B1CC90748BF1D70F5
:100C600050F8041B0029E7D130BC704770B5A64C82
:100C7000A64D012121702846FFF7E4FB20610605FF
:100C80006E6600F093FCA24AA24B00F09DFCC4E902
:100C9000020170BD78B589B000F068FD00F098F8E9
:100CA00000F0D1F89C4C9D4820604FF416510C2068
:100CB000002260616160A260E2602261A261E26183
:100CC00022626262204600F061FD08B100F03BF94B
:100CD0006846182100F046F98C4D914828600021A3
:100CE000042068616960E9602961298305F13006A3
:100CF00000200022012185F82000A862E8623070FF
:100D00007060AA60E96132722846FFF768FA08B19C
:100D100000F019F983490091062201920021029105
:100D20007F220392042104910022059269462846FD
:100D3000FFF77AFC08B100F006F96846242100F0BC
:100D400011F97948C4F884008434204601F0BAF8D7
:100D500008B100F0F8F80020009001900022039004
:100D6000029204926946204601F0FDF808B100F0B5
:100D7000EAF810226946204601F0F5F808B100F0C3
:100D8000E2F82846FFF7ECFA00207063736B042248
:100D90000021204601F0D7F80021204601F0A6F8F6
:100DA0000A2001F06BF9736B04221021204601F038
:100DB000CAF81021204601F099F80A2001F05EF9E6
:100DC000706B5A4900F5801088427063DED3DBE710
:100DD00080B596B005A8442100F0C4F868461421F7
:100DE00000F0C0F84FF4007001F062F908B100F0B3
:100DF000AAF802214FF48072059108921021022274
:100E000009910F921092082101221192129107224A
:100E1000022113921491159105A801F087F908B1E8
:100E200000F091F8032101910F2000900022002191
:100E3000029203910492684601F0EFFB08B100F0C2
:100E400082F817B000BD38B586B06846142100F0AE
:100E500089F83748046844F0040404604FF40055EE
:100E60000168344C01F0040105910599026842F0D3
:100E700080020260036803F080030593059902680D
:100E800042F001020260036803F001030593059933
:100E9000026842F0020202600022006800F00200D4
:100EA0000590802105984FF0904000F007FB00224C
:100EB0004FF40051204600F001FB4FF488110191DE
:100EC00000220292009569461B4800F029FA402052
:100ED0000021009001910122029200F02FF8802160
:100EE00000910122002102910391019200F026F865
:100EF000012001900022029203920095694620464B
:100F000000F00EFA07B030BD10010020A80000204C
:100F1000FF092E56D4604A3F1000002000440040D4
:100F20000000045002003004007400408134B4FF1B
:100F30004C100240000400480008004869464FF089
:100F4000904000F0EDB972B6FEE7000070477047C0
:100F5000704770477047704701484068704700BF4E
:100F600000000020002201F0A7BC00002DE9FC4792
:100F7000054600242868DFF88C630105A1461BD5CF
:100F8000686C58B1B0F5000F03D0B0F5400F09D030
:100F900010E0326842F48032326004E0002100F058
:100FA0002AF904463CB9F16F686C21F44001014311
:100FB000F16701E00124A146286881032BD5F06C7C
:100FC000C1004FF000080AD4F06C40F08050F0648B
:100FD0004FF00108F06C00F0805000900098DFF8AE
:100FE0002873386840F480703860FFF7B5FF824698
:100FF0003868C10500F1D180FFF7AEFFA0EB0A0011
:101000000328F5D30324A146B8F1000F03D0F06CF8
:1010100020F08050F0642878C10705D5F26F286A67
:10102000920840EA8202F2672978880705D5F16FB5
:10103000686A21F00C010143F1672978480705D55A
:10104000F16FA86A21F030010143F1672978880621
:1010500005D5F16FE86A21F440610143F167296821
:10106000880505D5F16FE86B21F440210143F16754
:101070002968480505D5F16F286C21F4401101431A
:10108000F1672978480605D5F16F286B21F44051A6
:101090000143F1672978080605D5F16F686B21F4E3
:1010A00040410143F1672968C80505D5F16FA86B78
:1010B00021F440310143F167296888041ED5F16F9E
:1010C000A86C21F040610143F167A86CB0F1006F9A
:1010D0000CD100F08AF811E0FFF73EFF001B41F24F
:1010E0008931884276D34FF003098DE7B0F1806FE4
:1010F00004D100F07FF8010018BF81462868010381
:1011000014D5F26FE86C22F040620243F267E86C9B
:10111000B0F1006F02D100F068F807E0B0F1806F25
:1011200004D100F067F8010018BF81462868410328
:1011300014D5F26F286D22F040620243F267286DE9
:10114000B0F1006F02D100F050F807E0B0F1806F0D
:1011500004D100F04FF8010018BF8146286841040F
:101160000FD5F26F686D22F040520243F267696D4D
:10117000B1F1805F05D1022100F03DF8010018BFF8
:1011800081462868010405D5F26FA86D22F08042DF
:101190000243F2674846BDE8F687002C7FF433AF80
:1011A000DFF86871386810F440701CBFE96D884240
:1011B0000BD03868396841F48031396020F44070D0
:1011C0003A6822F480323A603860C00706D5FFF7EB
:1011D000C3FE0446386881077FF57EAF3A68E86D44
:1011E00022F4407202433A600EE7306840F4801007
:1011F000306070470121281DFFE72DE9F0410746C7
:10120000434E38680C46F168002511F0030F0DD0ED
:10121000F16801F00301814237D1B0B3F068796819
:10122000C0F30210401C884213D02EE0012804D0E5
:101230002BD3032823D01ED327E03268910724D56F
:10124000F268796822F073021043491E40EA0110E7
:10125000F060306820F080603060FFF77DFE8046EF
:101260003068010134D5FFF777FEA0EB08000328B2
:10127000F6D303253CE031684A05E1D405E0316846
:101280008A03DDD431684A03DAD4012530E0012C29
:10129000326906D13B691F4800F02DF841EA4351FD
:1012A00005E07B691C4800F026F841EA43613161A2
:1012B000306840F080603060FFF74EFE04463068D2
:1012C000010111D4FFF748FE001B0328F7D3D0E734
:1012D000B968002CDBD132691048FB68024042EA51
:1012E000012141EAC361E2E73169B8690143316133
:1012F0002846BDE8F08102405B0842EA01215B1EFE
:10130000704700000C100240007000409010024036
:1013100000100240FF809FFFFF80FFF9FF80FF0762
:101320002DE9F84F0026684A0F2380460D4634E029
:10133000664CA04514BF072404248C4044EA0E04E4
:101340004CF82740C74362498C6807EA040C6C6874
:10135000E40248BF40EA0C0CC1F808C0CC6807EAB8
:10136000040C6C68A40248BF40EA0C0CC1F80CC025
:101370004C6807EA040C6C68A40348BF40EA0C0CF4
:10138000C1F804C00C6807EA040C6F68FC0348BF8E
:1013900040EA0C0CC1F800C0761C296831FA06F04E
:1013A00000F08A80012000FA06FE1EEA0100F3D058
:1013B00077000321B9406FEA010C696801F003046A
:1013C000012C1CBF01F00301022913D1D8F8081029
:1013D000EC680CEA0101BC402143C8F80810D8F8B9
:1013E000041021EA0E046968C1F30011B1402143E1
:1013F000C8F80410B1002C7904F00304032C21D0A8
:10140000D8F80C400CEA040EAC68BC4044EA0E0468
:10141000C8F80C402C7904F00304022C12D1F40813
:1014200008EB840E01F01C09DEF82040D5F810B05E
:1014300003FA09FA24EA0A040BFA09F949EA04044E
:10144000CEF82040D8F8004095F804E00EF0030EE6
:101450000CEA04040EFA07F72743C8F800706F6817
:1014600017F4403F98D01768DFF868C047F00107CD
:10147000176001F00C01146804F00104009403FAF1
:1014800001FE009FB7085CF8274024EA0E0EB8F171
:10149000904F08BF00240ED00F4CA04508BF012478
:1014A00009D00E4CA04508BF022404D00C4CA04526
:1014B0007FF43EAF032440E7BDE8F18F0AB18161BC
:1014C00070478162704700006010024000100048C1
:1014D00000040140080001400004004800080048E2
:1014E000000C00480901020002D42A4881547047C8
:1014F000294B02F00F021A4402F8041C7047274BD4
:1015000019684FF6FF020002114000F4E060084342
:10151000234908431860704738B5204B1C68C4F352
:101520000223C3F10704052C28BF04241D1D072D29
:1015300034BF0023DB1E012505FA04F4641E21409C
:10154000994005FA03F35B1E1A401143BDE834408D
:10155000C8E70000010007D4012200F01F01114B71
:101560008A40400943F82020704710B5401EB0F172
:10157000807F01D3012010BD0B4C60600F214FF024
:10158000FF30FFF7AFFF0021A1600720206000209F
:1015900010BD000000E400E018ED00E00CED00E0FC
:1015A0000000FA0500E100E010E000E0014648B16B
:1015B000B0FA80F18840C91CC1F58461090501EBCE
:1015C000D021400570470000B0B581EA030C0CF053
:1015D000004C40F2FF7515EA11541DBF15EA135770
:1015E000AC42AF4239E0E41923EA455343F4801397
:1015F000C90241F0004141EA505EC7021100A7FB59
:10160000020200284FF00000EEFB01204FF0000125
:10161000E3FB072118BF42F00102401800214941B5
:10162000E3FB0E01A4F580640F0302D25200404197
:10163000494154F101046CDD470872F1004250F158
:10164000000051EB0451A1F580115CBF41EA0C018F
:10165000B0BD4CEA05510020B0BD05EA1357AC42BD
:1016600014BFAF4241E050EA410E1CBF52EA430EA4
:1016700002E061460020B0BD24423C441BD15FEA39
:10168000070EF6D0090302BF01460020AEF1140E8A
:10169000B1FA81F7AEEB070401FA07FE0C37C7F188
:1016A000200100FA07F7C8404EEA000E23EA45532E
:1016B00043F48013A2E733F00043B3FA83F704BF87
:1016C000B2FA82FE77440B3FE41BB7F1200E2FBF26
:1016D00002FA0EF3BB40C7F1200E22FA0EFE38BF0D
:1016E00043EA0E03BA40641C82E750EA410E14BF7D
:1016F00052EA430E6FF000014FF4001717EB430F4F
:101700008ABF194617EB410FB5E74CEA0551002097
:10171000B0BDD4F10104B4F120070FDAC4F1200701
:10172000520828BF42F0010210FA07F501FA07F744
:10173000E1BF2A43E0403843E1400FE0352C98DC1C
:10174000C7F1200452EA400220FA07F218BF42F023
:10175000010231FA07F0A1400A43002172F1004270
:1017600050F1000051EB0C01B0BD0000032010B59A
:10177000FFF7C5FE002001F0B9F80024002814BFCF
:101780000124FFF779F9204610BD000038B50400A8
:1017900009D004F17405696809B900F01EF800F079
:1017A00021F8012801D1012032BD606A08B100F0A2
:1017B0002AF800F00AF821F02A01FFE7816000F022
:1017C0001BF8BDE8324000F0CEBA2068416821F431
:1017D0009041416020688168704700202870204651
:1017E000FFF7D7B9242169602068026852085200C7
:1017F0000260204600F05AB92068016841F00101FA
:10180000016020467047204600F04ABA216851E83E
:10181000002F7047206800F1080151E8001F4908B7
:1018200000F10802490042E80010002870472068D3
:1018300000F1080151E8001F00F1080221F0400109
:1018400042E8001000287047296851E8002F22F470
:10185000D07241E8002000287047F8B5044640F6F1
:101860000F002368D9691A689E68084004F158057A
:101870000BD1880600D5970640F17D80E9680029E4
:1018800078D02046BDE8F4400847F00703D4DFF8DD
:10189000F0733A426FD0C80707D5D70505D50120A8
:1018A0001862AB6A43F00103AB62880708D5F307FF
:1018B00006D5276802203862A86A40F00400A862B2
:1018C000480708D5F30706D5276804203862A86AB8
:1018D00040F00200A86208070AD5930601D4F00779
:1018E00006D5266808233362A86A40F00800A8627B
:1018F000080509D5530107D526684FF4006030620A
:10190000A86A40F02000A862A86A002832D08806A1
:1019100005D5910603D5E96809B120468847A86A2C
:1019200021688A68510602D410F0280F1DD0204685
:1019300000F098FA20688168480611D5FFF777FF14
:10194000FCD1A86960B10FF26D518163A86901F003
:1019500012F800280ED0A869816BBDE8F440084752
:101960002046BDE8F24001F02BB8204601F028F8EF
:101970000020A862F1BDA868012867D1C80665D516
:10198000D70663D5102018622168886841062CD5D7
:10199000A9690868406880B20028EBD02A88904284
:1019A000E8DA6880086801688A061AD4FFF72EFF13
:1019B00022F48072FFF74DFFF8D1FFF72BFFFCD127
:1019C000FFF735FFFCD1202068620021A960FFF7F6
:1019D0001DFF22F01002FFF73CFFF8D1A86900F0CC
:1019E000A7FF29886888091A2AE02A8869886888F0
:1019F000511A00281CBF88B2002851D0226852E832
:101A0000003F23F4907342E800300028F6D12068AC
:101A100000F047F8520800F10803520043E80020A4
:101A20000028F4D1202068620022AA60EA602268BF
:101A300052E8003F23F0100342E800300028F6D1BE
:101A40002046BDE8F44089B200F0BBBFC80209D50A
:101A5000760207D54FF4801018622046BDE8F240A8
:101A600000F0B0BF080607D5130605D52969B9B13E
:101A70002046BDE8F4400847480611D551060FD569
:101A8000FFF7C4FE22F04002FFF7E3FEF8D120206A
:101A90002862002129612046BDE8F24000F093BF92
:101AA000F1BD00F1080252E8002F7047F8B5044676
:101AB00074482268744F1368A168034020690B437F
:101AC00061690343E0690B430343136000255168D8
:101AD000E06821F4405101435160A36967498A429B
:101AE0001CBF206A03439668684826F43066334377
:101AF0009360BA424FF40043654E2FD1366806F02A
:101B00000306032E37D8DFE806F0026F5C71012769
:101B1000E169B1F5004F4FF6F07640F0868047B1AD
:101B2000012F7AD0022F08D0042F79D0082F7AD035
:101B30009DE000F053FE00280FD061684A0802EBD8
:101B40004002B2FBF1F0A0F11001B142F0D2064028
:101B5000C0F3420006432068C66089E04D4FBA4298
:101B600021D1366816F00C063CD0042E3CD0082E4D
:101B700027D00C2E3AD010278A42C9D137B1022F74
:101B800008D0042F34D0082F35D070E000F026FEA6
:101B900000286DD0626802EB4201884267D31303CC
:101BA00083422AD263E03C4FBA420CD1366816F029
:101BB000300617D0102E17D0202E02D0302E15D080
:101BC000D9E70227D8E78A42D5D1366816F44066AD
:101BD00008D0B6F5806F07D0B6F5006FF1D0B6F536
:101BE000406FECE70027C7E70427C5E70827C3E7EE
:101BF00000F0ABFDCCE71846CCE7010E560816EB1B
:101C000000206941002300F0DFFEA0F54071234A67
:101C100091422CD22168C8602AE000F0E7FD8AE7F3
:101C200000F093FD87E7184687E747B1012F16D0EC
:101C3000022F07D0042F15D0082F16D017E000F080
:101C4000CDFDA8B1616800EB5100B0FBF1F0A0F14F
:101C50001001B1420BD2226880B2D06008E000F0DF
:101C6000C5FDEEE700F071FDEBE71846EAE7012558
:101C700000206066A0662846F2BD0000008000409B
:101C800020010004F369FFEF003801400024F40054
:101C900088100240004400400048004000FD0F0052
:101CA00090F82410CA0706D502685368816A23F4A5
:101CB00000330B43536090F824108A0706D502685E
:101CC0005368C16A23F480330B43536090F82410A7
:101CD0004A0706D502685368016B23F480230B433F
:101CE000536090F824100A0706D502685368416BC8
:101CF00023F400430B43536090F82410CA0606D522
:101D000002689368816B23F480530B43936090F8CF
:101D100024108A0606D502689368C16B23F4005329
:101D20000B43936090F824104A0610D5026853685C
:101D3000016C23F480130B435360036CB3F5801FD5
:101D400005D15368416C23F4C0030B43536090F8F2
:101D500024100A0606D501684A68806C22F4002225
:101D600002434A607047F8B5044604F17405002048
:101D7000E8606FF07E47FFF7EFF8064620680168DD
:101D80000A0708D50097334600224FF40011204679
:101D900000F017F860B9206801684A070AD5009773
:101DA000334600224FF48001204600F00AF808B1C3
:101DB0000320F2BD20206860A86000202066287003
:101DC000F2BD2DE9F041069C05460E4690461F46A1
:101DD0002868C1693140B1420CBF01200020404554
:101DE0002AD114F1010FF3D0FFF7B6F8C01B8442DB
:101DF00000D354B9FFF728FDFCD100F026F8FCD140
:101E000000F01DF80021017014E0286801684A07FD
:101E1000DED5C1690A05DBD54FF400610162FFF729
:101E200013FDFCD100F011F8FCD100F008F8C160FE
:101E300000220270032000E00020BDE8F08105F1DF
:101E400074002021416081607047286800F108011A
:101E500051E8001F490800F10802490042E800105B
:101E600000287047026852E8003F23F4907342E86C
:101E700000310029F6D1016801F1080252E8002F73
:101E8000520801F10803520043E800210029F2D171
:101E9000016E012908D1026852E8003F23F01003C7
:101EA00042E800310029F6D12021C16700220266F4
:101EB00042667047806A00F1520100220A810A805E
:101EC00000F07EBD10B5040001D1012010BD2079C5
:101ED00020B9002161712046FEF72FFE02202071FB
:101EE0000021216101202071002010BD30B5427910
:101EF000012A01D1022030BD012242710223037167
:101F0000012503681C6801F0100295402C431C60F9
:101F100000290268116807D101F03C0104290CD1A5
:101F2000516841F0010107E001F47011B1F5802F13
:101F300003D1516841F00201516001210171002279
:101F40004271002030BD38B5002400940029056896
:101F500000950CBF083214320098121800920098B5
:101F60000360002032BD2DE9F04106460F4670792E
:101F70000128144608BF022079D001207071022187
:101F8000317104F01005386804283BD1FEF7E4FFF6
:101F9000804654B93068416B080417D5FEF7DCFF62
:101FA000A0EB08000128F5D909E03068416B002951
:101FB00013D5FEF7D1FFA0EB08000128F5D9306951
:101FC00040F008003061032131714FE0012000F042
:101FD00055F83168B869086405E0012000F04EF852
:101FE0003168B869486440F2FF323068816CFB693F
:101FF00000F03FF88164FF223068C16C3B6A00F05A
:1020000038F8C1643869012806D13068816B7B6972
:102010001F2200F02EF8816307203268D36B3C68E2
:10202000B968A8408343F8680C430443AC40234399
:10203000D3634FF4804230680168AA409143016045
:1020400040F6FC73306801687A68AB409943AA4057
:1020500011430160C0233068016803FA05F521EAE5
:102060000505056001203071002171710846BDE849
:10207000F081AA409143AB401943704738B50446FC
:10208000FEF76AFF14F1010F054602D004480178FB
:102090006418FEF761FF401BA042FAD331BD00BFB8
:1020A00000000020DFF87800006800F4C06070478E
:1020B00010B5DFF86C10B0F5007F086800F4C06060
:1020C00015D1B0F5007F1BD00868DFF85820DFF885
:1020D000584020F4C06040F4007000F018F84A69DD
:1020E00053050FD5002818BF401EF8D10AE0B0F5FF
:1020F000806F05D0086820F4C06040F480600860FC
:10210000002010BD48694105FAD5032010BD0860C4
:10211000322013684343B3FBF4F0401C70470000C7
:10212000007000400C00002040420F002DE9FC47E9
:10213000050017D0DFF84077DFF84C67BC68F86817
:1021400000F003082878C10604F00C0452D524B12D
:102150000C2C08BFB8F1010F2FD13868810703D5C7
:10216000A869002800F05181396808074EBF396816
:1021700071680909286A01F0F001814206D200F075
:1021800041FB002809D100F030FA08E000F02DFAF8
:102190002CB9286A00F036FB002840F0368100F0A8
:1021A000D4FABA6800F0C7FADFF8D406006800F085
:1021B0009DFB010000F0198111E2A86990B1396816
:1021C00041F001013960FEF7C7FE8146386881079A
:1021D00000F10981FEF7C0FEA0EB09000328F5D34A
:1021E0000320FCE138684008400000F013FA814603
:1021F0003868810740F1F980FEF7AEFEA0EB0900D8
:102200000328F5D3ECE76868B0F5803F04D138685F
:1022100040F48030386011E0B0F5A02F386806D166
:1022200040F480203860396841F4803105E020F4C2
:1022300080303860396821F480213960686868B17D
:10224000FEF78AFE81463868810300F1E080FEF7E0
:1022500083FEA0EB09006528F5D3C1E7FEF77CFEFD
:1022600081463868810340F1D280FEF775FEA0EB0D
:1022700009006528F5D3B3E7FEF76EFE00F0B1F96B
:10228000C0F0EB80ACE7E86880B1396841F4807158
:102290003960FEF761FE80463868410500F1C8806C
:1022A000FEF75AFE00F09DF9F6D399E7386820F45E
:1022B000807000F0AFF980463868410540F1BF807A
:1022C000FEF74AFE00F08DF9F6D389E7400840009A
:1022D0007060FEF741FE80467068810740F1C18062
:1022E000FEF73AFE00F07DF9F6D379E7052830686D
:1022F00006D140F004003060316841F0010105E092
:10230000400840003060316821F004013160A86865
:1023100041F2893968B1FEF71FFE824630688107B5
:1023200000F1D580FEF718FEA0EB0A004845F5D372
:1023300056E7FEF711FE82463068810740F1C780FC
:10234000FEF70AFEA0EB0A004845F5D348E7FEF782
:1023500003FE00F046F9C0F0CF8041E7400840009E
:10236000B060FEF7F9FD8046B068810740F1C88093
:10237000FEF7F2FD00F035F9F6D331E7FEF7ECFD9C
:10238000001B0328C0F0F6802AE7FEF7E5FD001BDE
:102390000328C0F0198123E7386881010CD438681C
:1023A00040F080703860F96841F08071F960FEF7A4
:1023B000D3FD04463868810100F11081FEF7CCFDA1
:1023C000001B0328F6D30BE70C2C1ED000F01FF9DE
:1023D00004463868810140F1FC80FEF7BDFD001B1A
:1023E0000328F6D3FCE600F000F92878C1070ED5E3
:1023F000082C05D00C2C08BFB8F1030F7FF403AFF5
:102400003868810303D5686808B90120E7E02878B7
:10241000810714D5042C05D00C2C08BFB8F1020F8D
:102420007FF431AF3868410502D5E8680028ECD068
:102430007868296920F0F85040EA016078602878CF
:1024400001070ED56869002870683FF43FAF40F07F
:1024500001007060FEF780FD8046706881077FF59F
:102460000BAF2878410739D5B86DC1004FF000088F
:102470000AD4B86D40F08050B8654FF00108B86DCF
:1024800000F0805000900098DFF80094D9F8000028
:10249000C10513D4D9F8000040F48070C9F80000D9
:1024A000FEF75AFD8246D9F80000C10506D4FEF7B2
:1024B00053FDA0EB0A000328F5D391E6A868012894
:1024C0007FF414AF306840F0010030601FE7B8F1CE
:1024D000000F03D0B86D20F08050B86528788106D1
:1024E0000ED5686A0028B0683FF438AF40F00100AC
:1024F000B060FEF731FD8046B06881077FF527AFF9
:10250000A86A00286AD002287FF45EAFF868EA6AF9
:1025100000F00301914201BF00F070012A6B521ECE
:10252000B1EB021F1CD16A6B00F4FE41B1EB022F2C
:1025300002BF00F07841AA6BB1EBC26F10D1EA6B19
:10254000520800F4C001521EB1EB425F08D1296C61
:10255000490800F0C060491EB0EB416F3FF41CAF6A
:102560000C2C3FF452AF386841013FF54EAF00F0FC
:102570004EF80446386881013FF500AFFA68DFF88D
:102580001013E86A0A40296B0243491E686B42EA4D
:102590000112E96B490842EA0022286C491E4008F2
:1025A00042EA4152401E42EA4062A86B42EAC062DF
:1025B000FA60396841F080713960F86840F08070E5
:1025C000F860FEF7C9FC0446386881017FF5DDAE8E
:1025D00004E0FA68DFF8BC020240FA600020BDE8BF
:1025E000F687A0EB080003287047386840F0080021
:1025F00038603968286A21F0F00101433960796850
:10260000E86921F47F4141EA002179607047386828
:1026100020F080703860FEF79FBC2DE9F041040087
:10262000884675D0DFF87062306800F007004045DA
:1026300002D200F06FF86BD12078DFF83C528107AE
:1026400006D5A068A96801F0F001814200F06CF89D
:102650002078C1074AD56068032802D129688A0119
:1026600008E0022802D129688A0303E000282968CB
:1026700002D18A0702D44BE04A0549D5A9688908E6
:1026800040EA8100A860FEF767FC0746A868616819
:1026900000F00C00B0EB810F28D0FEF75DFCC01BF2
:1026A00041F289318842F1D303201DE020784107AF
:1026B00005D5AA68E06822F4E0620243AA602178A6
:1026C000080706D5A968206921F4605141EAC001D4
:1026D000A96000F03AF8AA6800F02DF8BDE8F041D2
:1026E0006748006800F002B9BDE8F08120788107F2
:1026F00006D5A068A96801F0F001884200F014F83E
:10270000306800F007008045D0D200F003F8CDD04B
:102710000120E9E73168C90848EAC1013160306841
:1027200000F007004045704704D2A96821F0F0018D
:102730000843A86070475949C2F30312895C4F4AA5
:1027400001F01F01C8401060704770B54A4A554BF0
:102750009068D6680025002110F00C0006F00306F2
:10276000514C03D00C2812D1012E1AD115682E0716
:1027700004D4444D2E68C6F3032502E01568C5F362
:1027800003154A4E56F8255048B9294624E0042836
:1027900008BF214620D008281ED119461CE00C286D
:1027A0001AD1D06800F00300022803D0032808BF24
:1027B0001D4600E02546D168D068D268C0F30620E7
:1027C0004543C1F30210C2F34161401C491CB5FBF3
:1027D000F0F04900B0FBF1F1084670BD2748304ADF
:1027E000006813683249C3F3022206E023482C4AEA
:1027F000006813682E49C3F3C222895C01F01F01EF
:10280000C84070477CB52B4E054630680024C10097
:1028100002D5FFF747FC0EE0306840F08050306092
:10282000316801F0805100910098FFF73BFC31685E
:1028300021F080513160B0F5007F04D1802D0CD99A
:10284000A12D09D304E0802D88BF032405D801D130
:10285000022402E0702D00D101240F480168C9084C
:1028600044EAC1010160006800F00700A04201D005
:10287000012076BD002076BD001002400C00002033
:1028800008000020941002409010024000700040A8
:102890008C809D01FCFFEEFE00200240E82B00082A
:1028A0000810024000127A000024F400D42A000824
:1028B0006C2C00085810024000B500BF130096466B
:1028C0009446103928BFA0E80C50FAD85FEA417C42
:1028D00028BF0CC048BF40F8042BC90728BF20F808
:1028E000022B48BF00F8012B00BD000070B50E4E52
:1028F000044630780025A0B14FF47A710B4AB1FB41
:10290000F0F11068B0FBF1F0FEF72FFE48B9102C83
:1029100007D2002221464FF0FF30FEF7FDFDB460E4
:1029200000E00125284670BD000000200C000020BA
:1029300000F124014A78022A05D00420886100228F
:102940000A70012070470268136823F00E031360B9
:1029500000680268520852000260012091F82020AD
:10296000CB6902F01C0290405860002201204870A0
:102970000A700020704738B500F1240100244A781D
:10298000022A03D004208861012417E0026813683A
:1029900023F00E031360026815686D086D00156062
:1029A000012291F82030CD6903F01C039A406A603F
:1029B00001224A700C70496901B18847204632BD36
:1029C0007047704770477047D3BBD9B1B2F5803FAD
:1029D0005BD2022A1ED98C46B1FBF2F102FB11C375
:1029E0001B0443EA1043B3FBF2FC02FB1C3380B22E
:1029F00040EA0343B3FBF2F002FB103240EA0C4022
:102A000000237047022A05D98446B0FBF2F002FB8E
:102A100010C270474AB105D100F0010249085FEACF
:102A20003000704700220023704700F051B80B00BF
:102A30000200002100207047F7D3002200237047D6
:102A4000904271EB030CF2D370B5B1FA81F4B3FA92
:102A500083F52C1BA340C4F1200532FA05F633435D
:102A6000A2405FF00046E64002E05B085FEA320207
:102A7000841A71EB030524BF204629467641F4D31E
:102A800002000B003000002170BD70B5B1FA81F476
:102A9000B2FA82F5C4F120046419B4F12006DAD345
:102AA000B2405FF00044F440002502E052085FEAC3
:102AB0003303C61A71EB020E24BF304671466441DF
:102AC0006D41F3D302000B002000290070BD00000F
:102AD00070470000A0860100400D0300801A060028
:102AE00000350C0040420F0080841E0000093D00AC
:102AF00000127A000024F40000366E010048E8015C
:102B0000006CDC0230B450F8041B79B102684368F1
:102B100002440830DC0744BFA9F10104E31852F86D
:102B2000045B43F8045B091FF9D1ECE730BC704744
:102B3000FEE7FEE7FEE7FEE7FEE7704770477047F7
:102B400000F00AB80248FDF780BC0248FEF785BED7
:102B5000A8000020100000200248416802788A186E
:102B6000426070470000002010B5074979441831D1
:102B7000064C7C44163404E00A68081D114488475A
:102B80000146A142F8D110BD2C0000004C0000000D
:102B90004EF68851CEF20001086840F470000860DB
:102BA000BFF34F8FBFF36F8F4FF00070E1EE100A4D
:102BB000704700007FE0FFFF1401000010000020BC
:102BC0000000000041FFFFFF100000008400000033
:102BD00000000020000000000248016841F470017C
:102BE0000160704788ED00E0000000000000000078
:102BF000010203040607080900F00DF8002801D0BF
:102C0000FFF7B2FFAFF300800020AFF30080FEF7C4
:102C100041F800F002F80120704700F001B8000010
:102C20000746384600F002F8FBE7000080B5AFF336
:102C30000080024A11001820ABBEFBE7260002000C
:102C40000148804701480047D92B0008612C000843
:102C500001000000000000001000000000093D001D
:102C6000AFF30080FFF794FFFFF7C6FF00000000FE
:102C700001020304FFF7FEBFFFF7FEBFFFF7FEBF31
:102C8000FFF7FEBFFFF7FEBFFFF7FEBFFFF7FEBF78
:102C9000FFF7FEBFFFF7FEBFFFF7FEBFFFF7FEBF68
:102CA000FFF7FEBFFFF7FEBFFFF7FEBFFFF7FEBF58
:102CB000FFF7FEBFFFF7FEBFFFF7FEBFFFF7FEBF48
:102CC000FFF7FEBFFFF7FEBFFFF7FEBFFFF7FEBF38
:102CD000FFF7FEBFFFF7FEBFFFF7FEBFFFF7FEBF28
:102CE000FFF7FEBFFFF7FEBFFFF7FEBFFFF7FEBF18
:102CF000FFF7FEBFFFF7FEBFFFF7FEBFFFF7FEBF08
:102D0000FFF7FEBFFFF7FEBFFFF7FEBFFFF7FEBFF7
:102D1000FFF7FEBFFFF7FEBFFFF7FEBFFFF7FEBFE7
:102D2000FFF7FEBFFFF7FEBFFFF7FEBFFFF7FEBFD7
:102D3000FFF7FEBFFFF7FEBFFFF7FEBFFFF7FEBFC7
:102D4000FFF7FEBFFFF7FEBFFFF7FEBFFFF7FEBFB7
:102D5000FFF7FEBFFFF7FEBFFFF7FEBFFFF7FEBFA7
:102D6000FFF7FEBFFFF7FEBFFFF7FEBFFFF7FEBF97
:042D7000FFF7FEBFAC
:0400000508002C6162
:00000001FF
