:020000040800F2
:1000000038050020894400082543000827430008DC
:10001000294300082B4300082D430008000000007E
:100020000000000000000000000000002F43000856
:100030003143000800000000334300083543000846
:10004000BD440008C1440008C5440008C944000874
:10005000CD440008D1440008D5440008D944000824
:10006000DD440008E1440008E5440008E9440008D4
:10007000ED440008F1440008F5440008F944000884
:10008000FD44000801450008394300080545000803
:10009000094500080D4500081145000815450008F0
:1000A000194500081D4500082145000825450008A0
:1000B0002945000800000000000000002D45000850
:1000C0003145000835450008394500083D45000820
:1000D00041450008454500083F43000849450008E0
:1000E0004D450008514500080000000000000000D8
:1000F0000000000000000000000000000000000000
:1001000000000000554500080000000059450008A7
:100110000000000000000000454300085D450008A5
:100120006145000865450008694500086D450008FF
:100130007145000800000000000000000000000001
:1001400075450008794500087D450008814500088F
:1001500085450008894500088D450008914500083F
:1001600095450008994500089D45000800000000DD
:10017000A1450008A5450008A945000800000000A9
:10018000AD450008B1450008B54500082DE9F0432C
:100190009FB000BF65A6269CDFF8B48A8DF83B406F
:1001A000029100240B944FF0FF37044691461D4600
:1001B0000AE019F8011B0298A0470028029000F0FD
:1001C000A1800B98401C0B9099F8000050B1252895
:1001D000EFD1002100220591069207910892099122
:1001E0000A9203E00B98A5E041F0010119F8010F14
:1001F0002028F9D023280CD02B2804D02D2805D076
:10020000302809D080E041F00201EFE741F004011D
:10021000ECE741F00801E9E741F01001E6E70D9253
:100220000AE00D98404505DA00EB800002EB400241
:10023000303A0D9209F1010999F80020A2F130003D
:100240000A28EED399F800002E2818BF0C9726D163
:1002500019F8010F2A2808D12868286009F1010936
:1002600050F8042B28600C9219E02D280CBF09F1DE
:100270000109002000220C920BE040B90C9A424583
:1002800005DA02EB820203EB4203303B0C9309F1E7
:10029000010999F80030A3F130020A2AEDD3ADF834
:1002A0003810304699F8001000F086FE08B119F8B1
:1002B000010B8DF83A009DF83A00682805D199F8AD
:1002C000000068280CD1622106E06C2804BF99F870
:1002D00000006C2804D171218DF83A1009F1010950
:1002E00010A804902A4619F8013B6946204600F000
:1002F00061F838B910AA6946204600F08FF9002845
:100300007FF562AF384615E02A2888D12A682A602E
:1003100052F8040B2A6000280D9003D540420D903E
:1003200041F0040109F101098CE70000686A6C746E
:100330007A4C00001FB0BDE8F083622820D0682806
:1003400011D06A2803D06C2827D0712825D10868DD
:10035000C01D20F007000860D0E9002308300860C5
:10036000194610467047002A0A680A60106803D0D0
:10037000121D0A6000B217E0121D0A6080B217E079
:10038000002A0A680A60106803D0121D0A6040B291
:100390000AE0121D0A60C0B20AE0002A0A680A6078
:1003A000106803D0121D0A60C1177047121D0A6041
:1003B0000021704770B51C460D46B4F125002E692A
:1003C000114600F019811C3868D0001F022865D939
:1003D000133842D0093861D0801E16D0401E1ED07E
:1003E000401E02285AD9001F19D0401F00F08180FA
:1003F000401E32D0401E00F0CB80C01E00F0DA80DC
:10040000801E2AD0C01E28D0FCE06869421C6A61A8
:100410000A680A6052F8043B0A603354FCE095F81D
:100420003A000122FFF789FFC5E90001002904D540
:100430006869411C69612D220DE0288F810704D570
:100440006869411C69612B2205E0C00721D56869F4
:10045000411C6961202232541BE095F83A000022C9
:10046000FFF76BFFC5E9000195F83800010710D5CB
:10047000D5E90023002B08BF002A0AD044F0200051
:10048000782806D1686930213154401C421C6A61C9
:100490003454214668693044E86087E00868C01D2C
:1004A00020F007000860D0E9002308300860C5E9A3
:1004B0000023D5E90001C80F04D06869411C6961B7
:1004C0002D220DE0288F810704D56869411C6961E0
:1004D0002B2205E0C00704D56869411C6961202210
:1004E000325468693044E8602146284600F0C4F977
:1004F00092E005F13A02507820B14FF0FF340FF648
:10050000202062E01078622808D0682824D06A2869
:1005100012D06C282ED071280ED02BE00A680A6009
:1005200052F8040B0A6020B94FF0FF340FF6082090
:100530004BE0E96A01706FE00A680A6052F8040B48
:100540000A6020B94FF0FF340FF6EC103DE0EA6A84
:10055000D317C0E900235FE00A680A6052F8040B71
:100560000A6020B94FF0FF340FF6CC102DE0E96A95
:10057000018051E00A680A6052F8040B0A6020B951
:100580004FF0FF340FF6B0101FE0E96A016043E05E
:100590000A680A6052F8040B0A60002120F0000289
:1005A00021F0FF33C5E90023EE607821284600F0F2
:1005B000BBF831E00868086050F8044B0860EC6054
:1005C0003CB94FF0FF340FF6881000F005FD201AFB
:1005D00070BD2E6B002E04D5204600F01DFD044694
:1005E00008E032460021204600F032FD002814BF0A
:1005F000041B3446AC610FE06869411C6961252227
:10060000325409E06969481C68612522725421004E
:1006100002D0431C6B613454002070BD2DE9FC41B5
:100620000F46064690467A6B7869396ABC6A121A98
:10063000B869521A796A121AF869521A121A97F896
:100640003800141B41070FD42020002C8DF8000027
:100650000ADD254601236A463946304600F048FC4B
:1006600000285DD16D1EF5D17B6942463946304682
:1006700000F03EFC002853D130208DF800003D6A88
:10068000002D09DD01236A463946304600F030FC72
:10069000002845D16D1EF5D1BB69FA683946304650
:1006A00000F026FC00283BD130208DF800007D6A48
:1006B000002D08DD01236A463946304600F018FC5B
:1006C00070BB6D1EF6D1F868B969FB6942183946EE
:1006D000304600F00DFC18BB30208DF80000BD6ADC
:1006E000002D08DD01236A463946304600F000FC43
:1006F000B0B96D1EF6D197F8380041070DD520200E
:10070000002C8DF8000008DD01236A46394630468A
:1007100000F0EEFB20B9641EF6D10020BDE8F681A2
:100720004FF0FF30BDE8F6812DE9FC4307466F2905
:100730003E6908BF082405D041F02000782814BF86
:100740000A2410243C25D7E90023642918BF69290D
:100750009046994605D1002B03D5D8F1000869EBE6
:100760004909B9F1000F08BFB8F1000F1FD1386B6C
:10077000E8B9082C4CD197F83800010748D530204B
:100780003B2586F83B0043E000280ED597F838005B
:1007900000F01400102808D17B6B7969386A5B1A65
:1007A0001B1A9A1A002AC8BF3A62BDE8F3838DF873
:1007B0000010404649462246E31700F075FC3032EF
:1007C000D0B26D1E3A28019504DB9DF80000A0F11F
:1007D00051018A187255404649462246E31700F0F7
:1007E00063FC80465FEA010908BFB8F1000F03D03F
:1007F000F86871198842DCD3082C09D197F83800C1
:10080000010705D5705D302802D06D1E302070556F
:10081000C5F13C02BA617119F960386B8242B3DAF2
:10082000821A3A624FF6EF70398F01403987BDE87E
:10083000F3832DE9D04306460F4614464FF00008D7
:10084000DFF8109412E0E00707D542464B463046E9
:10085000394600F0ADFC06460F4640464946424642
:100860004B4600F0A5FC641080468946002CEAD176
:1008700030463946BDE8D0832DE9F84F05468A4613
:100880004AF020048EB0D5E90089612C02AE09D06F
:10089000286B002848BF062003D408BF672C01D16D
:1008A00001202863D5E900014A005215521C0DD1E0
:1008B0000B030BD0AAF1610103201A29A86102D20F
:1008C0000FF2A86110E00FF2A8610DE04A00521586
:1008D000521C0ED10B030CD1AAF1610103201A297D
:1008E000A86116D30FF29061E868032200F032FD90
:1008F000C0E1CDE90C01DDE90C2323F00043B3F5A1
:10090000801F0DD20027002B08BF002A019703D1BA
:1009100011E00FF26061E7E701AA00F06FFD0AE065
:10092000CD48CE4900EB1350DDE90C2301900B407C
:10093000CB4910461943C5E90001612C0DD1E86887
:1009400030210170821CBAF1610FEA600CBF78217E
:10095000582141706869801C6861D5E90001CDE9C2
:100960000C01DDE90C2333F0004104BF0028002313
:1009700000F04881612C40F0A080286B4946002897
:100980004CBF4FF0210B00F1010B40460022002329
:10099000DDE90C8900F06AFD01990BF1010738BF10
:1009A00089F00049091F002F01918DF808200DF1F1
:1009B000090040F33581A949009106464046494661
:1009C0000022002300F06AFD80F029814800400DDC
:1009D00000F11C0211D0002A0FDD40F2FF739A4291
:1009E00005DBA04909F000400143002011E0009B15
:1009F000194041EA025140460BE028F0000039F06E
:100A0000004108BF00280FBF49461C22494600F09C
:100A10005DFD8046894600F0F7FDFF1F002F04466C
:100A200009DD00F00FFE02460B464046494600F045
:100A30001BFE80468946F01D072104E004F00F02EA
:100A400000F8012D2411002C01DD491EF6D5491EA8
:100A50005CBF002200F8012DF9D5DCE0002019462A
:100A600002AA0A4400E05B1E12F80149491E8442B2
:100A7000F9D00F2804D10DF10900425C521C4254F8
:100A8000002904D50198001D02AE5B1C0190581E80
:100A90000CD43118AAF13A040A783032D7B23A2F7E
:100AA000A8BFA218401E01F80129F5D5286B00281F
:100AB00040F1A780591E2963A3E001996A4A47F2D1
:100AC0009750414391FBF2F2019229F00046D2F196
:100AD000070204DD40463146FFF7ABFE0AE0524212
:100AE00000206249FFF7A5FE02460B46404631460C
:100AF00000F02CFE8046662C286B06BF019F0A374B
:100B000006273F18142FC8BF142730208DF808007F
:100B100089460DF1090000E03046002F34DD06461D
:100B20004046494600F036FF01460A4606F10803F2
:100B300004200A26B2FBF6F606EB860EA2EB4E0266
:100B4000303203F8012C0A22B6FBF2F202EB820EDD
:100B5000A6EB4E063036401E03F8026DE9D1083F81
:100B6000002F03F10806D7DD084600F027FF0246F4
:100B70000B464046494600F077FD00223C4B00F012
:100B800017FB80468946CBE70DF10901401A0DF1AC
:100B9000090604E00199491E401E0191761C317836
:100BA0003029F7D0662C02D10199491C03E0652C4D
:100BB0000CBF012100212B6BCB189842B8BF431EFC
:100BC000002B1ED4834204DAF05C3528A8BF3920FC
:100BD00000DA30201946721E02EB010800E05B1EAD
:100BE00018F80199491E8145F9D0392802D1705C65
:100BF000401C7054002904D50198401C16465B1C0B
:100C00000190019800B200901BB23246514628462E
:100C100000F034F82EE0C61D002F3FF7CFAE30466F
:100C20000DF10901401A03465845C8BF5B46002B29
:100C30000DF109063FF53AAF8342BFF60FAF0DF154
:100C40000900C15C07297FF709AF0F2007E7000003
:100C5000CBCCCC0C0000244002FCFFFFFFFF0F8038
:100C60000000E03F0000F07FA08601000000F03FA0
:100C700084D797410FB0BDE8F08F00002DE9FC4309
:100C8000054683B01F46D5F83080002F164602DC9B
:100C90005FF00107B9A6894649F02000BDF9304050
:100CA000662808BF641C17D0672840F0888014F1BC
:100CB000040FC0F28A80444580F2878095F838009E
:100CC000641C010702D44745B8BFB84620B2B8EB50
:100CD000000848BF4FF000080FFA84F9E868A969D6
:100CE000B9F1000F27DC4A1C30234354B8F1000F40
:100CF00003DC95F83800010703D5E9682E208854F5
:100D0000521C18EB090FB8BFC8F1000424B26042AE
:100D10006862A044B845AA61B8BF4746EB68A869B5
:100D20003FB2EF613A463146184400F013FBA8EB9E
:100D30000700A862C5E022B29742084419DA3A4691
:100D4000314600F007FBA8693818A9EB0707B8F18E
:100D5000000FA8616F6203DC95F838100A0705D50B
:100D6000EA682E211154E869401CE861C5F8288022
:100D7000A7E0314600F0EEFAA8693F1BB8F1000F7A
:100D8000484403DC95F838100A0703D5EA682E2199
:100D90001154401CA86138B28045EB68A869B8BFFF
:100DA00047463AB206EB0901184400F0D3FAA969A4
:100DB0003FB27918A8EB0707A9616F6281E0B9F12A
:100DC000610F16D14FF0700918E0474504DA95F825
:100DD00038100A0758BFB846B8F1010848BF4FF0AD
:100DE0000008B9F1670F14BF4FF045094FF06509CE
:100DF00004E0B9F1410F08BF4FF05009A969EB6851
:100E0000481CA861B8F1000F16F8012B5A5403DCF6
:100E100095F838100A0719D5EA68431CAB612E21F2
:100E20001154B8F1000F11DD7F1E38B231468045F4
:100E3000EE68B8BF47463AB2F01800F08BFAA869DE
:100E40003FB23818A861A8EB07006862E868A96992
:100E50000844002C80F8009003D42B224270811C9F
:100E600003E02D2141706442811C00206A460AE0A3
:100E700023460A2493FBF4F404EB8406A3EB460315
:100E800002F8013B401C24B2002CF1DC012806DCF6
:100E900049F02002652A04BF302201F8012B48B92D
:100EA000302001F8010B07E0401E1DF80030303300
:100EB00001F8013B0028F7DCEA68A8691044091A28
:100EC000E96195F8380000F0140010280DD16A6926
:100ED000A969686A8A18E9698218A86A8A18821852
:100EE000686B8242BCBF821A2A6205B0BDE8F083FB
:100EF000F8B505460E4617461C46002074B117F893
:100F0000011BB068A847B06030B1F06A401CF062C5
:100F10000020641EF3D1F2BD4FF0FF30F2BD00009F
:100F20007072696E74665F733A20256E206469730F
:100F3000616C6C6F776564007072696E74663A20DC
:100F400062616420256E20617267756D656E740044
:100F50007072696E74665F733A20626164202573F3
:100F600020617267756D656E740000006E616E00C1
:100F70004E414E00696E6600494E4600300030B466
:100F8000002513E050F8042BD30744BFA9F1010357
:100F90009A18091F042942F8045BFAD213468C07F9
:100FA00044BF15809B1CC90748BF1D7050F8041B27
:100FB0000029E7D130BC7047C9B202788A421AB121
:100FC0001CBF10F8012FF9E718BF00207047026816
:100FD000531C03601170704780B500B906A0054925
:100FE0000B681BB122220021984701E000F0F3FCBE
:100FF000222002BD30010020636F6E73747261693C
:101000006E742068616E646C65723A20626164205F
:101010006D6573736167650000F10103810704D09A
:1010200010F8011B820781B1FAD10268A2F10131E7
:10103000914311F0803104BF50F8042FF6E709BA4C
:10104000B1FA81F100EBD100401CC01A70470000DA
:10105000C9B2830706D0521E22D310F8013B994231
:10106000F7D11FE0083A13D302F1040241EA01214B
:1010700041EA014150F8043B121F21BF4B40A3F14C
:10108000013C2CEA030C1CF0803FF3D0C9B2001FD6
:10109000083210F8013B521E28BF91EA030FF8D81E
:1010A00018BF0120401E7047D3BBD9B1B2F5803FB5
:1010B0005BD2022A1ED98C46B1FBF2F102FB11C3AE
:1010C0001B0443EA1043B3FBF2FC02FB1C3380B267
:1010D00040EA0343B3FBF2F002FB103240EA0C405B
:1010E00000237047022A05D98446B0FBF2F002FBC8
:1010F00010C270474AB105D100F0010249085FEA09
:101100003000704700220023704700F067BC0B00DE
:101110000200002100207047F7D30022002370470F
:10112000904271EB030CF2D370B5B1FA81F4B3FACB
:1011300083F52C1BA340C4F1200532FA05F6334396
:10114000A2405FF00046E64002E05B085FEA320240
:10115000841A71EB030524BF204629467641F4D357
:1011600002000B003000002170BD70B5B1FA81F4AF
:10117000B2FA82F5C4F120046419B4F12006DAD37E
:10118000B2405FF00044F440002502E052085FEAFC
:101190003303C61A71EB020E24BF30467146644118
:1011A0006D41F3D302000B002000290070BD000048
:1011B000B0B581EA030C0CF0004C40F2FF7515EA63
:1011C00011541DBF15EA1357AC42AF4239E0E41980
:1011D00023EA455343F48013C90241F0004141EA38
:1011E000505EC7021100A7FB020200284FF000006A
:1011F000EEFB01204FF00001E3FB072118BF42F096
:101200000102401800214941E3FB0E01A4F580646E
:101210000F0302D252004041494154F101046CDDF8
:10122000470872F1004250F1000051EB0451A1F562
:1012300080115CBF41EA0C01B0BD4CEA05510020B1
:10124000B0BD05EA1357AC4214BFAF4241E050EACB
:10125000410E1CBF52EA430E02E061460020B0BDC1
:1012600024423C441BD15FEA070EF6D0090302BFBB
:1012700001460020AEF1140EB1FA81F7AEEB07047F
:1012800001FA07FE0C37C7F1200100FA07F7C84042
:101290004EEA000E23EA455343F48013A2E733F0ED
:1012A0000043B3FA83F704BFB2FA82FE77440B3FE0
:1012B000E41BB7F1200E2FBF02FA0EF3BB40C7F1BB
:1012C000200E22FA0EFE38BF43EA0E03BA40641C19
:1012D00082E750EA410E14BF52EA430E6FF000015C
:1012E0004FF4001717EB430F8ABF194617EB410F56
:1012F000B5E74CEA05510020B0BDD4F10104B4F1CA
:1013000020070FDAC4F12007520828BF42F001027B
:1013100010FA07F501FA07F7E1BF2A43E040384326
:10132000E1400FE0352C98DCC7F1200452EA40027E
:1013300020FA07F218BF42F0010231FA07F0A1408B
:101340000A43002172F1004250F1000051EB0C0100
:10135000B0BD000062B38B0708D0521E11F8013BEC
:1013600000F8013B00F024808B07F6D1830740F0A2
:10137000208000BF103A07D330B4B1E83810103ADB
:10138000A0E83810F9D230BC530724BFB1E80810E8
:10139000A0E8081044BF51F8043B40F8043BD207D2
:1013A00024BF31F8022B20F8022B44BF0B780370C6
:1013B0007047121F17D35B0009D151F8043B20F886
:1013C000023B1B0C121F20F8023BF6D20BE051F837
:1013D000043B00F8013B1B0A20F8023B1B0C121FC8
:1013E00000F8013BF3D238BF121D521E24BF11F882
:1013F000013B00F8013BF8D87047000010B51446D7
:1014000000F002F8226010BDC1F30A5343B14A0054
:1014100012F5001F28D2A3F2FE32A1EB0251704751
:1014200050EA410C20D001F0004C31EA0C01B1FA35
:1014300081F204BFB0FA80F3D2180B3AB2F1200364
:101440002CBF00FA03F1914041EA0C013EBFC2F10A
:10145000200C20FA0CF319439040524240F2FD3325
:10146000D21A01EB03517047002270474FF4001C61
:101470001CEB410F94BF1CEB430F09E041EA030C46
:1014800050EA4C0C52EA0C0C03D2994208BF90422D
:10149000704714BF8B428242704700004FF4001C1B
:1014A0001CEB410F94BF1CEB430F09E041EA030C16
:1014B00050EA4C0C52EA0C0C03D28B4208BF824219
:1014C000704714BF9942904270470000124254D4B2
:1014D00040F2FF7C1CEA11530FD0634531D09B18BA
:1014E00063453CBF01EB0251704701F0004141EA06
:1014F0000C510020AFF30080704750EA410320D028
:1015000001F0004C91EA0C011CD0B1FA81F30B3BC5
:101510009A420DD9D21A994051EA0C01C3F1200C1C
:1015200020FA0CFC61449840531C40F2FF7CD7E742
:10153000914041EA0C01C2F1200C20FA0CF319434E
:1015400090407047B0FA80F31533202BE0D3202A67
:10155000EED3203A203B9A4209D9D21A00FA03F17D
:1015600041EA0C010020531C40F2FF7CB8E700FA6E
:1015700002F141EA0C0100207047524240F2FF7C28
:101580001CEA11530DD06345DBD0B2EB030C3CBF1A
:10159000A1EB025170470CF1010221EA035141F421
:1015A000801150EA410CCCD001F0004C352A27DCE8
:1015B00030B481EA0C01B2F1200309DAC2F1200350
:1015C000044601FA03F5D0402843D1409C400CE08A
:1015D000C3F12002450020FA03F418BF44F00104CF
:1015E00021FA03F091400C43002174F1004550F1C1
:1015F000000051EB0C01244230BC7FF47BAF7047FC
:101600006146002076E70000C1F30A5340F2FE3243
:101610009B1A14DDD3F120034FEAE17208DDC90201
:1016200041EA505141F00040D84080185040704786
:1016300003F2E13010B1D24382F000407047002045
:1016400070470000C11768B14840401AB0FA80F2F4
:101650009040D21CC907C2F5846241EA025202EBF3
:10166000D02140057047000070B44FF0004591EA6A
:10167000030F40F1B5816B40841A71EB030603D26E
:10168000001BB141121973414FF4001C1CEB410FB8
:1016900034BF7CEB430442E00C0DA4EB1356352E13
:1016A0004FDC45EAC323DB0A45EAC121C912B6F182
:1016B00020050DDD63FA05F6EB4086EA03051242CC
:1016C00018BF45F00105C01851F100010CD213E01C
:1016D00062FA06F5F2405540F3415A40B340F340F8
:1016E0005A408018594107D349085FEA30005FEA41
:1016F000350528BF45F0010501F58011420875F157
:10170000004250F1000041EB04514E0016F5001F5D
:1017100070BC38BF70470020090D090570471CEBED
:10172000410F10D252EA43060BD0BCEB410F05D853
:101730000C0DAB43661E342EB6DD02E0AB438018C1
:10174000594170BC704770BC70470000F0B540F262
:10175000FF7581EA030C0CF0004C15EA11541DBF13
:1017600015EA1357AC42AF42E5E0BC41C1F31301A7
:10177000C3F31303801A994143F4801304D2641E07
:101780004000494180185941C90241EA5051B1FB1A
:10179000F3F603FB1611A2FB0675D7EBC020A94197
:1017A00002D2761E80185941C90241EA5051B1FB5C
:1017B000F3FE03FB1E11A2FB0E75D7EBC020A9415F
:1017C00003D2AEF1010E80185941890241EA9051CD
:1017D000760546EA8E2EB1FBF3F603FB1611A2FB4B
:1017E0000675D7EB8020A94102D2761E8018594198
:1017F000C90241EA50514EEA060EB1FBF3F603FB73
:101800001611A2FB0675D7EBC020A94102D2761EA5
:1018100080185941C90241EA5051B1FBF3F703FB6B
:101820001711A2FB0735D3EBC020A94167F10007D0
:101830000CBF004247F0010766F3D5274FEA1E317F
:10184000B80814F5806412DDBD0775F1004250EB55
:101850000E5051EB045111F5801F5CBF41EA0C01A1
:10186000F0BD4CF07F6141F0E0410020F0BDBD07CC
:101870006D0840EA0E5041F48011D4F10104B4F136
:1018800020060ADAC4F120060200E04001FA06F35D
:10189000E1401843B24015430EE0342C13DCC6F18E
:1018A000200445EA40056D0820FA06F2154321FAA6
:1018B00006F0A1400D43002175F1004250F10000F7
:1018C00051EB0C01F0BD00205FEA0C01F0BDCFB977
:1018D00092185B41B3FA83F704BFB2FA82F6BF19DC
:1018E0000B3FB7F120062FBF02FA06F3BB40C7F14A
:1018F000200622FA06F638BF3343BA401CB1E41979
:10190000641E33E77F4231F00041B1FA81F404BF35
:10191000B0FA80F6A4190B3CB4F120062FBF00FAF0
:1019200006F1A140C4F1200620FA06F638BF314383
:10193000A0403C1B1AE7AC421ABF05EA1357AF425E
:1019400012E050EA41061CBF52EA4306BFE750EAE4
:101950004107304661461CBF41EA0551F0BD52EADD
:10196000430C08BFC143F0BD00204FF4001616EB36
:10197000410F98BF16EB430F08BF16EB410F24BF72
:10198000C14305E016EB430F0CBF61464CEA05511D
:10199000F0BD0000400D491840EA81200CD2490DED
:1019A000A1F58061491C40F0004005DBD1F11F0129
:1019B00054BFC840C017704700207047014648B167
:1019C000B0FA80F18840C91CC1F58461090501EBBA
:1019D000D02140057047012000F0B8B870470000E2
:1019E000841A71EB030604D26E40001BB141121938
:1019F00073414FF4001C1CEB410F34BF7CEB4306DA
:101A000083E00C0DA4EB1356362E00F37C80012EE0
:101A100045EAC32341DC43EA525312BFD202920289
:101A20005B08240545EAC12141EA5051D2EBC020B0
:101A3000994125D407D1B0FA80F610FA06F162D0A8
:101A40000020203608E0B1FA81F6B140C6F120024C
:101A500020FA02F21143B0404FEAF474B4EB46545A
:101A600034F001064FEA74040AD8D6F50016760D54
:101A700004F00044F04061FA06F25040F140484062
:101A8000C00A40EA415021F0004128BF5FEA5005FA
:101A900050F1000044EBD12135E0DB0A45EAC121D9
:101AA000C90AB6F120050EDD42EA0242120CC5F168
:101AB000200603FA06F6EB4042EA06056D4298411D
:101AC00061F100010DE062FA06F5F240554063FA5B
:101AD00006FC82EA0C02F3405A406D42904161EBF1
:101AE000030111F4801F05D1641E620502D06D0050
:101AF0004041494121F48011430875F1004350F100
:101B0000000041EB045170BC70471CEB410F15D233
:101B100023F0004352EA43060BD04FEA4C0CBCEBD7
:101B2000410F04D80C0D661E342EB7DDEBE7801A8A
:101B3000994150EA410608BF0021E4E708BF1CEBC9
:101B4000430F28BF6FF00001DDE7000080B5AFF361
:101B50000080024A11001820ABBEFBE726000200FD
:101B6000603000EB8100006800F0F84070476030A2
:101B700000EB8100016821F000410A4302607047D8
:101B8000C06800F44060401E8041C00F7047CB0D1C
:101B900010B5143003F004031818090D01F01F01EB
:101BA000036807248C40A34302FA01F11943016042
:101BB00010BDF8B50025044600950CB90120F2BD12
:101BC00004F15006706820B9204600F055FCB5605D
:101BD000357021688868800004D58A68DFF81007AE
:101BE00002408A6021688868C00012D48A68DFF8E1
:101BF0000407024042F080528A60DFF8FC16DFF8EA
:101C0000FC260868B0FBF2F2521C5200009200F071
:101C1000FCFB20688168C90008D4726842F0100299
:101C200072600125B16841F00101B160816872689C
:101C3000D30678D4490776D4726822F4807242F0D1
:101C4000020272608068C0070CD4DFF8B41608681E
:101C5000C00707D4DFF8AC160A68606822F47C126B
:101C600002430A6004F13002607E5368E16894F830
:101C7000207043EA4033A0680B430343012F43EA3B
:101C8000074303D1606A401E43EA4043A06A20B183
:101C9000E16A00F47070084303432168DFF86806C6
:101CA000CF6807403B43CB6021688B6888685B073F
:101CB00024D4000722D4CB68DFF85006277E0340E7
:101CC000107843EA873343EA4003CB60107A012857
:101CD0000FD123681F69D16810696FF38A070F431A
:101CE0005169074390690F43074347F001071F619C
:101CF00004E0206801694908490001612069012860
:101D00002068016B05D1E2690909521E42EA0111FE
:101D100001E0090909010163706820F0020040F048
:101D20000100706004E0706840F0100070600125F0
:101D30002846F2BD38B504462068806840074BD479
:101D400004F150052978012946D000F058F8010027
:101D500041D100F04AF846BFA96821F006010021F0
:101D600000F03CF821684A6822F01C024A60616970
:101D7000082921684A680CBF42F0080242F00402B8
:101D80004A60616B21B921684A6842F010024A60DA
:101D90002168CA68930119D56A6822F4005242F496
:101DA00080526A606269082A4A6807D122F02002DC
:101DB0004A6021684A6842F0400206E022F0400290
:101DC0004A6021684A6842F020024A602268DFF8CF
:101DD0004C1693681BE017E0022032BDA9601C225C
:101DE00021680A6000232B7070476A68DFF830169C
:101DF0000A4042F480726A606968CA047047012030
:101E00002870204600F0B8BA0021297032BD0B407E
:101E100043F00403936032BD0068006C7047F8B56E
:101E20000546286806684768B0070ED5B9070CD57F
:101E3000686DC10603D4686D40F40060686528468B
:101E400000F0E8FB296802200860700701D57907D7
:101E500003D430072ED539072CD5686DC10603D4BD
:101E6000686D40F4007068652868FFF789FED8B196
:101E70002868C168890417D40268110714D58168DD
:101E800049070FD4426822F00C024260686D20F4CA
:101E900080706865686DC10406D4686D40F001000B
:101EA000686501E000F0A0F8284600F0B5FB29685D
:101EB0000C200860B00601D5B90603D4700639D5E8
:101EC000790637D5686DC10603D4686D40F40050BB
:101ED00068652868C16C01F0C0014C1EA441FFF781
:101EE0004FFE2968CA68E40FF4B1930102D5D8B156
:101EF000900419D40868400616D5920214D4886854
:101F000000070FD44A6822F060024A60686D20F42E
:101F100080506865686DC10506D4686D40F00100A9
:101F2000686501E000F060F8284600F0E1FC2968EF
:101F30006020086030060BD5390609D5686D40F47D
:101F400080306865284600F0D4FC2968802008604D
:101F5000F0050CD5F9050AD5686D40F400306865C8
:101F6000284600F0C7FC29684FF480700860B0056F
:101F70000CD5B9050AD5686D40F4802068652846FF
:101F800000F0B9FC29684FF400700860F00615D520
:101F9000F90613D5686B18B12968C868C1070AD556
:101FA000686D40F480606865A86D40F00200A86527
:101FB000284600F0A1FC296810200860700512D5A1
:101FC000790510D5686D40F4804068654FF48061F4
:101FD000A86D40F00800A865286801602846BDE8A3
:101FE000F24000F08ABCF1BD686D40F010006865F9
:101FF000A86D40F00100A86570470000F8B50646DE
:10200000002406F150050F4600942978012901D1DA
:102010000220F2BD0120287031688868400700F175
:102020005D817868062812D2801E03280DD8DFE86B
:1020300000F0020406080C2008E0122103E018203A
:1020400004E04FF48071796001E0062078607968DF
:10205000326838688B09303203F00C039A1801F0AB
:102060001F01D2F800C01F238B40C0F384602CEA0C
:10207000030300FA01F11943116030688268816836
:10208000520720D409071ED4BA683968FFF77FFDCC
:102090003068C1683A69042A16D060303B6800EBAA
:1020A000820C9B48DCF80020024003F0F843134305
:1020B000C9087A69480000F006008240134343F0E3
:1020C0000043CCF8003076E00021FFF749FD4003E3
:1020D0003068214604D1FFF743FDC0F3846003E07C
:1020E000FFF73EFD00F016F939684A030EBFC1F351
:1020F000846191FAA1F1B1FA81F1884204D130688A
:1021000000220021FFF733FD00F011F9400304D154
:1021100000F00DF9C0F3846003E000F008F900F06E
:10212000F9F839684A030EBFC1F3846191FAA1F14D
:10213000B1FA81F1884204D1306800220121FFF711
:1021400016FD00F0F0F8400304D100F0ECF8C0F305
:10215000846003E000F0E7F800F0DCF839684A0337
:102160000EBFC1F3846191FAA1F1B1FA81F1884205
:1021700004D1306800220221FFF7F9FC00F0CFF80B
:10218000400304D100F0CBF8C0F3846003E000F01A
:10219000C6F800F0BFF839684A030EBFC1F3846186
:1021A00091FAA1F1B1FA81F1884204D1306800229C
:1021B0000321FFF7DCFC31688868C00747D4FA6860
:1021C0003B68D1F8B0C0DFF85CE202F01802C3F35C
:1021D00012002EFA02F22CEA000013400343C1F869
:1021E000B030F868DFF84012884230D138684103D7
:1021F0000EBFC0F3846290FAA0F1B1FA81F2521CD2
:10220000012102F01F020A2A0DD200F099F89B0664
:1022100002F01F02401C03F0F843914000F01F0041
:1022200000F0A4F80FE000F08BF8401C9B0602F0D1
:102230001F0200F01F0003F0F84391400A3800F03D
:1022400095F841F00071BA683068FFF7A0FC3B6870
:10225000DFF8D801034246D02A48DFF8D47101687C
:10226000DFF8D021BB4201F0E0711AD10B023AD461
:102270003668964237D100F05EF841F40001016003
:102280001D481E4A0168B1FBF2F2521C0C20424369
:102290000092009800281EBF0098401E0090F8D1C0
:1022A00021E0DFF89471BB4209D1CB011BD4366821
:1022B000964218D100F03FF841F080710CE0DFF851
:1022C0007C71BB420FD14B020DD4366896420AD1C5
:1022D00000F031F841F48001016004E0686840F0EA
:1022E000200068600124002028702046F2BD000014
:1022F000C0FFFF5FC0FFFF7F0C000020400D030008
:10230000080004500803045007C0F0FFFDBFFFFFA2
:1023100000F0FF0390FAA0F0B0FA80F07047306848
:102320000321FFF71DBC30680221FFF719BC30689C
:102330000121FFF715BC026822F0E07211437047DB
:10234000420304D1C0F38462134610460BE090FAB6
:10235000A0F2B2FA82F390FAA0F290FAA0F0B2FAE8
:1023600082F2B0FA80F05B1C521C7047194300EBFC
:10237000400041EA005170477CB5044600200090BF
:1023800021688868C20734D488686FF39E100028DB
:102390002CD18868214D284040F0010088602849F0
:1023A000086800020AD52749274B0A68B2FBF3F3F5
:1023B0005B1C0C204343009300F027F800F09EFACA
:1023C000064620680168CA0713D48168C90704D487
:1023D00082682A4042F00102826000F08FFA801B7E
:1023E0000328EED320680168CA07EAD400F003F896
:1023F00076BD002076BD606D40F010006065A06D78
:1024000040F00100A0650120704702E00098401EE6
:10241000009000980028F9D170470000C0FFFF7FAE
:10242000FEF1FFFFFFFF070000007F400000088073
:10243000000052C700000450000084CB010000805F
:10244000080304500C000020400D03006B4881B0CD
:10245000816841F001018160816801F00101009112
:102460000099026842F080520260006800F08050DB
:102470000090009801B0704710B59EB000F076F85B
:1024800006A8602100F040FA20685D4988423CD1EE
:102490004FF4804206924FF08051022207921B9126
:1024A000082209920121022208910B920C92072125
:1024B0004FF080720A910D9206A800F029FA08B137
:1024C00000F00FFA4F48016841F4005101600268C2
:1024D00002F4005200920099026842F00402026085
:1024E0000121006800F0040000900B22009846488B
:1024F00000F037F801A900F0E5FB002200211220CE
:1025000000F0DCFC122000F0F7FC1EB010BD38B566
:1025100086B000F02BF824683C4DAC421ED13948FF
:10252000C16841F00051C160C16801F0005100F084
:102530005DF81021006800F001000090032200F017
:102540000FF84FF0904001A900F0BCFB00220021E1
:10255000362000F0B3FC362000F0CEFC07B030BDD2
:10256000009801910292002103917047044601A84E
:10257000142100F0C9B910B59EB0FFF7F7FF06A807
:10258000602100F0C1F92068214988422CD1022243
:10259000002106920F9106A800F0BAF908B100F0E8
:1025A000A0F91848C16841F40031C160C16801F464
:1025B000003100F01BF80C21006800F001000090D1
:1025C0000222FFF7CDFF032207210591049201A902
:1025D0004FF0904000F076FB00220021262000F012
:1025E0006DFC262000F088FC1EB010BD0091009903
:1025F000026842F001020260704700005810024079
:10260000000004504C1002400008004800740040D4
:10261000004400407047000010B5A34CA3480121BE
:102620002170FFF7F9FB20616061FFF7C7F9A04A4D
:10263000A04BFEF7BDFDC4E9020110BD2DE9F0433A
:1026400089B000F085FC00F092F800F0CBF89A4CCD
:102650009A4820604FF416510C200022606161609E
:10266000A260E2602261A261E261226262622046AF
:1026700000F084FC08B100F034F96846182100F03D
:1026800043F98A4D8E482860002104206861696002
:10269000E960296129830020012185F82000E86292
:1026A000E96105F1300000220021AA60A9620170F1
:1026B000426001722846FFF77CFA08B100F011F978
:1026C0008049009106220192002102917F2203920B
:1026D000042104910022059269462846FFF78EFCEA
:1026E00008B100F0FEF86846242100F00DF97648A4
:1026F000C4F8840004F18406304601F039F808B1CA
:1027000000F0EFF800200090019000220390029268
:1027100004926946304601F0B1F808B100F0E1F8E2
:102720002846FFF707FB04F198090FF2BC185E4F2B
:1027300038780128FCD1D7E902234146484601F008
:1027400029F964230C224946204600F057FC00205A
:10275000387000223B690021304601F07FF80021EB
:10276000304601F019F82846FFF7E4FAE0E780B5B3
:1027700096B005A8442100F0C7F86846142100F07F
:10278000C3F84FF4007001F02BF908B100F0A9F87C
:1027900002214FF4807205910892102102220991C2
:1027A0000F9210920A210122119212910722022106
:1027B00013921491159105A801F050F908B100F099
:1027C00090F80F20032100900191002202920392C1
:1027D00004920421684601F0B8FB08B100F081F8CA
:1027E00017B000BD38B586B06846142100F08CF8EB
:1027F0003648046844F0040404604FF4005501684E
:10280000334C01F0040105910599026842F0800201
:102810000260036803F0800305930599026842F0A3
:1028200001020260036803F0010305930599026841
:1028300042F0020202600022006800F002000590EF
:10284000A02105984FF0904000F00AFB00224FF4C1
:102850000051204600F004FB4FF488110191002242
:102860000292009569461B4800F02CFAA0210091C5
:102870000122002102910391019200F02DF84020E5
:102880000021009001910122029200F025F8012020
:10289000019000220292039200956946204600F0C2
:1028A00011FA07B030BD000018010020B40000206C
:1028B000FF092E56D4604A3F10000020004400401B
:1028C0000000045002003004007400404C1002402C
:1028D000000400480008004869464FF0904000F0AE
:1028E000F1B972B6FEE70000256C6620560D0A00AD
:1028F000704770477047704770477047014840689D
:10290000704700BF00000020002201F06DBC0000F5
:102910002DE9FC47054600242868DFF88C63010593
:10292000A1461BD5686C58B1B0F5000F03D0B0F5C7
:10293000400F09D010E0326842F48032326004E087
:10294000002100F02AF904463CB9F16F686C21F4CB
:1029500040010143F16701E00124A1462868810399
:102960002BD5F06CC1004FF000080AD4F06C40F099
:102970008050F0644FF00108F06C00F0805000903F
:102980000098DFF82873386840F480703860FFF7EB
:10299000B5FF82463868C10500F1D180FFF7AEFF70
:1029A000A0EB0A000328F5D30324A146B8F1000FD9
:1029B00003D0F06C20F08050F0642878C10705D572
:1029C000F26F286A920840EA8202F2672978880743
:1029D00005D5F16F686A21F00C010143F167297890
:1029E000480705D5F16FA86A21F030010143F1676E
:1029F0002978880605D5F16FE86A21F44061014322
:102A0000F1672968880505D5F16FE86B21F440214D
:102A10000143F1672968480505D5F16F286C21F459
:102A200040110143F1672978480605D5F16F286BFD
:102A300021F440510143F1672978080605D5F16F6B
:102A4000686B21F440410143F1672968C80505D549
:102A5000F16FA86B21F440310143F16729688804C4
:102A60001ED5F16FA86C21F040610143F167A86C9D
:102A7000B0F1006F0CD100F08AF811E0FFF73EFFD3
:102A8000001B41F28931884276D34FF003098DE76C
:102A9000B0F1806F04D100F07FF8010018BF8146CB
:102AA0002868010314D5F26FE86C22F040620243FB
:102AB000F267E86CB0F1006F02D100F068F807E04F
:102AC000B0F1806F04D100F067F8010018BF8146B3
:102AD0002868410314D5F26F286D22F0406202434A
:102AE000F267286DB0F1006F02D100F050F807E0F6
:102AF000B0F1806F04D100F04FF8010018BF81469B
:102B0000286841040FD5F26F686D22F040520243ED
:102B1000F267696DB1F1805F05D1022100F03DF8E7
:102B2000010018BF81462868010405D5F26FA86D21
:102B300022F080420243F2674846BDE8F687002C47
:102B40007FF433AFDFF86871386810F440701CBF51
:102B5000E96D88420BD03868396841F480313960BA
:102B600020F440703A6822F480323A603860C0073E
:102B700006D5FFF7C3FE0446386881077FF57EAFB0
:102B80003A68E86D22F4407202433A600EE730681A
:102B900040F48010306070470121281DFFE72DE9C7
:102BA000F0410746434E38680C46F168002511F0A5
:102BB000030F0DD0F16801F00301814237D1B0B3AA
:102BC000F0687968C0F30210401C884213D02EE0F0
:102BD000012804D02BD3032823D01ED327E032684A
:102BE000910724D5F268796822F073021043491ED8
:102BF00040EA0110F060306820F080603060FFF73C
:102C00007DFE80463068010134D5FFF777FEA0EBEA
:102C100008000328F6D303253CE031684A05E1D4D7
:102C200005E031688A03DDD431684A03DAD401252E
:102C300030E0012C326906D13B691F4800F02DF8C5
:102C400041EA435105E07B691C4800F026F841EA5F
:102C500043613161306840F080603060FFF74EFEC4
:102C600004463068010111D4FFF748FE001B032819
:102C7000F7D3D0E7B968002CDBD132691048FB6884
:102C8000024042EA012141EAC361E2E73169B869E1
:102C9000014331612846BDE8F08102405B0842EA09
:102CA00001215B1E704700000C10024000700040C4
:102CB0009010024000100240FF809FFFFF80FFF94C
:102CC000FF80FF072DE9F84F0026684A0F23804652
:102CD0000D4634E0664CA04514BF072404248C4004
:102CE00044EA0E044CF82740C74362498C6807EA5F
:102CF000040C6C68E40248BF40EA0C0CC1F808C040
:102D0000CC6807EA040C6C68A40248BF40EA0C0CCB
:102D1000C1F80CC04C6807EA040C6C68A40348BFF7
:102D200040EA0C0CC1F804C00C6807EA040C6F6898
:102D3000FC0348BF40EA0C0CC1F800C0761C2968AF
:102D400031FA06F000F08A80012000FA06FE1EEA41
:102D50000100F3D077000321B9406FEA010C6968E4
:102D600001F00304012C1CBF01F00301022913D15F
:102D7000D8F80810EC680CEA0101BC402143C8F8FF
:102D80000810D8F8041021EA0E046968C1F3001194
:102D9000B1402143C8F80410B1002C7904F00304B9
:102DA000032C21D0D8F80C400CEA040EAC68BC40CF
:102DB00044EA0E04C8F80C402C7904F00304022CF9
:102DC00012D1F40808EB840E01F01C09DEF8204053
:102DD000D5F810B003FA09FA24EA0A040BFA09F943
:102DE00049EA0404CEF82040D8F8004095F804E001
:102DF0000EF0030E0CEA04040EFA07F72743C8F896
:102E000000706F6817F4403F98D01768DFF868C00B
:102E100047F00107176001F00C01146804F0010489
:102E2000009403FA01FE009FB7085CF8274024EAEB
:102E30000E0EB8F1904F08BF00240ED00F4CA045E5
:102E400008BF012409D00E4CA04508BF022404D0BD
:102E50000C4CA0457FF43EAF032440E7BDE8F18F62
:102E60000AB18161704781627047000060100240C2
:102E70000010004800040140080001400004004820
:102E800000080048000C00480901020002D42A484A
:102E900081547047294B02F00F021A4402F8041CB7
:102EA0007047274B19684FF6FF020002114000F4EB
:102EB000E0600843234908431860704738B5204B49
:102EC0001C68C4F30223C3F10704052C28BF0424A3
:102ED0001D1D072D34BF0023DB1E012505FA04F458
:102EE000641E2140994005FA03F35B1E1A4011430A
:102EF000BDE83440C8E70000010007D4012200F01B
:102F00001F01114B8A40400943F82020704710B53B
:102F1000401EB0F1807F01D3012010BD0B4C6060DA
:102F20000F214FF0FF30FFF7AFFF0021A160072016
:102F30002060002010BD000000E400E018ED00E07B
:102F40000CED00E00000FA0500E100E010E000E018
:102F5000094810B5016841F4807101600320FFF752
:102F6000A0FF002001F05AF90024002814BF01241A
:102F7000FFF76CFA204610BD0020024038B504006F
:102F800009D004F17405696809B900F01EF800F071
:102F900021F8012801D1012032BD606A08B100F09A
:102FA0002AF800F00AF821F02A01FFE7816000F01A
:102FB0001BF8BDE8324000F02CBB2068416821F4CA
:102FC0009041416020688168704700202870204649
:102FD000FFF7D1BA242169602068026852085200C4
:102FE0000260204600F0B8B92068016841F0010194
:102FF000016020467047204600F0A8BA2DE9FC4742
:10300000054605F1740488466068202817469946ED
:1030100046D1B8F1000F14BF002F012041D0207815
:1030200001283DD0012121700020E0602122626052
:1030300005F15006FFF762FC378082467780A8686A
:10304000B0F5805F04BF286900280EBF47464046A0
:1030500000270021217080460FE018F8012B02851F
:1030600008E02868B8F1000FF7D137F8021BC1F368
:10307000080101857088411E718053467088CDF823
:10308000009000280FD000228021284600F0EFFA9F
:103090000028E6D0032004E020206060002000E04B
:1030A0000220BDE8F68700224021284600F0DFFA22
:1030B0000028F1D0EEE7216851E8002F7047206822
:1030C00000F1080151E8001F490800F10802490019
:1030D00042E8001000287047206800F1080151E81C
:1030E000001F00F1080221F0400142E80010002812
:1030F0007047296851E8002F22F4D07241E800207F
:1031000000287047F8B5044640F60F002368D969D7
:103110001A689E68084004F158050BD1880600D54E
:10312000970640F17D80E968002978D02046BDE807
:10313000F4400847F00703D4DFF8F0733A426FD049
:10314000C80707D5D70505D501201862AB6A43F03B
:103150000103AB62880708D5F30706D5276802206C
:103160003862A86A40F00400A862480708D5F3074F
:1031700006D5276804203862A86A40F00200A862D9
:1031800008070AD5930601D4F00706D52668082358
:103190003362A86A40F00800A862080509D5530107
:1031A00007D526684FF400603062A86A40F020001E
:1031B000A862A86A002832D0880605D5910603D5F2
:1031C000E96809B120468847A86A21688A685106DB
:1031D00002D410F0280F1DD0204600F099FA206884
:1031E0008168480611D5FFF777FFFCD1A86960B167
:1031F0000FF26D518163A86901F055F800280ED0D7
:10320000A869816BBDE8F44008472046BDE8F2405C
:1032100001F06EB8204601F06BF80020A862F1BD05
:10322000A868012867D1C80665D5D70663D51020E0
:1032300018622168886841062CD5A9690868406829
:1032400080B20028EBD02A889042E8DA68800868CB
:1032500001688A061AD4FFF72EFF22F48072FFF766
:103260004DFFF8D1FFF72BFFFCD1FFF735FFFCD165
:10327000202068620021A960FFF71DFF22F01002E4
:10328000FFF73CFFF8D1A86900F0EAFF29886888B9
:10329000091A2AE02A8869886888511A00281CBF00
:1032A00088B2002851D0226852E8003F23F490737E
:1032B00042E800300028F6D1206800F047F85208B4
:1032C00000F10803520043E800200028F4D1202038
:1032D00068620022AA60EA60226852E8003F23F098
:1032E000100342E800300028F6D12046BDE8F44043
:1032F00089B200F0FEBFC80209D5760207D54FF4A7
:10330000801018622046BDE8F24000F0F3BF0806C6
:1033100007D5130605D52969B9B12046BDE8F440A3
:103320000847480611D551060FD5FFF7C4FE22F015
:103330004002FFF7E3FEF8D1202028620021296136
:103340002046BDE8F24000F0D6BFF1BD00F1080212
:1033500052E8002F70470000F8B504467448226810
:10336000744F1368A168034020690B4361690343EC
:10337000E0690B430343136000255168E06821F4C2
:10338000405101435160A36967498A421CBF206ACA
:1033900003439668684826F4306633439360BA4224
:1033A0004FF40043654E2FD1366806F00306032E16
:1033B00037D8DFE806F0026F5C710127E169B1F5EB
:1033C000004F4FF6F07640F0868047B1012F7AD05B
:1033D000022F08D0042F79D0082F7AD09DE000F07A
:1033E00095FE00280FD061684A0802EB4002B2FB4C
:1033F000F1F0A0F11001B142F0D20640C0F342005A
:1034000006432068C66089E04D4FBA4221D1366834
:1034100016F00C063CD0042E3CD0082E27D00C2EE3
:103420003AD010278A42C9D137B1022F08D0042FD1
:1034300034D0082F35D070E000F068FE00286DD041
:10344000626802EB4201884267D3130383422AD2A7
:1034500063E03C4FBA420CD1366816F0300617D004
:10346000102E17D0202E02D0302E15D0D9E70227EB
:10347000D8E78A42D5D1366816F4406608D0B6F54A
:10348000806F07D0B6F5006FF1D0B6F5406FECE76E
:103490000027C7E70427C5E70827C3E700F0EDFDCD
:1034A000CCE71846CCE7010E560816EB0020694120
:1034B0000023FDF7F9FDA0F54071234A91422CD27B
:1034C0002168C8602AE000F029FE8AE700F0D5FDF7
:1034D00087E7184687E747B1012F16D0022F07D09C
:1034E000042F15D0082F16D017E000F00FFEA8B15A
:1034F000616800EB5100B0FBF1F0A0F11001B142A6
:103500000BD2226880B2D06008E000F007FEEEE740
:1035100000F0B3FDEBE71846EAE7012500206066FE
:10352000A0662846F2BD0000008000402001000493
:10353000F369FFEF003801400024F40088100240D6
:10354000004400400048004000FD0F0090F82410A7
:10355000CA0706D502685368816A23F400330B4317
:10356000536090F824108A0706D502685368C16A30
:1035700023F480330B43536090F824104A0706D598
:1035800002685368016B23F480230B43536090F867
:1035900024100A0706D502685368416B23F40043E0
:1035A0000B43536090F82410CA0606D5026893684E
:1035B000816B23F480530B43936090F824108A06A8
:1035C00006D502689368C16B23F400530B439360E4
:1035D00090F824104A0610D502685368016C23F451
:1035E00080130B435360036CB3F5801F05D1536800
:1035F000416C23F4C0030B43536090F824100A0677
:1036000006D501684A68806C22F4002202434A60B1
:103610007047F8B5044604F174050020E8606FF0C7
:103620007E47FFF76BF90646206801680A0708D550
:103630000097334600224FF40011204600F017F89F
:1036400060B9206801684A070AD50097334600220E
:103650004FF48001204600F00AF808B10320F2BDC3
:1036600020206860A860002020662870F2BD2DE947
:10367000F041069C05460E4690461F462868C169E3
:103680003140B1420CBF0120002040452AD114F145
:10369000010FF3D0FFF732F9C01B844200D354B9B5
:1036A000FFF727FDFCD100F026F8FCD100F01DF853
:1036B0000021017014E0286801684A07DED5C1695D
:1036C0000A05DBD54FF400610162FFF712FDFCD162
:1036D00000F011F8FCD100F008F8C160002202707F
:1036E000032000E00020BDE8F08105F174002021F6
:1036F000416081607047286800F1080151E8001FAF
:10370000490800F10802490042E80010002870470B
:10371000026852E8003F23F4907342E80031002928
:10372000F6D1016801F1080252E8002F520801F1B8
:103730000803520043E800210029F2D1016E01295B
:1037400008D1026852E8003F23F0100342E800313C
:103750000029F6D12021C167002202664266704727
:10376000806A00F1520100220A810A8000F0C0BD87
:1037700010B5040001D1012010BD207920B900212D
:1037800061712046FEF7C3FE0220207100212161F5
:1037900001202071002010BD30B54279012A01D1ED
:1037A000022030BD0122427102230371012503680A
:1037B0001C6801F0100295402C431C60002902682F
:1037C000116807D101F03C0104290CD1516841F086
:1037D000010107E001F47011B1F5802F03D15168A8
:1037E00041F002015160012101710022427100206B
:1037F00030BD10B50446206801688A0413D5416BBA
:103800008A0410D5042121714FF40051226942F03D
:103810000102226141632068026822F48052026042
:10382000204600F069FD206801688A0015D5416BCB
:103830008A0012D5042121714FF00051226942F013
:103840000202226141632068026822F08052026015
:103850002046BDE8104000F050BD10BD38B5002432
:1038600000940029056800950CBF083214320098B6
:103870001218009200980360002032BD2DE9F0413B
:1038800006460F4670790128144608BF022079D0F9
:10389000012070710221317104F01005386804288C
:1038A0003BD1FFF72BF8804654B93068416B0804D0
:1038B00017D5FFF723F8A0EB08000128F5D909E098
:1038C0003068416B002913D5FFF718F8A0EB08000A
:1038D0000128F5D9306940F00800306103213171C9
:1038E0004FE0012000F00AFD3168B869086405E086
:1038F000012000F003FD3168B869486440F2FF32EE
:103900003068816CFB6900F03FF88164FF22306809
:10391000C16C3B6A00F038F8C1643869012806D1EF
:103920003068816B7B691F2200F02EF881630720CD
:103930003268D36B3C68B968A8408343F8680C438D
:103940000443AC402343D3634FF4804230680168A2
:10395000AA409143016040F6FC73306801687A68C0
:10396000AB409943AA4011430160C023306801680D
:1039700003FA05F521EA05050560012030710021F3
:1039800071710846BDE8F081AA409143AB401943EC
:10399000704700000CB430B583B00A4606A9029106
:1039A000044600250194009502AB01A9084878441B
:1039B0001E30FCF7EBFB019A157000284EBF044641
:1039C0000198041B204603B030BC5DF80CFB00BF1F
:1039D000FFD5FFFFDFF87800006800F4C060704793
:1039E00010B5DFF86C10B0F5007F086800F4C06017
:1039F00015D1B0F5007F1BD00868DFF85820DFF83C
:103A0000584020F4C06040F4007000F018F84A6993
:103A100053050FD5002818BF401EF8D10AE0B0F5B5
:103A2000806F05D0086820F4C06040F480600860B2
:103A3000002010BD48694105FAD5032010BD08607B
:103A4000322013684343B3FBF4F0401C704700007E
:103A5000007000400C00002040420F002DE9FC47A0
:103A6000050017D0DFF84077DFF84C67BC68F868CE
:103A700000F003082878C10604F00C0452D524B1E4
:103A80000C2C08BFB8F1010F2FD13868810703D57E
:103A9000A869002800F05181396808074EBF3968CD
:103AA00071680909286A01F0F001814206D200F02C
:103AB00041FB002809D100F030FA08E000F02DFAAF
:103AC0002CB9286A00F036FB002840F0368100F05F
:103AD000D4FABA6800F0C7FADFF8D406006800F03C
:103AE0009DFB010000F0198111E2A86990B13968CD
:103AF00041F001013960FEF701FF81463868810716
:103B000000F10981FEF7FAFEA0EB09000328F5D3C6
:103B10000320FCE138684008400000F013FA8146B9
:103B20003868810740F1F980FEF7E8FEA0EB090054
:103B30000328F5D3ECE76868B0F5803F04D1386816
:103B400040F48030386011E0B0F5A02F386806D11D
:103B500040F480203860396841F4803105E020F479
:103B600080303860396821F480213960686868B134
:103B7000FEF7C4FE81463868810300F1E080FEF75D
:103B8000BDFEA0EB09006528F5D3C1E7FEF7B6FE40
:103B900081463868810340F1D280FEF7AFFEA0EB8A
:103BA00009006528F5D3B3E7FEF7A8FE00F0B1F9E8
:103BB000C0F0EB80ACE7E86880B1396841F480710F
:103BC0003960FEF79BFE80463868410500F1C880E9
:103BD000FEF794FE00F09DF9F6D399E7386820F4DB
:103BE000807000F0AFF980463868410540F1BF8031
:103BF000FEF784FE00F08DF9F6D389E74008400017
:103C00007060FEF77BFE80467068810740F1C180DE
:103C1000FEF774FE00F07DF9F6D379E705283068E9
:103C200006D140F004003060316841F0010105E048
:103C3000400840003060316821F004013160A8681C
:103C400041F2893968B1FEF759FE82463068810732
:103C500000F1D580FEF752FEA0EB0A004845F5D3EF
:103C600056E7FEF74BFE82463068810740F1C78079
:103C7000FEF744FEA0EB0A004845F5D348E7FEF7FF
:103C80003DFE00F046F9C0F0CF8041E7400840001B
:103C9000B060FEF733FE8046B068810740F1C8800F
:103CA000FEF72CFE00F035F9F6D331E7FEF726FEDD
:103CB000001B0328C0F0F6802AE7FEF71FFE001B5A
:103CC0000328C0F0198123E7386881010CD43868D3
:103CD00040F080703860F96841F08071F960FEF75B
:103CE0000DFE04463868810100F11081FEF706FEE2
:103CF000001B0328F6D30BE70C2C1ED000F01FF995
:103D000004463868810140F1FC80FEF7F7FD001B96
:103D10000328F6D3FCE600F000F92878C1070ED599
:103D2000082C05D00C2C08BFB8F1030F7FF403AFAB
:103D30003868810303D5686808B90120E7E028786E
:103D4000810714D5042C05D00C2C08BFB8F1020F44
:103D50007FF431AF3868410502D5E8680028ECD01F
:103D60007868296920F0F85040EA01607860287886
:103D700001070ED56869002870683FF43FAF40F036
:103D800001007060FEF7BAFD8046706881077FF51C
:103D90000BAF2878410739D5B86DC1004FF0000846
:103DA0000AD4B86D40F08050B8654FF00108B86D86
:103DB00000F0805000900098DFF80094D9F80000DF
:103DC000C10513D4D9F8000040F48070C9F8000090
:103DD000FEF794FD8246D9F80000C10506D4FEF72F
:103DE0008DFDA0EB0A000328F5D391E6A868012811
:103DF0007FF414AF306840F0010030601FE7B8F185
:103E0000000F03D0B86D20F08050B8652878810687
:103E10000ED5686A0028B0683FF438AF40F0010062
:103E2000B060FEF76BFD8046B06881077FF527AF75
:103E3000A86A00286AD002287FF45EAFF868EA6AB0
:103E400000F00301914201BF00F070012A6B521E85
:103E5000B1EB021F1CD16A6B00F4FE41B1EB022FE3
:103E600002BF00F07841AA6BB1EBC26F10D1EA6BD0
:103E7000520800F4C001521EB1EB425F08D1296C18
:103E8000490800F0C060491EB0EB416F3FF41CAF21
:103E90000C2C3FF452AF386841013FF54EAF00F0B3
:103EA0004EF80446386881013FF500AFFA68DFF844
:103EB0001013E86A0A40296B0243491E686B42EA04
:103EC0000112E96B490842EA0022286C491E4008A9
:103ED00042EA4152401E42EA4062A86B42EAC06296
:103EE000FA60396841F080713960F86840F080709C
:103EF000F860FEF703FD0446386881017FF5DDAE0A
:103F000004E0FA68DFF8BC020240FA600020BDE875
:103F1000F687A0EB080003287047386840F00800D7
:103F200038603968286A21F0F00101433960796806
:103F3000E86921F47F4141EA0021796070473868DF
:103F400020F080703860FEF7D9BC2DE9F041040004
:103F5000884675D0DFF87062306800F00700404591
:103F600002D200F06FF86BD12078DFF83C52810765
:103F700006D5A068A96801F0F001814200F06CF854
:103F80002078C1074AD56068032802D129688A01D0
:103F900008E0022802D129688A0303E00028296882
:103FA00002D18A0702D44BE04A0549D5A96889089D
:103FB00040EA8100A860FEF7A1FC0746A868616896
:103FC00000F00C00B0EB810F28D0FEF797FCC01B6F
:103FD00041F289318842F1D303201DE02078410766
:103FE00005D5AA68E06822F4E0620243AA6021785D
:103FF000080706D5A968206921F4605141EAC0018B
:10400000A96000F03AF8AA6800F02DF8BDE8F04188
:104010006748006800F002B9BDE8F08120788107A8
:1040200006D5A068A96801F0F001884200F014F8F4
:10403000306800F007008045D0D200F003F8CDD002
:104040000120E9E73168C90848EAC10131603068F8
:1040500000F007004045704704D2A96821F0F00144
:104060000843A86070475949C2F30312895C4F4A5C
:1040700001F01F01C8401060704770B54A4A554BA7
:104080009068D6680025002110F00C0006F00306A9
:10409000514C03D00C2812D1012E1AD115682E07CD
:1040A00004D4444D2E68C6F3032502E01568C5F319
:1040B00003154A4E56F8255048B9294624E00428ED
:1040C00008BF214620D008281ED119461CE00C2824
:1040D0001AD1D06800F00300022803D0032808BFDB
:1040E0001D4600E02546D168D068D268C0F306209E
:1040F0004543C1F30210C2F34161401C491CB5FBAA
:10410000F0F04900B0FBF1F1084670BD2748304A95
:10411000006813683249C3F3022206E023482C4AA0
:10412000006813682E49C3F3C222895C01F01F01A5
:10413000C84070477CB52B4E054630680024C1004E
:1041400002D5FFF747FC0EE0306840F08050306049
:10415000316801F0805100910098FFF73BFC316815
:1041600021F080513160B0F5007F04D1802D0CD951
:10417000A12D09D304E0802D88BF032405D801D1E7
:10418000022402E0702D00D101240F480168C90803
:1041900044EAC1010160006800F00700A04201D0BC
:1041A000012076BD002076BD001002400C000020EA
:1041B000080000209410024090100240007000405F
:1041C0008C809D01FCFFEEFE00200240444400086C
:1041D0000810024000127A000024F400684300082E
:1041E000B44400085810024000B500BF13009646C2
:1041F0009446103928BFA0E80C50FAD85FEA417CF9
:1042000028BF0CC048BF40F8042BC90728BF20F8BE
:10421000022B48BF00F8012B00BD000070B50E4E08
:10422000044630780025A0B14FF47A710B4AB1FBF7
:10423000F0F11068B0FBF1F0FEF769FE48B9102C00
:1042400007D2002221464FF0FF30FEF737FEB46060
:1042500000E00125284670BD000000200C00002071
:1042600000F124014A78022A05D004208861002246
:104270000A70012070470268136823F00E03136070
:1042800000680268520852000260012091F8202064
:10429000CB6902F01C029040586000220120487057
:1042A0000A700020704738B500F1240100244A78D4
:1042B000022A03D004208861012417E002681368F1
:1042C00023F00E031360026815686D086D00156019
:1042D000012291F82030CD6903F01C039A406A60F6
:1042E00001224A700C70496901B18847204632BDED
:1042F00070477047704770477047704738B504463D
:10430000FEF7FCFA14F1010F054602D004480178CB
:104310006418FEF7F3FA401BA042FAD331BD00BF88
:1043200000000020FEE7FEE7FEE7FEE7FEE770473D
:104330007047704700F010B80448FDF770BD04489E
:10434000FEF7E0BE0348FFF754BA0000B4000020B7
:1043500010000020940000200248416802788A186A
:104360004260704700000020A0860100400D03005D
:10437000801A060000350C0040420F0080841E00A9
:1043800000093D0000127A000024F40000366E019E
:104390000048E801006CDC0230B450F8041B79B12D
:1043A0000268436802440830DC0744BFA9F10104F5
:1043B000E31852F8045B43F8045B091FF9D1ECE7FA
:1043C00030BC704710B5074979441831064C7C441D
:1043D000163404E00A68081D114488470146A142CA
:1043E000F8D110BD2C0000004C0000004EF68851A2
:1043F000CEF20001086840F470000860BFF34F8FF0
:10440000BFF36F8F4FF00070E1EE100A70470000AD
:104410006FCBFFFF2401000010000020000000000F
:1044200079FFFFFF10000000700000000000002076
:10443000000000000248016841F47001016070470B
:1044400088ED00E00000000000000000010203040D
:104450000607080900F00DF8002801D0FFF7B2FFA9
:10446000AFF300800020AFF30080FEF7E7F800F024
:1044700002F80120704700F001B8000007463846F6
:10448000FDF764FBFBE70000014880470148004757
:1044900035440008A94400080100000000000000A5
:1044A0001000000000093D00AFF30080FFF79EFF01
:1044B000FFF7D0FF0000000001020304FFF7FEBF7A
:1044C000FFF7FEBFFFF7FEBFFFF7FEBFFFF7FEBF20
:1044D000FFF7FEBFFFF7FEBFFFF7FEBFFFF7FEBF10
:1044E000FFF7FEBFFFF7FEBFFFF7FEBFFFF7FEBF00
:1044F000FFF7FEBFFFF7FEBFFFF7FEBFFFF7FEBFF0
:10450000FFF7FEBFFFF7FEBFFFF7FEBFFFF7FEBFDF
:10451000FFF7FEBFFFF7FEBFFFF7FEBFFFF7FEBFCF
:10452000FFF7FEBFFFF7FEBFFFF7FEBFFFF7FEBFBF
:10453000FFF7FEBFFFF7FEBFFFF7FEBFFFF7FEBFAF
:10454000FFF7FEBFFFF7FEBFFFF7FEBFFFF7FEBF9F
:10455000FFF7FEBFFFF7FEBFFFF7FEBFFFF7FEBF8F
:10456000FFF7FEBFFFF7FEBFFFF7FEBFFFF7FEBF7F
:10457000FFF7FEBFFFF7FEBFFFF7FEBFFFF7FEBF6F
:10458000FFF7FEBFFFF7FEBFFFF7FEBFFFF7FEBF5F
:10459000FFF7FEBFFFF7FEBFFFF7FEBFFFF7FEBF4F
:1045A000FFF7FEBFFFF7FEBFFFF7FEBFFFF7FEBF3F
:0845B000FFF7FEBFFFF7FEBF9D
:04000005080044A902
:00000001FF
