:020000040800F2
:100000006805002089240008A5230008A72300080C
:10001000A9230008AB230008AD230008000000005E
:10002000000000000000000000000000AF230008F6
:10003000B123000800000000B3230008B523000826
:10004000BD240008C1240008C5240008C9240008F4
:10005000CD240008D1240008D5240008D9240008A4
:10006000DD240008E1240008E5240008E924000854
:10007000ED240008F1240008F5240008F924000804
:10008000FD240008012500080525000809250008B1
:100090000D2500081125000815250008B9230008C2
:1000A000192500081D250008212500082525000820
:1000B0002925000800000000000000002D25000890
:1000C0003125000835250008392500083D250008A0
:1000D0004125000845250008492500084D25000850
:1000E000C1230008512500080000000000000000A6
:1000F0000000000000000000000000000000000000
:1001000000000000552500080000000059250008E7
:1001100000000000000000005D25000861250008C7
:1001200065250008692500086D250008712500086F
:10013000752500080000000000000000000000001D
:10014000792500087D2500088125000885250008FF
:10015000892500088D2500089125000895250008AF
:10016000992500089D250008A12500080000000031
:10017000A5250008A9250008AD25000800000000FD
:10018000B1250008B5250008B925000838B50400D8
:1001900001D1012032BD606A28B900F0FCFB05D016
:1001A0000021E16102E00020206160610020A06286
:1001B00004F15C05687820B900212970204600F020
:1001C0002BFC0220687000F0DEFBE168B1F5E06F07
:1001D00004D90020B1F5706F03D104E04FF48050D2
:1001E00001D00021A1626168A268237C01F48271C0
:1001F00002F404421143227D03F002031943A36970
:1002000002F001021143227F03F40073194394F8B2
:10021000203002F038021143A26A03F08003194330
:10022000236802F4005211431960A16994F8242054
:1002300094F83430090C01F0040102F0100211436B
:10024000E26803F00803194302F4706211430843A3
:1002500021684860002068600121697032BD2DE985
:10026000F843054605F144060027307E01280C4678
:100270009146984608BF022000F0C28001203076E7
:1002800000F062FC717E012918BF022757D1002CB3
:1002900018BFB9F1000F00F0AD8003217176F7614E
:1002A000AC63A5F83C90A5F83E902F64378077802A
:1002B000F760B760A968B1F5004F09D129680B68EC
:1002C00023F040030B6029680C6844F480440C6000
:1002D00029680B685C0600F05AFA40F20172EB687C
:1002E0006968934244462ED3002918BFB9F1010F23
:1002F00009D1A96B2B680A88DA60A96B8A1CAA63EA
:10030000E98F4A1EEA87804608E0A96B0A88C26026
:10031000A86B811CA963E88F411EE987E88F00283C
:1003200055D0286881688A07EFD400F00DFCA0EB57
:100330000800A04204D314F1010FEFD003275AE0C4
:10034000002CEBD1FAE7002918BFB9F1010F0CD14D
:10035000A96B2A68EB8F022B09D30988D160AA6B9D
:10036000911CA963EA8F911EE987804610E00B7803
:100370001373A96B4A1CAA63E98F4A1EEA87F4E744
:100380000988C160A86B811CA963E88F811EE98779
:10039000E88FE0B1286881688A070BD5A96BEA8FDE
:1003A000022AEDD209780173A86B411CA963E88F7A
:1003B000411EECE700F0C8FBA0EB0800A04203D30D
:1003C00014F1010FE4D0B9E7002CE1D1B6E74246C1
:1003D0002146284600F0E3FA08B12020F061A86821
:1003E00030B900972968CA68009289680091009A1C
:1003F000F06900B10127012070760021317638467E
:10040000BDE8F2832DE9F843002600F0C2FA04BFEC
:10041000A06800289146984604F1440709D10426B3
:100420007E76CDF800804B462A46204600F090F8B4
:100430008CE0387E012808BF0220F9D001203876F0
:1004400000F082FB797E012918BF022679D1002DA8
:1004500018BFB9F1000F73D004217976FE612564CD
:10046000A7F80090A7F80290A663A687E687BE606B
:10047000FE6040F20171E36822688B4204D3556844
:1004800025F48055556003E0536843F4805353606E
:10049000A268B2F5004F09D12268136823F0400327
:1004A00013602268156825F480451560226813687A
:1004B0005D0603D4136843F0400313600546E26809
:1004C0008A4220D204E0007B216C087000F058F9C9
:1004D000788858B320688168CA07F4D400F034FBE8
:1004E000401B404504D318F1010FF1D0032628E04A
:1004F000B8F1000FECD1F9E7C068216C0880206CDE
:10050000821C00F03FF9788880B120688168CA07B2
:10051000F2D400F019FB401B404503D318F1010F42
:10052000F1D0E3E7B8F1000FEDD1DFE72A4641460D
:10053000204600F0FDF908B12020F861F86900B10B
:10054000012601207876002139763046BDE8F28315
:100550002DE9F047044604F144070026387E0128BF
:100560008A4690464FF0010908BF022000F006813C
:100570001D4687F8189000F0E7FA7A7E012A09D024
:100580006168B1F5827F02BFA1680029042A01D009
:100590000226EEE0BAF1000F18BFB8F1000F00D04C
:1005A0000DB90126E5E0797E04291CBF0521797685
:1005B000FE61C4F840807D803D80C4F838A0E587A6
:1005C000A587BE60FE6040F20172E168914238BFCB
:1005D000022D04D321684B6823F4805303E0216883
:1005E0004B6843F480534B6021680B685B0600F056
:1005F000CEF8E3686168DDF82080934242D3002999
:1006000018BF012D09D1A16B23680A88DA60A16B9C
:100610008A1CA263E18F4A1EE2870546E08F00280C
:1006200004BF7888002800F09B80216888688207D2
:100630000FD5E08F002818BFB9F1000F09D0A06BCB
:100640000288CA60B146A06B811CA163E08F411E85
:10065000E18721688868C2070AD5788840B1C868F0
:10066000216C08804FF00109206C821C00F08AF890
:1006700000F06AFA401B4045D0D318F1010FCDD0ED
:10068000032676E0002918BF012D0CD1A16B22684A
:10069000E38F022B09D30988D160A26B911CA1635F
:1006A000E28F911EE18705463AE00B781373A16B48
:1006B0004A1CA263E18F4A1EE287F4E700780873C0
:1006C000A16B481CA063E18F481EE087B1462168FA
:1006D0008868C2071CD57888D0B1206C7A88022A35
:1006E00010D3C9680180206C821C22647888811E26
:1006F00079807888022809D22068416841F48051C5
:10070000416003E0097B017000F03AF84FF0010905
:1007100000F01AFA401B40451ED318F1010FAFD16B
:10072000E08F002804BF7888002819D021688868E5
:100730008207CCD5E08F002818BFB9F1000FC6D0D2
:10074000A06BE28F022AB9D30088C860A16B881C15
:10075000A063E18F881EB8E7B8F1000FE0D18FE702
:1007600020462A46414600F01AF910B12020012601
:10077000F86101217976002038763046BDE8F087AF
:10078000206C421C22647888411E7980704703D413
:100790000B6843F040030B6070472DE9F843089C59
:1007A00005460E4690461F4600F0CEF9381A24182A
:1007B00000F0CAF98146DFF8300201684901090DED
:1007C0006143009105E0009800B900240098401EA4
:1007D0000090286881683140B1420CBF01200020A0
:1007E000404532D017F1010FF3D000F0ADF9A0EB86
:1007F0000900A04201D2002CE5D12868416821F00F
:10080000E00141606868B0F5827F0BD1A868B0F55F
:10081000004F18BFB0F5806F04D12868016821F03F
:1008200040010160A86AB0F5005F09D1286801683D
:1008300021F4005101602868026842F4005202600D
:1008400005F15C0000F06EF800E00020BDE8F283E6
:100850002DE9FC4706460A9D00208DF800000F4652
:100860001446984600F070F9A8EB00002D1800F02F
:100870006BF981463068DFF870110A6800F10C0AE4
:1008800023204243120D6A43019205E0019800B90A
:1008900000250198401E0190306881683940A142CE
:1008A0003DD0B7F5C06F08BF002C05D19AF8000005
:1008B0008DF800009DF8001018F1010FECD000F049
:1008C00043F9A0EB0900A84201D2002DDED1306827
:1008D000416821F0E00141607068B0F5827F0BD182
:1008E000B068B0F5004F18BFB0F5806F04D1306824
:1008F000016821F040010160B06AB0F5005F09D1E4
:100900003068016821F4005101603068026842F4E7
:100910000052026006F15C0000F004F800E00020E4
:10092000BDE8F68701214170002202700320704764
:100930007CB500F02EF8164608D1A068B0F5004F3F
:1009400018BFB0F5806F01D100F01DF800F015F868
:1009500070B900F020F80ED1A068B0F5004F18BFB4
:10096000B0F5806F07D100962B4600F037F810B134
:1009700000F02CF876BD002076BD00962B460022B4
:100980008021204609E72068016821F040010160CC
:10099000704704460D466068B0F5827F70477CB5AD
:1009A0000D461646044600962B4600224FF4C051D1
:1009B000FFF74EFF38B9FFF7E0FF20B900962B464E
:1009C00000F00CF808B100F001F876BD206E40F0A0
:1009D00020002066032070470090642300224FF41B
:1009E000C061204634E700000C000020504881B070
:1009F000816841F001018160816801F0010100918D
:100A00000099026842F080520260006800F0805055
:100A10000090009801B0704710B586B00446684653
:100A2000142100F097F82068424C4349A04219D1A4
:100A3000486940F480504861486900F4805005904E
:100A400005980A6842F001020A600222096801F072
:100A50000101059141F60201059800F022F84FF0DE
:100A600090401AE0354A904219D1C86840F480405D
:100A7000C860C86800F48040059005980A6842F094
:100A800002020A600222096801F0020105914FF496
:100A9000444105982A4800F004F800F07BF806B0BD
:100AA00010BD0091019200210291032205210491C1
:100AB00003926946704710B59EB0044601A8142100
:100AC00000F048F806A8602100F044F820681D49AD
:100AD00088422BD10222002106920F9106A800F035
:100AE00045F908B100F08AFC1348C16841F40031AF
:100AF000C160C16801F4003100910099026842F0C0
:100B0000010202600C21006800F001000090022246
:100B1000009801910292002103910322072105917F
:100B2000049201A94FF0904000F034F81EB010BDBF
:100B300058100240003001404C1002400038004084
:100B4000000400480044004001484068704700BF6E
:100B500000000020002200F059BC30B4002513E052
:100B600050F8042BD30744BFA9F101039A18091FB9
:100B7000042942F8045BFAD213468C0744BF15805F
:100B80009B1CC90748BF1D7050F8041B0029E7D102
:100B900030BC70472DE9F84F00266C4A0F23804681
:100BA0000D4634E06A4CA04514BF072404248C4051
:100BB00044EA0E044CF82740C74366498C6807EAAC
:100BC000040C6C68E40248BF40EA0C0CC1F808C091
:100BD000CC6807EA040C6C68A40248BF40EA0C0C1D
:100BE000C1F80CC04C6807EA040C6C68A40348BF49
:100BF00040EA0C0CC1F804C00C6807EA040C6F68EA
:100C0000FC0348BF40EA0C0CC1F800C0761C296800
:100C100031FA06F000F08A80012000FA06FE1EEA92
:100C20000100F3D077000321B9406FEA010C696835
:100C300001F00304012C1CBF01F00301022913D1B0
:100C4000D8F80810EC680CEA0101BC402143C8F850
:100C50000810D8F8041021EA0E046968C1F30011E5
:100C6000B1402143C8F80410B1002C7904F003040A
:100C7000032C21D0D8F80C400CEA040EAC68BC4020
:100C800044EA0E04C8F80C402C7904F00304022C4A
:100C900012D1F40808EB840E01F01C09DEF82040A4
:100CA000D5F810B003FA09FA24EA0A040BFA09F994
:100CB00049EA0404CEF82040D8F8004095F804E052
:100CC0000EF0030E0CEA04040EFA07F72743C8F8E7
:100CD00000706F6817F4403F98D01768DFF878C04D
:100CE00047F00107176001F00C01146804F00104DB
:100CF000009403FA01FE009FB7085CF8274024EA3D
:100D00000E0EB8F1904F08BF00240ED0134CA04532
:100D100008BF012409D0124CA04508BF022404D00A
:100D2000104CA0457FF43EAF032440E7BDE8F18FAF
:100D30000AB181617047816270470B4A13680342B0
:100D40001CBF106000F0ECB970470000601002405A
:100D50000010004800040140080001400004004861
:100D600000080048000C0048140401402DE9FC472D
:100D7000054600242868DFF88C630105A1461BD5D1
:100D8000686C58B1B0F5000F03D0B0F5400F09D032
:100D900010E0326842F48032326004E0002100F05A
:100DA0002AF904463CB9F16F686C21F44001014313
:100DB000F16701E00124A146286881032BD5F06C7E
:100DC000C1004FF000080AD4F06C40F08050F0648D
:100DD0004FF00108F06C00F0805000900098DFF8B0
:100DE0002873386840F480703860FFF7ADFE8246A3
:100DF0003868C10500F1D180FFF7A6FEA0EB0A001C
:100E00000328F5D30324A146B8F1000F03D0F06CFA
:100E100020F08050F0642878C10705D5F26F286A69
:100E2000920840EA8202F2672978880705D5F16FB7
:100E3000686A21F00C010143F1672978480705D55C
:100E4000F16FA86A21F030010143F1672978880623
:100E500005D5F16FE86A21F440610143F167296823
:100E6000880505D5F16FE86B21F440210143F16756
:100E70002968480505D5F16F286C21F4401101431C
:100E8000F1672978480605D5F16F286B21F44051A8
:100E90000143F1672978080605D5F16F686B21F4E5
:100EA00040410143F1672968C80505D5F16FA86B7A
:100EB00021F440310143F167296888041ED5F16FA0
:100EC000A86C21F040610143F167A86CB0F1006F9C
:100ED0000CD100F08AF811E0FFF736FE001B41F25A
:100EE0008931884276D34FF003098DE7B0F1806FE6
:100EF00004D100F07FF8010018BF81462868010383
:100F000014D5F26FE86C22F040620243F267E86C9D
:100F1000B0F1006F02D100F068F807E0B0F1806F27
:100F200004D100F067F8010018BF8146286841032A
:100F300014D5F26F286D22F040620243F267286DEB
:100F4000B0F1006F02D100F050F807E0B0F1806F0F
:100F500004D100F04FF8010018BF81462868410411
:100F60000FD5F26F686D22F040520243F267696D4F
:100F7000B1F1805F05D1022100F03DF8010018BFFA
:100F800081462868010405D5F26FA86D22F08042E1
:100F90000243F2674846BDE8F687002C7FF433AF82
:100FA000DFF86871386810F440701CBFE96D884242
:100FB0000BD03868396841F48031396020F44070D2
:100FC0003A6822F480323A603860C00706D5FFF7ED
:100FD000BBFD0446386881077FF57EAF3A68E86D4F
:100FE00022F4407202433A600EE7306840F4801009
:100FF000306070470121281DFFE72DE9F0410746C9
:10100000434E38680C46F168002511F0030F0DD0EF
:10101000F16801F00301814237D1B0B3F06879681B
:10102000C0F30210401C884213D02EE0012804D0E7
:101030002BD3032823D01ED327E03268910724D571
:10104000F268796822F073021043491E40EA0110E9
:10105000F060306820F080603060FFF775FD8046FA
:101060003068010134D5FFF76FFDA0EB08000328BD
:10107000F6D303253CE031684A05E1D405E0316848
:101080008A03DDD431684A03DAD4012530E0012C2B
:10109000326906D13B691F4800F02DF841EA4351FF
:1010A00005E07B691C4800F026F841EA43613161A4
:1010B000306840F080603060FFF746FD04463068DD
:1010C000010111D4FFF740FD001B0328F7D3D0E73F
:1010D000B968002CDBD132691048FB68024042EA53
:1010E000012141EAC361E2E73169B8690143316135
:1010F0002846BDE8F08102405B0842EA01215B1E00
:10110000704700000C100240007000409010024038
:1011100000100240FF809FFFFF80FFF9FF80FF0764
:10112000B0F5807F00D0704780B5012200F08DF8C7
:10113000BDE80050A1480023042200F16401FFF73C
:1011400061B900007FB500F07BF900F083F800F092
:10115000BCF89B4C9B4860664FF4E131A1660020CF
:10116000E066206760670C21E067A16704F18400F6
:101170000021C4F880100160416004F1640000F0B7
:1011800075F908B100F03AF900228C48426082609B
:1011900001228D4901604261002107224FF4E06580
:1011A00001614FF40076016241628162C2620163B3
:1011B0004163C5608661FEF7E9FF08B100F01EF9E2
:1011C000824820604FF482711820E061616007203E
:1011D00000220121E062A2602261616122626262FA
:1011E000A26222636263E560A6612046FEF7CEFF3D
:1011F00008B100F003F9684681A10A2200F05AFB09
:10120000002200F022F800F0F2F8012000F05EFB6E
:101210009DF80210491C8DF802104FF47A73C9B280
:101220005929A4BF01218DF80210042269462046E5
:10123000FFF715F8012000F049FB002200F0D8F874
:101240004FF4FA7000F042FBDAE74FF400516048C7
:10125000FFF76EBD80B596B005A84421FFF77AFC74
:1012600068461421FFF776FC4FF4007000F048FB4D
:1012700008B100F0C3F802214FF480720591089282
:101280001021022209910F9210920A21012211923B
:1012900012910722022113921491159105A800F0D2
:1012A0006DFB08B100F0AAF80F2003210090019116
:1012B00000220292039204920421684600F0D5FDB8
:1012C00008B100F09BF817B000BD38B586B068468D
:1012D0001421FFF73FFC3F48046844F00404046015
:1012E0004FF4005501683A4C01F00401059105994D
:1012F000026842F080020260036803F080030593F5
:101300000599026842F001020260036803F00103DC
:1013100005930599026842F002020260002200680B
:1013200000F002000590B02105984FF09040FFF7C3
:10133000FFFC00224FF400512046FFF7F9FC00F0BB
:1013400056F84FF4881101910022029200956946E7
:101350002148FFF71FFC4FF4966100910122002104
:1013600002910391019269464FF09040FFF712FC01
:101370004020002100F032F801200190002202926A
:101380000392009569462046FFF704FC4FF48070F5
:101390004FF4041100F022F800220021172000F081
:1013A000CDFE172000F0E8FE00220021282000F0EA
:1013B000C5FE282000F0E0FE07B030BDF800002098
:1013C0001000002000440040003800400030014080
:1013D000000400484C1002400008004800900191B1
:1013E0000122029269464FF09040FFF7D3BB0122E1
:1013F0004FF480614FF09040FFF79ABC72B6FEE761
:1014000048656C6C6F210D0A0000000000B500BF3C
:10141000130096469446103928BFA0E80C50FAD81D
:101420005FEA417C28BF0CC048BF40F8042BC907C5
:1014300028BF20F8022B48BF00F8012B00BD000098
:10144000094810B5016841F480710160032000F083
:1014500068FE002000F0BCFE0024002814BF012418
:10146000FFF7C4FA204610BD0020024038B5040042
:1014700009D004F17405696809B900F01EF800F09C
:1014800021F8012801D1012032BD606A08B100F0C5
:101490002AF800F00AF821F02A01FFE7816000F045
:1014A0001BF8BDE8324000F086B92068416821F49D
:1014B0009041416020688168704700202870204674
:1014C000FFF7F9BA242169602068026852085200C7
:1014D0000260204600F014B82068016841F0010164
:1014E000016020467047204600F002B9296851E8A3
:1014F000002F22F4D07241E800200028704700003D
:10150000F8B5044673482268734F1368A168034016
:1015100020690B4361690343E0690B430343136094
:1015200000255168E06821F4405101435160A369EE
:1015300067498A421CBF206A03439668674826F4BD
:10154000306633439360BA424FF40043644E2FD168
:10155000366806F00306032E37D8DFE806F0026F80
:101560005C710127E169B1F5004F4FF6F07640F06C
:10157000868047B1012F7AD0022F08D0042F79D06E
:10158000082F7AD09DE000F051FD00280FD061684F
:101590004A0802EB4002B2FBF1F0A0F11001B142A7
:1015A000F0D20640C0F3420006432068C66089E0DE
:1015B0004C4FBA4221D1366816F00C063CD0042EAE
:1015C0003CD0082E27D00C2E3AD010278A42C9D101
:1015D00037B1022F08D0042F34D0082F35D070E057
:1015E00000F024FD00286DD0626802EB42018842C1
:1015F00067D3130383422AD263E03B4FBA420CD134
:10160000366816F0300617D0102E17D0202E02D0D4
:10161000302E15D0D9E70227D8E78A42D5D13668CF
:1016200016F4406608D0B6F5806F07D0B6F5006FA7
:10163000F1D0B6F5406FECE70027C7E70427C5E710
:101640000827C3E700F0A9FCCCE71846CCE7010E59
:10165000560816EB00206941002300F0DBFDA0F5E1
:101660004071224A91422CD22168C8602AE000F0E1
:10167000E5FC8AE700F091FC87E7184687E747B169
:10168000012F16D0022F07D0042F15D0082F16D007
:1016900017E000F0CBFCA8B1616800EB5100B0FB93
:1016A000F1F0A0F11001B1420BD2226880B2D060FB
:1016B00008E000F0C3FCEEE700F06FFCEBE7184633
:1016C000EAE7012500206066A0662846F2BD00001A
:1016D00000800040F369FFEF003801400024F4006F
:1016E00088100240004400400048004000FD0F0008
:1016F00090F82410CA0706D502685368816A23F45B
:1017000000330B43536090F824108A0706D5026813
:101710005368C16A23F480330B43536090F824105C
:101720004A0706D502685368016B23F480230B43F4
:10173000536090F824100A0706D502685368416B7D
:1017400023F400430B43536090F82410CA0606D5D7
:1017500002689368816B23F480530B43936090F885
:1017600024108A0606D502689368C16B23F40053DF
:101770000B43936090F824104A0610D50268536812
:10178000016C23F480130B435360036CB3F5801F8B
:1017900005D15368416C23F4C0030B43536090F8A8
:1017A00024100A0606D501684A68806C22F40022DB
:1017B00002434A607047F8B5044604F174050020FE
:1017C000E8606FF07E47FFF7BFF9064620680168C2
:1017D0000A0708D50097334600224FF4001120462F
:1017E00000F017F860B9206801684A070AD5009729
:1017F000334600224FF48001204600F00AF808B179
:101800000320F2BD20206860A860002020662870B8
:10181000F2BD2DE9F041069C05460E4690461F4656
:101820002868C1693140B1420CBF01200020404509
:101830002AD114F1010FF3D0FFF786F9C01B8442BF
:1018400000D354B9FFF752FEFCD100F026F8FCD1CA
:1018500000F01DF80021017014E0286801684A07B3
:10186000DED5C1690A05DBD54FF400610162FFF7DF
:101870003DFEFCD100F011F8FCD100F008F8C16089
:1018800000220270032000E00020BDE8F08105F195
:1018900074002021416081607047286800F10801D0
:1018A00051E8001F490800F10802490042E8001011
:1018B000002870474AB1000011F8013B521E00F8A1
:1018C000013B1CBF11F8013BF8E7704738B50446EF
:1018D000FFF73AF914F1010F054602D004480178E8
:1018E0006418FFF731F9401BA042FAD331BD00BFA5
:1018F00000000020DFF87800006800F4C060704746
:1019000010B5DFF86C10B0F5007F086800F4C06017
:1019100015D1B0F5007F1BD00868DFF85820DFF83C
:10192000584020F4C06040F4007000F018F84A6994
:1019300053050FD5002818BF401EF8D10AE0B0F5B6
:10194000806F05D0086820F4C06040F480600860B3
:10195000002010BD48694105FAD5032010BD08607C
:10196000322013684343B3FBF4F0401C704700007F
:10197000007000400C00002040420F002DE9FC47A1
:10198000050017D0DFF84077DFF84C67BC68F868CF
:1019900000F003082878C10604F00C0452D524B1E5
:1019A0000C2C08BFB8F1010F2FD13868810703D57F
:1019B000A869002800F05181396808074EBF3968CE
:1019C00071680909286A01F0F001814206D200F02D
:1019D00041FB002809D100F030FA08E000F02DFAB0
:1019E0002CB9286A00F036FB002840F0368100F060
:1019F000D4FABA6800F0C7FADFF8D406006800F03D
:101A0000E7FB010000F0198111E2A86990B1396883
:101A100041F001013960FFF797F881463868810786
:101A200000F10981FFF790F8A0EB09000328F5D336
:101A30000320FCE138684008400000F013FA8146BA
:101A40003868810740F1F980FFF77EF8A0EB0900C4
:101A50000328F5D3ECE76868B0F5803F04D1386817
:101A600040F48030386011E0B0F5A02F386806D11E
:101A700040F480203860396841F4803105E020F47A
:101A800080303860396821F480213960686868B135
:101A9000FFF75AF881463868810300F1E080FFF7CC
:101AA00053F8A0EB09006528F5D3C1E7FFF74CF820
:101AB00081463868810340F1D280FFF745F8A0EBFA
:101AC00009006528F5D3B3E7FFF73EF800F0B1F958
:101AD000C0F0EB80ACE7E86880B1396841F4807110
:101AE0003960FFF731F880463868410500F1C88059
:101AF000FFF72AF800F09DF9F6D399E7386820F44B
:101B0000807000F0AFF980463868410540F1BF8031
:101B1000FFF71AF800F08DF9F6D389E74008400086
:101B20007060FFF711F880467068810740F1C1804E
:101B3000FFF70AF800F07DF9F6D379E70528306859
:101B400006D140F004003060316841F0010105E049
:101B5000400840003060316821F004013160A8681D
:101B600041F2893968B1FEF7EFFF8246306881079C
:101B700000F1D580FEF7E8FFA0EB0A004845F5D359
:101B800056E7FEF7E1FF82463068810740F1C780E3
:101B9000FEF7DAFFA0EB0A004845F5D348E7FEF769
:101BA000D3FF00F046F9C0F0CF8041E74008400085
:101BB000B060FEF7C9FF8046B068810740F1C88079
:101BC000FEF7C2FF00F035F9F6D331E7FEF7BCFFB0
:101BD000001B0328C0F0F6802AE7FEF7B5FF001BC4
:101BE0000328C0F0198123E7386881010CD43868D4
:101BF00040F080703860F96841F08071F960FEF75C
:101C0000A3FF04463868810100F11081FEF79CFFB4
:101C1000001B0328F6D30BE70C2C1ED000F01FF995
:101C200004463868810140F1FC80FEF78DFF001BFF
:101C30000328F6D3FCE600F000F92878C1070ED59A
:101C4000082C05D00C2C08BFB8F1030F7FF403AFAC
:101C50003868810303D5686808B90120E7E028786F
:101C6000810714D5042C05D00C2C08BFB8F1020F45
:101C70007FF431AF3868410502D5E8680028ECD020
:101C80007868296920F0F85040EA01607860287887
:101C900001070ED56869002870683FF43FAF40F037
:101CA00001007060FEF750FF8046706881077FF585
:101CB0000BAF2878410739D5B86DC1004FF0000847
:101CC0000AD4B86D40F08050B8654FF00108B86D87
:101CD00000F0805000900098DFF80094D9F80000E0
:101CE000C10513D4D9F8000040F48070C9F8000091
:101CF000FEF72AFF8246D9F80000C10506D4FEF798
:101D000023FFA0EB0A000328F5D391E6A868012879
:101D10007FF414AF306840F0010030601FE7B8F185
:101D2000000F03D0B86D20F08050B8652878810688
:101D30000ED5686A0028B0683FF438AF40F0010063
:101D4000B060FEF701FF8046B06881077FF527AFDE
:101D5000A86A00286AD002287FF45EAFF868EA6AB1
:101D600000F00301914201BF00F070012A6B521E86
:101D7000B1EB021F1CD16A6B00F4FE41B1EB022FE4
:101D800002BF00F07841AA6BB1EBC26F10D1EA6BD1
:101D9000520800F4C001521EB1EB425F08D1296C19
:101DA000490800F0C060491EB0EB416F3FF41CAF22
:101DB0000C2C3FF452AF386841013FF54EAF00F0B4
:101DC0004EF80446386881013FF500AFFA68DFF845
:101DD0001013E86A0A40296B0243491E686B42EA05
:101DE0000112E96B490842EA0022286C491E4008AA
:101DF00042EA4152401E42EA4062A86B42EAC06297
:101E0000FA60396841F080713960F86840F080709C
:101E1000F860FEF799FE0446386881017FF5DDAE73
:101E200004E0FA68DFF8BC020240FA600020BDE876
:101E3000F687A0EB080003287047386840F00800D8
:101E400038603968286A21F0F00101433960796807
:101E5000E86921F47F4141EA0021796070473868E0
:101E600020F080703860FEF76FBE2DE9F04104006D
:101E7000884675D0DFF87062306800F00700404592
:101E800002D200F06FF86BD12078DFF83C52810766
:101E900006D5A068A96801F0F001814200F06CF855
:101EA0002078C1074AD56068032802D129688A01D1
:101EB00008E0022802D129688A0303E00028296883
:101EC00002D18A0702D44BE04A0549D5A96889089E
:101ED00040EA8100A860FEF737FE0746A8686168FF
:101EE00000F00C00B0EB810F28D0FEF72DFEC01BD8
:101EF00041F289318842F1D303201DE02078410767
:101F000005D5AA68E06822F4E0620243AA6021785D
:101F1000080706D5A968206921F4605141EAC0018B
:101F2000A96000F03AF8AA6800F02DF8BDE8F04189
:101F30006748006800F04CB9BDE8F081207881075F
:101F400006D5A068A96801F0F001884200F014F8F5
:101F5000306800F007008045D0D200F003F8CDD003
:101F60000120E9E73168C90848EAC10131603068F9
:101F700000F007004045704704D2A96821F0F00145
:101F80000843A86070475949C2F30312895C4F4A5D
:101F900001F01F01C8401060704770B54A4A554BA8
:101FA0009068D6680025002110F00C0006F00306AA
:101FB000514C03D00C2812D1012E1AD115682E07CE
:101FC00004D4444D2E68C6F3032502E01568C5F31A
:101FD00003154A4E56F8255048B9294624E00428EE
:101FE00008BF214620D008281ED119461CE00C2825
:101FF0001AD1D06800F00300022803D0032808BFDC
:102000001D4600E02546D168D068D268C0F306209E
:102010004543C1F30210C2F34161401C491CB5FBAA
:10202000F0F04900B0FBF1F1084670BD2748304A96
:10203000006813683249C3F3022206E023482C4AA1
:10204000006813682E49C3F3C222895C01F01F01A6
:10205000C84070477CB52B4E054630680024C1004F
:1020600002D5FFF747FC0EE0306840F0805030604A
:10207000316801F0805100910098FFF73BFC316816
:1020800021F080513160B0F5007F04D1802D0CD952
:10209000A12D09D304E0802D88BF032405D801D1E8
:1020A000022402E0702D00D101240F480168C90804
:1020B00044EAC1010160006800F00700A04201D0BD
:1020C000012076BD002076BD001002400C000020EB
:1020D0000800002094100240901002400070004060
:1020E0008C809D01FCFFEEFE0020024030240008A1
:1020F0000810024000127A000024F4002023000897
:10210000B4240008581002400901020002D42A48F1
:1021100081547047294B02F00F021A4402F8041C44
:102120007047274B19684FF6FF020002114000F478
:10213000E0600843234908431860704738B5204BD6
:102140001C68C4F30223C3F10704052C28BF042430
:102150001D1D072D34BF0023DB1E012505FA04F4E5
:10216000641E2140994005FA03F35B1E1A40114397
:10217000BDE83440C8E70000010007D4012200F0A8
:102180001F01114B8A40400943F82020704710B5C9
:10219000401EB0F1807F01D3012010BD0B4C606068
:1021A0000F214FF0FF30FFF7AFFF0021A1600720A4
:1021B0002060002010BD000000E400E018ED00E009
:1021C0000CED00E00000FA0500E100E010E000E0A6
:1021D00070B50E4E044630780025A0B14FF47A71E8
:1021E0000B4AB1FBF0F11068B0FBF1F0FFF7CFFF45
:1021F00048B9102C07D2002221464FF0FF30FFF7DC
:102200009DFFB46000E00125284670BD000000205D
:102210000C000020D3BBD9B1B2F5803F5BD2022ABB
:102220001ED98C46B1FBF2F102FB11C31B0443EA39
:102230001043B3FBF2FC02FB1C3380B240EA0343C1
:10224000B3FBF2F002FB103240EA0C40002370476F
:10225000022A05D98446B0FBF2F002FB10C2704797
:102260004AB105D100F0010249085FEA3000704729
:1022700000220023704700F051B80B00020000213B
:1022800000207047F7D3002200237047904271EB83
:10229000030CF2D370B5B1FA81F4B3FA83F52C1BB9
:1022A000A340C4F1200532FA05F63343A2405FF0A3
:1022B0000046E64002E05B085FEA3202841A71EBF6
:1022C000030524BF204629467641F4D302000B00C3
:1022D0003000002170BD70B5B1FA81F4B2FA82F518
:1022E000C4F120046419B4F12006DAD3B2405FF0DF
:1022F0000044F440002502E052085FEA3303C61AA6
:1023000071EB020E24BF3046714664416D41F3D338
:1023100002000B002000290070BD00007047000083
:10232000A0860100400D0300801A060000350C0055
:1023300040420F0080841E0000093D0000127A0018
:102340000024F40000366E010048E801006CDC0255
:1023500030B450F8041B79B1026843680244083075
:10236000DC0744BFA9F10104E31852F8045B43F809
:10237000045B091FF9D1ECE730BC704710B5074981
:1023800079441831064C7C44163404E00A68081D70
:10239000114488470146A142F8D110BD60000000F9
:1023A00080000000FEE7FEE7FEE7FEE7FEE770477D
:1023B0007047704700F008B84FF48070FEF7BDBC5E
:1023C0004FF40050FEF7B9BC0248416802788A1801
:1023D00042607047000000204EF68851CEF20001A6
:1023E000086840F470000860BFF34F8FBFF36F8F31
:1023F0004FF00070E1EE100A704700005FE7FFFF4A
:1024000058010000100000200000000045FFFFFF01
:102410001000000084000000000000200000000008
:102420000248016841F470010160704788ED00E0E6
:102430000000000000000000010203040607080974
:1024400000F00DF8002801D0FFF798FFAFF30080EF
:102450000020AFF30080FEF775FE00F002F80120C7
:10246000704700F001B800000746384600F002F857
:10247000FBE7000080B5AFF30080024A110018208E
:10248000ABBEFBE726000200014880470148004739
:1024900021240008A9240008010000000000000019
:1024A0001000000000093D00AFF30080FFF794FF2B
:1024B000FFF7C6FF0000000001020304FFF7FEBFA4
:1024C000FFF7FEBFFFF7FEBFFFF7FEBFFFF7FEBF40
:1024D000FFF7FEBFFFF7FEBFFFF7FEBFFFF7FEBF30
:1024E000FFF7FEBFFFF7FEBFFFF7FEBFFFF7FEBF20
:1024F000FFF7FEBFFFF7FEBFFFF7FEBFFFF7FEBF10
:10250000FFF7FEBFFFF7FEBFFFF7FEBFFFF7FEBFFF
:10251000FFF7FEBFFFF7FEBFFFF7FEBFFFF7FEBFEF
:10252000FFF7FEBFFFF7FEBFFFF7FEBFFFF7FEBFDF
:10253000FFF7FEBFFFF7FEBFFFF7FEBFFFF7FEBFCF
:10254000FFF7FEBFFFF7FEBFFFF7FEBFFFF7FEBFBF
:10255000FFF7FEBFFFF7FEBFFFF7FEBFFFF7FEBFAF
:10256000FFF7FEBFFFF7FEBFFFF7FEBFFFF7FEBF9F
:10257000FFF7FEBFFFF7FEBFFFF7FEBFFFF7FEBF8F
:10258000FFF7FEBFFFF7FEBFFFF7FEBFFFF7FEBF7F
:10259000FFF7FEBFFFF7FEBFFFF7FEBFFFF7FEBF6F
:1025A000FFF7FEBFFFF7FEBFFFF7FEBFFFF7FEBF5F
:0C25B000FFF7FEBFFFF7FEBFFFF7FEBF06
:04000005080024A922
:00000001FF
