:020000040800F2
:10000000F806002049260008BD240008BF24000887
:10001000C1240008C3240008C52400080000000013
:10002000000000000000000000000000C7240008DD
:10003000C924000800000000CB240008CD240008DB
:100040007D260008812600088526000889260008EC
:100050008D2600089126000895260008992600089C
:100060009D260008A1260008A5260008A92600084C
:10007000AD260008B1260008B5260008D1240008E6
:10008000D7240008DD240008B9260008BD26000892
:10009000C1260008C5260008C9260008CD2600088C
:1000A000D1260008D5260008D9260008DD2600083C
:1000B000E12600080000000000000000E52600081E
:1000C000E9260008ED260008F1260008F5260008BC
:1000D000F9260008E3240008E9240008FD260008AA
:1000E00001270008052700080000000000000000AC
:1000F0000000000000000000000000000000000000
:100100000000000009270008000000000D2700087B
:10011000000000000000000011270008152700085B
:10012000192700081D270008212700082527000897
:100130002927000800000000000000000000000067
:100140002D27000831270008352700083927000827
:100150003D270008412700084527000849270008D7
:100160004D2700085127000855270008000000000F
:10017000592700085D2700086127000800000000DB
:1001800065270008692700086D27000838B50400B6
:1001900009D004F17405696809B900F01EF800F08F
:1001A00021F8012801D1012032BD606A08B100F0B8
:1001B0002AF800F00AF821F02A01FFE7816000F038
:1001C0001BF8BDE8324000F066BB2068416821F4AE
:1001D0009041416020688168704700202870204667
:1001E00000F0F8BC242169602068026852085200BF
:1001F0000260204600F0F2B92068016841F0010178
:10020000016020467047204600F0E2BA2DE9FC4725
:10021000054605F17404884660682028174699460B
:1002200046D1B8F1000F14BF002F012041D0207833
:1002300001283DD0012121700020E0602122626070
:1002400005F1500600F08CFD378082467780A86863
:10025000B0F5805F04BF286900280EBF47464046BE
:1002600000270021217080460FE018F8012B02853D
:1002700008E02868B8F1000FF7D137F8021BC1F386
:10028000080101857088411E718053467088CDF841
:10029000009000280FD000228021284600F029FB82
:1002A0000028E6D0032004E020206060002000E069
:1002B0000220BDE8F68700224021284600F019FB05
:1002C0000028F1D0EEE738B500F011F80DD109B1F2
:1002D000140001D1012032BD0478012C05D000F0BA
:1002E0000CF8BDE8384000F055BB022032BD034693
:1002F00003F174008468202C7047012505700020EC
:100300001866DFF8A8441868A0420BD040680402C1
:1003100008D51C6854E8005F45F0806544E800504B
:100320000028F6D11846704723F0400344E8003017
:1003300000287047216851E8002F7047206800F1BD
:10034000080151E8001F490800F10802490042E88D
:10035000001000287047206800F1080151E8001FD4
:1003600000F1080221F0400142E800100028704727
:1003700042E8001000287047296851E8002F22F455
:10038000D07241E8002000287047F8B5044640F6D6
:100390000F002368D9691A689E68084004F158055F
:1003A0000BD1880600D5970640F17D80E9680029C9
:1003B00078D02046BDE8F4400847F00703D4DFF8C2
:1003C000F0733A426FD0C80707D5D70505D501208D
:1003D0001862AB6A43F00103AB62880708D5F307E4
:1003E00006D5276802203862A86A40F00400A86297
:1003F000480708D5F30706D5276804203862A86A9D
:1004000040F00200A86208070AD5930601D4F0075D
:1004100006D5266808233362A86A40F00800A8625F
:10042000080509D5530107D526684FF400603062EE
:10043000A86A40F02000A862A86A002832D0880686
:1004400005D5910603D5E96809B120468847A86A11
:1004500021688A68510602D410F0280F1DD020466A
:1004600000F0F1FA20688168480611D5FFF773FFA4
:10047000FCD1A86960B10FF221718163A86900F015
:100480002FFD00280ED0A869816BBDE8F440084715
:100490002046BDE8F24000F0C0BD204600F0BDFDA2
:1004A0000020A862F1BDA868012867D1C80665D5FB
:1004B000D70663D5102018622168886841062CD5BC
:1004C000A9690868406880B20028EBD02A88904269
:1004D000E8DA6880086801688A061AD4FFF72AFFFC
:1004E00022F48072FFF74DFFF8D1FFF727FFFCD110
:1004F000FFF731FFFCD1202068620021A960FFF7DF
:1005000019FF22F01002FFF73CFFF8D1A86900F0B4
:10051000C4FC29886888091A2AE02A8869886888BA
:10052000511A00281CBF88B2002851D0226852E816
:10053000003F23F4907342E800300028F6D1206891
:1005400000F047F8520800F10803520043E8002089
:100550000028F4D1202068620022AA60EA602268A4
:1005600052E8003F23F0100342E800300028F6D1A3
:100570002046BDE8F44089B200F050BDC80209D55C
:10058000760207D54FF4801018622046BDE8F2408D
:1005900000F045BD080607D5130605D52969B9B190
:1005A0002046BDE8F4400847480611D551060FD54E
:1005B000FFF7C0FE22F04002FFF7E3FEF8D1202053
:1005C0002862002129612046BDE8F24000F028BDE4
:1005D000F1BD00F1080252E8002F7047F8B504465B
:1005E00074482268744F1368A168034020690B4364
:1005F00061690343E0690B430343136000255168BD
:10060000E06821F4405101435160A36967498A427F
:100610001CBF206A03439668684826F4306633435B
:100620009360BA424FF40043654E2FD1366806F00E
:100630000306032E37D8DFE806F0026F5C7101274E
:10064000E169B1F5004F4FF6F07640F0868047B192
:10065000012F7AD0022F08D0042F79D0082F7AD01A
:100660009DE001F053F800280FD061684A0802EBC2
:100670004002B2FBF1F0A0F11001B142F0D206400D
:10068000C0F3420006432068C66089E04D4FBA427D
:1006900021D1366816F00C063CD0042E3CD0082E32
:1006A00027D00C2E3AD010278A42C9D137B1022F59
:1006B00008D0042F34D0082F35D070E001F026F890
:1006C00000286DD0626802EB4201884267D31303B1
:1006D00083422AD263E03C4FBA420CD1366816F00E
:1006E000300617D0102E17D0202E02D0302E15D065
:1006F000D9E70227D8E78A42D5D1366816F4406692
:1007000008D0B6F5806F07D0B6F5006FF1D0B6F51A
:10071000406FECE70027C7E70427C5E70827C3E7D2
:1007200000F0ABFFCCE71846CCE7010E560816EBFD
:1007300000206941002301F057F8A0F54071234AD9
:1007400091422CD22168C8602AE000F0E7FF8AE7D6
:1007500000F093FF87E7184687E747B1012F16D0CF
:10076000022F07D0042F15D0082F16D017E000F065
:10077000CDFFA8B1616800EB5100B0FBF1F0A0F132
:100780001001B1420BD2226880B2D06008E000F0C4
:10079000C5FFEEE700F071FFEBE71846EAE7012539
:1007A00000206066A0662846F2BD00000080004080
:1007B00020010004F369FFEF003801400024F40039
:1007C00088100240004400400048004000FD0F0037
:1007D00090F82410CA0706D502685368816A23F48A
:1007E00000330B43536090F824108A0706D5026843
:1007F0005368C16A23F480330B43536090F824108C
:100800004A0706D502685368016B23F480230B4323
:10081000536090F824100A0706D502685368416BAC
:1008200023F400430B43536090F82410CA0606D506
:1008300002689368816B23F480530B43936090F8B4
:1008400024108A0606D502689368C16B23F400530E
:100850000B43936090F824104A0610D50268536841
:10086000016C23F480130B435360036CB3F5801FBA
:1008700005D15368416C23F4C0030B43536090F8D7
:1008800024100A0606D501684A68806C22F400220A
:1008900002434A607047F8B5044604F1740500202D
:1008A000E8606FF07E4700F05BFA0646206801685A
:1008B0000A0708D50097334600224FF4001120465E
:1008C00000F017F860B9206801684A070AD5009758
:1008D000334600224FF48001204600F00AF808B1A8
:1008E0000320F2BD20206860A860002020662870E8
:1008F000F2BD2DE9F041069C05460E4690461F4686
:100900002868C1693140B1420CBF01200020404538
:100910002AD114F1010FF3D000F022FAC01B844257
:1009200000D354B9FFF728FDFCD100F026F8FCD124
:1009300000F01DF80021017014E0286801684A07E2
:10094000DED5C1690A05DBD54FF400610162FFF70E
:1009500013FDFCD100F011F8FCD100F008F8C160E3
:1009600000220270032000E00020BDE8F08105F1C4
:1009700074002021416081607047286800F10801FF
:1009800051E8001F490800F10802490042E8001040
:100990000028704770B5044604F158051346616598
:1009A0002B800020A86222216962A869E8B10FF2B9
:1009B000E901C1620FF27910A9690863A9690FF210
:1009C000891048630020A96988632668626DA86958
:1009D00006F1240100F02CFA38B11020A8620021A1
:1009E000297720206862012070BD002129772069C5
:1009F00030B1FFF79FFC42F48072FFF7C2FCF8D1E0
:100A000000F00DF841F00101FFF7B2FCF8D100F061
:100A100006F841F04001FFF7ABFCF8D170BD20684B
:100A200000F1080151E8001F00F108027047026858
:100A300052E8003F23F0C00342E800310029F6D11C
:100A4000202181677047026852E8003F23F49073C9
:100A500042E800310029F6D1016801F1080252E8AC
:100A6000002F520801F10803520043E80021002939
:100A7000F2D1016E012908D1026852E8003F23F04B
:100A8000100342E800310029F6D12021C16700227D
:100A9000026642667047000010B5826A006803680B
:100AA0009C0602F1580121D400204880136800F010
:100AB0002BF8FBD1106800F02FF8FBD1106800F183
:100AC000080353E8003F00F10804FFF72DFCF5D1BF
:100AD000202048628B68012B08D1136853E8004F2F
:100AE00024F0100443E800400028F6D18B68012B65
:100AF00005D10988BDE81040104600F08FBABDE866
:100B00001040104600F063BF53E8004F24F4807497
:100B100043E800400028704700F1080353E8003F15
:100B20005B0800F108045B0044E8003000287047CF
:100B3000806A00F158018A68012A18BF01F0B6B82E
:100B40000988490800F06ABAF8B5846A04F17805A2
:100B500004F1520728686E6821688A68110606D574
:100B6000212804D1002038802046FFF760FF21684B
:100B70008868410606D5222E04D1002038812046FF
:100B8000FFF761FFA86840F01000A8602046BDE8AC
:100B9000F24000F042BA0000806A00F152010022E7
:100BA0000A810A8000F039BA654881B0816841F055
:100BB00001018160816801F00101009100990268E2
:100BC00042F080520260006800F08050009000986F
:100BD00001B07047F8B59EB004466846142101F094
:100BE00067F806A8602101F063F820685549564E61
:100BF000564F88424FF4405535D1012200210692CC
:100C00000E9106A801F058F808B101F032F87869A1
:100C100040F480407861786900F4804000F077F813
:100C20004FF4C0613A684A4F00F078F802207860CB
:100C300000210020F8607861B861B960202080212F
:100C4000F86139613E603D62384600F08FF808B1C6
:100C500001F00FF82767BC6200220021252001F077
:100C60001FFA25204FE03B4988424ED10222002145
:100C700006920F9106A801F01FF808B100F0F9FFE5
:100C8000F86840F40030F860F86800F4003000F0D4
:100C90003EF80C213A68304F00F040F806F1280089
:100CA000386002210020F8607861B8617960202006
:100CB00010228021F861BA6039613D62384600F047
:100CC00055F808B100F0D5FF0221E766BC6206F1D5
:100CD0001400224D6960286000228021AA60EA6029
:100CE00029616A61AA61EA612A62284600F03EF839
:100CF00008B100F0BEFF2567AC620022002126206B
:100D000001F0CEF9262001F0E9F91FB0F0BD059001
:100D10000598396841F001013960704702F001021D
:100D2000059202220598009101920021029103226E
:100D300007210491039269464FF0904001F0FAB9FF
:100D40005810024000380140580002404C10024048
:100D50001C0200200044004064020020AC0200207D
:100D600001484068704700BF00000020F0B508B996
:100D70000120F0BD0568274E274CB54200F1240341
:100D800008D226494A191427B2FBF7F292001A62D8
:100D9000DC6108E022494A191426B2FBF6F29200FF
:100DA00020491A62D96102225A702E688168C2688D
:100DB0006FF30E160E430169164342690E438169B3
:100DC0001643C2690E43016A16430E432E608268C1
:100DD000B2F5804F17D0DA690F21A2420CBF124A38
:100DE000124A146893F8205005F01C05A94024EA23
:100DF00001011160116893F82040406804F01C0460
:100E0000A0400143116000209861012159701870C1
:100E1000F0BD00000804024000000240F8FFFDBFE2
:100E2000F8FBFDBF00040240A8000240A8040240F5
:100E3000F8B5044604F1240600253078012801D1D4
:100E40000220F2BD012030707778012F21D10220DD
:100E50007070B561206807687F087F0007602046D2
:100E600000F0C7F82168F06820B10A6842F00E026D
:100E70000A6008E0086820F0040008602068016843
:100E800041F00A0101602068016841F00101016040
:100E900001E0357002252846F2BD00F124014A78B0
:100EA000022A05D00420886100220A7001207047C0
:100EB0000268136823F00E0313600068026852088A
:100EC00052000260012091F82020CB6902F01C0240
:100ED000904058600022012048700A70002070473E
:100EE00038B500F1240100244A78022A03D00420F6
:100EF0008861012417E00268136823F00E03136071
:100F0000026815686D086D001560012291F82030A7
:100F1000CD6903F01C039A406A6001224A700C708C
:100F2000496901B18847204632BDF8B500F1240176
:100F30000423CA6914680268156891F8206006F0F5
:100F40001C0603FA06F73C4210D06F070ED5146852
:100F5000A50603D4146824F00404146000F03AF8E1
:100F6000C968002935D0BDE8F4400847022303FAD8
:100F700006F73C4213D0AF0711D51468A50605D477
:100F8000146824F00A04146001224A7000F022F868
:100F900000220A708968E1B1BDE8F44008470823DF
:100FA00003FA06F6344214D02B0712D5146824F045
:100FB0000E041460012200F015F89A4062600122CC
:100FC0008A614A7000220A70096911B1BDE8F440D3
:100FD0000847F1BD91F82020CC6902F01C02934033
:100FE0006360704791F82030CC6903F01C037047B0
:100FF000000070B590F84450066C012405F01C0503
:10100000AC407460046863608068102802D1A260FC
:10101000E16070BDA160E26070BD704770477047CD
:10102000704730B4002513E050F8042BD30744BFB9
:10103000A9F101039A18091F042942F8045BFAD2A6
:1010400013468C0744BF15809B1CC90748BF1D7001
:1010500050F8041B0029E7D130BC70472DE9FC474C
:10106000050017D0DFF84077DFF84C67BC68F868F8
:1010700000F003082878C10604F00C0452D524B10E
:101080000C2C08BFB8F1010F2FD13868810703D5A8
:10109000A869002800F05181396808074EBF3968F7
:1010A00071680909286A01F0F001814206D200F056
:1010B00041FB002809D100F030FA08E000F02DFAD9
:1010C0002CB9286A00F036FB002840F0368100F089
:1010D000D4FABA6800F0C7FADFF8D406006801F065
:1010E0000BF9010000F0198111E2A86990B139688B
:1010F00041F001013960FFF733FE8146386881070E
:1011000000F10981FFF72CFEA0EB09000328F5D3BD
:101110000320FCE138684008400000F013FA8146E3
:101120003868810740F1F980FFF71AFEA0EB09004B
:101130000328F5D3ECE76868B0F5803F04D1386840
:1011400040F48030386011E0B0F5A02F386806D147
:1011500040F480203860396841F4803105E020F4A3
:1011600080303860396821F480213960686868B15E
:10117000FFF7F6FD81463868810300F1E080FFF754
:10118000EFFDA0EB09006528F5D3C1E7FFF7E8FD07
:1011900081463868810340F1D280FFF7E1FDA0EB82
:1011A00009006528F5D3B3E7FFF7DAFD00F0B1F9E0
:1011B000C0F0EB80ACE7E86880B1396841F4807139
:1011C0003960FFF7CDFD80463868410500F1C880E1
:1011D000FFF7C6FD00F09DF9F6D399E7386820F4D3
:1011E000807000F0AFF980463868410540F1BF805B
:1011F000FFF7B6FD00F08DF9F6D389E7400840000F
:101200007060FFF7ADFD80467068810740F1C180D6
:10121000FFF7A6FD00F07DF9F6D379E705283068E1
:1012200006D140F004003060316841F0010105E072
:10123000400840003060316821F004013160A86846
:1012400041F2893968B1FFF78BFD8246306881072A
:1012500000F1D580FFF784FDA0EB0A004845F5D3E7
:1012600056E7FFF77DFD82463068810740F1C78071
:10127000FFF776FDA0EB0A004845F5D348E7FFF7F6
:101280006FFD00F046F9C0F0CF8041E74008400014
:10129000B060FFF765FD8046B068810740F1C88007
:1012A000FFF75EFD00F035F9F6D331E7FFF758FDA3
:1012B000001B0328C0F0F6802AE7FFF751FD001B52
:1012C0000328C0F0198123E7386881010CD43868FD
:1012D00040F080703860F96841F08071F960FFF784
:1012E0003FFD04463868810100F11081FFF738FDA9
:1012F000001B0328F6D30BE70C2C1ED000F01FF9BF
:1013000004463868810140F1FC80FFF729FD001B8D
:101310000328F6D3FCE600F000F92878C1070ED5C3
:10132000082C05D00C2C08BFB8F1030F7FF403AFD5
:101330003868810303D5686808B90120E7E0287898
:10134000810714D5042C05D00C2C08BFB8F1020F6E
:101350007FF431AF3868410502D5E8680028ECD049
:101360007868296920F0F85040EA016078602878B0
:1013700001070ED56869002870683FF43FAF40F060
:1013800001007060FFF7ECFC8046706881077FF514
:101390000BAF2878410739D5B86DC1004FF0000870
:1013A0000AD4B86D40F08050B8654FF00108B86DB0
:1013B00000F0805000900098DFF80094D9F8000009
:1013C000C10513D4D9F8000040F48070C9F80000BA
:1013D000FFF7C6FC8246D9F80000C10506D4FFF726
:1013E000BFFCA0EB0A000328F5D391E6A86801280A
:1013F0007FF414AF306840F0010030601FE7B8F1AF
:10140000000F03D0B86D20F08050B86528788106B1
:101410000ED5686A0028B0683FF438AF40F001008C
:10142000B060FFF79DFC8046B06881077FF527AF6D
:10143000A86A00286AD002287FF45EAFF868EA6ADA
:1014400000F00301914201BF00F070012A6B521EAF
:10145000B1EB021F1CD16A6B00F4FE41B1EB022F0D
:1014600002BF00F07841AA6BB1EBC26F10D1EA6BFA
:10147000520800F4C001521EB1EB425F08D1296C42
:10148000490800F0C060491EB0EB416F3FF41CAF4B
:101490000C2C3FF452AF386841013FF54EAF00F0DD
:1014A0004EF80446386881013FF500AFFA68DFF86E
:1014B0001013E86A0A40296B0243491E686B42EA2E
:1014C0000112E96B490842EA0022286C491E4008D3
:1014D00042EA4152401E42EA4062A86B42EAC062C0
:1014E000FA60396841F080713960F86840F08070C6
:1014F000F860FFF735FC0446386881017FF5DDAE02
:1015000004E0FA68DFF8BC020240FA600020BDE89F
:10151000F687A0EB080003287047386840F0080001
:1015200038603968286A21F0F00101433960796830
:10153000E86921F47F4141EA002179607047386809
:1015400020F080703860FFF70BBC2DE9F0410400FB
:10155000884675D0DFF87062306800F007004045BB
:1015600002D200F06FF86BD12078DFF83C5281078F
:1015700006D5A068A96801F0F001814200F06CF87E
:101580002078C1074AD56068032802D129688A01FA
:1015900008E0022802D129688A0303E000282968AC
:1015A00002D18A0702D44BE04A0549D5A9688908C7
:1015B00040EA8100A860FFF7D3FB0746A86861688E
:1015C00000F00C00B0EB810F28D0FFF7C9FBC01B67
:1015D00041F289318842F1D303201DE02078410790
:1015E00005D5AA68E06822F4E0620243AA60217887
:1015F000080706D5A968206921F4605141EAC001B5
:10160000A96000F03AF8AA6800F02DF8BDE8F041B2
:101610006748006800F070BEBDE8F081207881075F
:1016200006D5A068A96801F0F001884200F014F81E
:10163000306800F007008045D0D200F003F8CDD02C
:101640000120E9E73168C90848EAC1013160306822
:1016500000F007004045704704D2A96821F0F0016E
:101660000843A86070475949C2F30312895C4F4A86
:1016700001F01F01C8401060704770B54A4A554BD1
:101680009068D6680025002110F00C0006F00306D3
:10169000514C03D00C2812D1012E1AD115682E07F7
:1016A00004D4444D2E68C6F3032502E01568C5F343
:1016B00003154A4E56F8255048B9294624E0042817
:1016C00008BF214620D008281ED119461CE00C284E
:1016D0001AD1D06800F00300022803D0032808BF05
:1016E0001D4600E02546D168D068D268C0F30620C8
:1016F0004543C1F30210C2F34161401C491CB5FBD4
:10170000F0F04900B0FBF1F1084670BD2748304ABF
:10171000006813683249C3F3022206E023482C4ACA
:10172000006813682E49C3F3C222895C01F01F01CF
:10173000C84070477CB52B4E054630680024C10078
:1017400002D500F0FBFD0EE0306840F080503060C4
:10175000316801F080510091009800F0EFFD316890
:1017600021F080513160B0F5007F04D1802D0CD97B
:10177000A12D09D304E0802D88BF032405D801D111
:10178000022402E0702D00D101240F480168C9082D
:1017900044EAC1010160006800F00700A04201D0E6
:1017A000012076BD002076BD001002400C00002014
:1017B0000800002094100240901002400070004089
:1017C0008C809D01FCFFEEFE00200240F025000809
:1017D0000810024000127A000024F40014250008CA
:1017E0007426000858100240D3BBD9B1B2F5803F2F
:1017F0005BD2022A1ED98C46B1FBF2F102FB11C367
:101800001B0443EA1043B3FBF2FC02FB1C3380B21F
:1018100040EA0343B3FBF2F002FB103240EA0C4013
:1018200000237047022A05D98446B0FBF2F002FB80
:1018300010C270474AB105D100F0010249085FEAC1
:101840003000704700220023704700F0BBBD0B0042
:101850000200002100207047F7D3002200237047C8
:10186000904271EB030CF2D370B5B1FA81F4B3FA84
:1018700083F52C1BA340C4F1200532FA05F633434F
:10188000A2405FF00046E64002E05B085FEA3202F9
:10189000841A71EB030524BF204629467641F4D310
:1018A00002000B003000002170BD70B5B1FA81F468
:1018B000B2FA82F5C4F120046419B4F12006DAD337
:1018C000B2405FF00044F440002502E052085FEAB5
:1018D0003303C61A71EB020E24BF304671466441D1
:1018E0006D41F3D302000B002000290070BD000001
:1018F00000F5807100220A7000234A70CA708B7054
:101900004FF48072002100F05EBD000030B585B05C
:1019100004466846D8A1112200F060FD2509C6489A
:101920001DF80520027004F00F041DF8041041702A
:1019300005B030BD70B506460025012006F580745F
:1019400002E0715C4D40401C2278C1B2521F9142AE
:10195000F7DBE8B2FFF7DAFF2078B7490B783044BD
:1019600010F8042D9A4202BF40784978884204BF9B
:101970000120E070E8B270BDB04901F580721378C3
:10198000C8541178491C11700D28AD490B7808BF57
:10199000012307D0012B08BF0A2803D1012000230F
:1019A000907053700B707047242800D0704710B5AA
:1019B000A24C2046FFF79CFF04F5807001210378BC
:1019C00041702422E2540178491C017010BD38B5E1
:1019D00000689C499C4C88420BD1984890F80111B2
:1019E0002578012904BF2846FFF7C6FF2846FFF7E0
:1019F000DBFF2146BDE8384001229448FEF763BC76
:101A0000F8B500F0F7FC00F07AF800F0B3F8904871
:101A1000904C016841F0010101600022006800F073
:101A200001000090002100980F2000F039FB0F20EA
:101A300000F054FB00220021102000F031FB1020A8
:101A400000F04CFB00220021112000F029FB1120A6
:101A500000F044FB8048206000210C2060614FF4BE
:101A6000E135A160E1602161A161E1612162616212
:101A700065602046FEF78AFB08B100F0FAF8734E65
:101A80007048306000210C207061B160F1603161FC
:101A9000B161F1613162716275603046FEF776FBCB
:101AA00008B100F0E6F8654D2846FFF721FF6423F2
:101AB0005FF00A0275A12046FEF7A8FB01226249E9
:101AC0003046FEF700FC00BF72A605F5807707E000
:101AD00064231E2231462046FEF798FB0020B87092
:101AE000B8780128FCD12846FFF724FFF8780128B0
:101AF000EED13878421E642392B22946EBE780B5D6
:101B000096B005A8442100F0D3F86846142100F0EF
:101B1000CFF84FF4007000F017FC08B100F0A9F8FE
:101B200002214FF48072059108921021022209913E
:101B30000F9210920A210122119212910722022182
:101B400013921491159105A8FFF788FA08B100F0D7
:101B500090F80F200321009001910022029203923D
:101B6000049204216846FFF7F0FC08B100F081F808
:101B700017B000BD38B586B06846142100F098F85B
:101B80003648046844F0040404604FF400550168CA
:101B9000334C01F0040105910599026842F080027E
:101BA0000260036803F0800305930599026842F020
:101BB00001020260036803F00103059305990268BE
:101BC00042F0020202600022006800F0020005906C
:101BD000B02105984FF0904000F07AFB00224FF4BE
:101BE0000051204600F074FB4FF48811019100224F
:101BF0000292009569461B4800F09CFAB0210091C2
:101C00000122002102910391019200F02DF8402061
:101C10000021009001910122029200F025F801209C
:101C2000019000220292039200956946204600F03E
:101C300081FA07B030BD0000F4020020100000203F
:101C4000F702002000380140F602002014010020B5
:101C50004810024098010020004400404C1002400F
:101C6000000400480008004869464FF0904000F02A
:101C700061BA72B6FEE700003031323334353637A0
:101C80003839414243444546000000006865656CB0
:101C90006F0D0A00436865636B2053756D204572B4
:101CA000726F722121210D0A0000000070470000B0
:101CB000002200F0B5BB00002DE9FC4705460024DA
:101CC0002868DFF88C630105A1461BD5686C58B104
:101CD000B0F5000F03D0B0F5400F09D010E0326826
:101CE00042F48032326004E0002100F02AF9044618
:101CF0003CB9F16F686C21F440010143F16701E0E8
:101D00000124A146286881032BD5F06CC1004FF057
:101D100000080AD4F06C40F08050F0644FF00108E5
:101D2000F06C00F0805000900098DFF8287338685D
:101D300040F480703860FFF713F882463868C105B8
:101D400000F1D180FFF70CF8A0EB0A000328F5D3CF
:101D50000324A146B8F1000F03D0F06C20F08050AE
:101D6000F0642878C10705D5F26F286A920840EA26
:101D70008202F2672978880705D5F16F686A21F039
:101D80000C010143F1672978480705D5F16FA86A6E
:101D900021F030010143F1672978880605D5F16FFC
:101DA000E86A21F440610143F1672968880505D597
:101DB000F16FE86B21F440210143F1672968480580
:101DC00005D5F16F286C21F440110143F1672978A2
:101DD000480605D5F16F286B21F440510143F167A6
:101DE0002978080605D5F16F686B21F4404101435D
:101DF000F1672968C80505D5F16FA86B21F440315A
:101E00000143F167296888041ED5F16FA86C21F0A1
:101E100040610143F167A86CB0F1006F0CD100F094
:101E20008AF811E0FEF79CFF001B41F289318842DD
:101E300076D34FF003098DE7B0F1806F04D100F045
:101E40007FF8010018BF81462868010314D5F26F9E
:101E5000E86C22F040620243F267E86CB0F1006F78
:101E600002D100F068F807E0B0F1806F04D100F013
:101E700067F8010018BF81462868410314D5F26F46
:101E8000286D22F040620243F267286DB0F1006FC6
:101E900002D100F050F807E0B0F1806F04D100F0FB
:101EA0004FF8010018BF8146286841040FD5F26F32
:101EB000686D22F040520243F267696DB1F1805FB4
:101EC00005D1022100F03DF8010018BF81462868C5
:101ED000010405D5F26FA86D22F080420243F2673B
:101EE0004846BDE8F687002C7FF433AFDFF8687111
:101EF000386810F440701CBFE96D88420BD0386818
:101F0000396841F48031396020F440703A6822F435
:101F100080323A603860C00706D5FEF721FF0446DC
:101F2000386881077FF57EAF3A68E86D22F4407229
:101F300002433A600EE7306840F48010306070472A
:101F40000121281DFFE72DE9F0410746434E38687F
:101F50000C46F168002511F0030F0DD0F16801F077
:101F60000301814237D1B0B3F0687968C0F3021041
:101F7000401C884213D02EE0012804D02BD3032824
:101F800023D01ED327E03268910724D5F268796800
:101F900022F073021043491E40EA0110F0603068DD
:101FA00020F080603060FEF7DBFE80463068010183
:101FB00034D5FEF7D5FEA0EB08000328F6D30325A1
:101FC0003CE031684A05E1D405E031688A03DDD49C
:101FD00031684A03DAD4012530E0012C326906D198
:101FE0003B691F4800F02DF841EA435105E07B6949
:101FF0001C4800F026F841EA43613161306840F046
:1020000080603060FEF7ACFE04463068010111D4F8
:10201000FEF7A6FE001B0328F7D3D0E7B968002C13
:10202000DBD132691048FB68024042EA012141EAF3
:10203000C361E2E73169B869014331612846BDE80F
:10204000F08102405B0842EA01215B1E70470000FC
:102050000C1002400070004090100240001002403E
:10206000FF809FFFFF80FFF9FF80FF07090102004B
:1020700002D42A4881547047294B02F00F021A44B7
:1020800002F8041C7047274B19684FF6FF02000244
:10209000114000F4E060084323490843186070478A
:1020A00038B5204B1C68C4F30223C3F10704052C88
:1020B00028BF04241D1D072D34BF0023DB1E01256E
:1020C00005FA04F4641E2140994005FA03F35B1EEF
:1020D0001A401143BDE83440C8E70000010007D4AE
:1020E000012200F01F01114B8A40400943F82020D3
:1020F000704710B5401EB0F1807F01D3012010BDA4
:102100000B4C60600F214FF0FF30FFF7AFFF002155
:10211000A16007202060002010BD000000E400E066
:1021200018ED00E00CED00E00000FA0500E100E031
:1021300010E000E02DE9F84F0026684A0F238046A2
:102140000D4634E0664CA04514BF072404248C409F
:1021500044EA0E044CF82740C74362498C6807EAFA
:10216000040C6C68E40248BF40EA0C0CC1F808C0DB
:10217000CC6807EA040C6C68A40248BF40EA0C0C67
:10218000C1F80CC04C6807EA040C6C68A40348BF93
:1021900040EA0C0CC1F804C00C6807EA040C6F6834
:1021A000FC0348BF40EA0C0CC1F800C0761C29684B
:1021B00031FA06F000F08A80012000FA06FE1EEADD
:1021C0000100F3D077000321B9406FEA010C696880
:1021D00001F00304012C1CBF01F00301022913D1FB
:1021E000D8F80810EC680CEA0101BC402143C8F89B
:1021F0000810D8F8041021EA0E046968C1F3001130
:10220000B1402143C8F80410B1002C7904F0030454
:10221000032C21D0D8F80C400CEA040EAC68BC406A
:1022200044EA0E04C8F80C402C7904F00304022C94
:1022300012D1F40808EB840E01F01C09DEF82040EE
:10224000D5F810B003FA09FA24EA0A040BFA09F9DE
:1022500049EA0404CEF82040D8F8004095F804E09C
:102260000EF0030E0CEA04040EFA07F72743C8F831
:1022700000706F6817F4403F98D01768DFF868C0A7
:1022800047F00107176001F00C01146804F0010425
:10229000009403FA01FE009FB7085CF8274024EA87
:1022A0000E0EB8F1904F08BF00240ED00F4CA04581
:1022B00008BF012409D00E4CA04508BF022404D059
:1022C0000C4CA0457FF43EAF032440E7BDE8F18FFE
:1022D0000AB181617047816270470000601002405E
:1022E00000100048000401400800014000040048BC
:1022F00000080048000C004870B50E4E04463078C7
:102300000025A0B14FF47A710B4AB1FBF0F11068CF
:10231000B0FBF1F0FFF7EDFE48B9102C07D2002218
:1023200021464FF0FF30FFF7BBFEB46000E001250F
:10233000284670BD000000200C000020DFF8780067
:10234000006800F4C060704710B5DFF86C10B0F59D
:10235000007F086800F4C06015D1B0F5007F1BD085
:102360000868DFF85820DFF8584020F4C06040F4D7
:10237000007000F018F84A6953050FD5002818BFFF
:10238000401EF8D10AE0B0F5806F05D0086820F44F
:10239000C06040F480600860002010BD48694105BD
:1023A000FAD5032010BD0860322013684343B3FB05
:1023B000F4F0401C70470000007000400C0000204A
:1023C00040420F00704710B5044610460A460146C9
:1023D000204600F03FF8204610BD00004AB1000042
:1023E00011F8013B521E00F8013B1CBF11F8013BE4
:1023F000F8E77047094810B5016841F48071016041
:102400000320FFF740FE0020FFF776FF002400289E
:1024100014BF0124FEF7C8FB204610BD0020024077
:1024200000B500BF130096469446103928BFA0E8B7
:102430000C50FAD85FEA417C28BF0CC048BF40F876
:10244000042BC90728BF20F8022B48BF00F8012B36
:1024500000BD000062F30F2262F31F42401810F02B
:10246000030308D0C91A1FD3DB0748BF00F8012DAA
:1024700028BF20F8022D130030B414461546103939
:1024800028BF20E93C00FAD8490728BF20E90C0002
:1024900048BF40F8042D890028BF20F8022D48BF0E
:1024A00000F8012D30BC7047C91818BF00F8012D85
:1024B000CB0728BF00F8012D70470000FEE7FEE7BC
:1024C000FEE7FEE7FEE770477047704700F01AB876
:1024D0000748FEF72ABD0748FEF727BD0648FEF766
:1024E00024BD0648FDF751BF0548FDF74EBF00006B
:1024F0001C020020AC020020640200201401002015
:10250000980100200248416802788A1842607047AA
:1025100000000020A0860100400D0300801A060084
:1025200000350C0040420F0080841E0000093D0071
:1025300000127A000024F40000366E010048E80121
:10254000006CDC0230B450F8041B79B102684368B7
:1025500002440830DC0744BFA9F10104E31852F833
:10256000045B43F8045B091FF9D1ECE730BC70470A
:1025700010B5074979441831064C7C44163404E000
:102580000A68081D114488470146A142F8D110BDD0
:102590002C0000004C0000004EF68851CEF20001E5
:1025A000086840F470000860BFF34F8FBFF36F8F6F
:1025B0004FF00070E1EE100A7047000067EAFFFF7D
:1025C000E8020000100000200000000079FFFFFF7B
:1025D0001000000084000000000000200000000047
:1025E0000248016841F470010160704788ED00E025
:1025F00000000000000000000102030406070809B3
:1026000000F00DF8002801D0FFF7B2FFAFF3008013
:102610000020AFF30080FFF7F3F900F002F801208B
:10262000704700F001B800000746384600F002F895
:10263000FBE7000080B5AFF30080024A11001820CC
:10264000ABBEFBE726000200014880470148004777
:10265000E1250008692600080100000000000000D4
:102660001000000000093D00AFF30080FFF794FF69
:10267000FFF7C6FF0000000001020304FFF7FEBFE2
:10268000FFF7FEBFFFF7FEBFFFF7FEBFFFF7FEBF7E
:10269000FFF7FEBFFFF7FEBFFFF7FEBFFFF7FEBF6E
:1026A000FFF7FEBFFFF7FEBFFFF7FEBFFFF7FEBF5E
:1026B000FFF7FEBFFFF7FEBFFFF7FEBFFFF7FEBF4E
:1026C000FFF7FEBFFFF7FEBFFFF7FEBFFFF7FEBF3E
:1026D000FFF7FEBFFFF7FEBFFFF7FEBFFFF7FEBF2E
:1026E000FFF7FEBFFFF7FEBFFFF7FEBFFFF7FEBF1E
:1026F000FFF7FEBFFFF7FEBFFFF7FEBFFFF7FEBF0E
:10270000FFF7FEBFFFF7FEBFFFF7FEBFFFF7FEBFFD
:10271000FFF7FEBFFFF7FEBFFFF7FEBFFFF7FEBFED
:10272000FFF7FEBFFFF7FEBFFFF7FEBFFFF7FEBFDD
:10273000FFF7FEBFFFF7FEBFFFF7FEBFFFF7FEBFCD
:10274000FFF7FEBFFFF7FEBFFFF7FEBFFFF7FEBFBD
:10275000FFF7FEBFFFF7FEBFFFF7FEBFFFF7FEBFAD
:10276000FFF7FEBFFFF7FEBFFFF7FEBFFFF7FEBF9D
:040000050800266960
:00000001FF
