:020000040800F2
:1000000098040020B11900088D1900088F19000804
:1000100091190008931900089519000800000000C4
:100020000000000000000000000000009719000818
:1000300099190008000000009B1900089D1900088C
:10004000E5190008E9190008ED190008F119000880
:10005000F5190008F9190008FD190008011A00082F
:10006000051A0008091A00080D1A0008111A0008DC
:10007000151A0008191A00081D1A0008211A00088C
:10008000251A0008291A00082D1A0008311A00083C
:10009000351A0008391A00083D1A0008411A0008EC
:1000A000451A0008491A00084D1A0008511A00089C
:1000B000551A00080000000000000000591A00084E
:1000C0005D1A0008611A0008651A0008691A00081C
:1000D0006D1A0008711A0008751A0008791A0008CC
:1000E0007D1A0008811A00080000000000000000CE
:1000F0000000000000000000000000000000000000
:1001000000000000851A000800000000891A00089D
:1001100000000000000000008D1A0008911A00087D
:10012000951A0008991A00089D1A0008A11A0008DB
:10013000A51A0008000000000000000000000000F8
:10014000A91A0008AD1A0008B11A0008B51A00086B
:10015000B91A0008BD1A0008C11A0008C51A00081B
:10016000C91A0008CD1A0008D11A000800000000C2
:10017000D51A0008D91A0008DD1A0008000000008E
:10018000E11A0008E51A0008E91A00082DE9FC4701
:10019000050017D0DFF84077DFF84C67BC68F868D7
:1001A00000F003082878C10604F00C0452D524B1ED
:1001B0000C2C08BFB8F1010F2FD13868810703D587
:1001C000A869002800F05181396808074EBF3968D6
:1001D00071680909286A01F0F001814206D200F035
:1001E00041FB002809D100F030FA08E000F02DFAB8
:1001F0002CB9286A00F036FB002840F0368100F068
:10020000D4FABA6800F0C7FADFF8D406006800F044
:1002100083FB010000F0198111E2A86990B13968EF
:1002200041F00101396000F099FB8146386881078F
:1002300000F1098100F092FBA0EB09000328F5D33F
:100240000320FCE138684008400000F013FA8146C2
:100250003868810740F1F98000F080FBA0EB0900CD
:100260000328F5D3ECE76868B0F5803F04D138681F
:1002700040F48030386011E0B0F5A02F386806D126
:1002800040F480203860396841F4803105E020F482
:1002900080303860396821F480213960686868B13D
:1002A00000F05CFB81463868810300F1E08000F0DB
:1002B00055FBA0EB09006528F5D3C1E700F04EFB24
:1002C00081463868810340F1D28000F047FBA0EB03
:1002D00009006528F5D3B3E700F040FB00F0B1F961
:1002E000C0F0EB80ACE7E86880B1396841F4807118
:1002F000396000F033FB80463868410500F1C88062
:1003000000F02CFB00F09DF9F6D399E7386820F453
:10031000807000F0AFF980463868410540F1BF8039
:1003200000F01CFB00F08DF9F6D389E7400840008F
:10033000706000F013FB80467068810740F1C18057
:1003400000F00CFB00F07DF9F6D379E70528306862
:1003500006D140F004003060316841F0010105E051
:10036000400840003060316821F004013160A86825
:1003700041F2893968B100F0F1FA824630688107AC
:1003800000F1D58000F0EAFAA0EB0A004845F5D369
:1003900056E700F0E3FA82463068810740F1C780F3
:1003A00000F0DCFAA0EB0A004845F5D348E700F07E
:1003B000D5FA00F046F9C0F0CF8041E74008400090
:1003C000B06000F0CBFA8046B068810740F1C88089
:1003D00000F0C4FA00F035F9F6D331E700F0BEFAC8
:1003E000001B0328C0F0F6802AE700F0B7FA001BD4
:1003F0000328C0F0198123E7386881010CD43868DC
:1004000040F080703860F96841F08071F96000F068
:10041000A5FA04463868810100F1108100F09EFAC7
:10042000001B0328F6D30BE70C2C1ED000F01FF99D
:1004300004463868810140F1FC8000F08FFA001B0F
:100440000328F6D3FCE600F000F92878C1070ED5A2
:10045000082C05D00C2C08BFB8F1030F7FF403AFB4
:100460003868810303D5686808B90120E7E0287877
:10047000810714D5042C05D00C2C08BFB8F1020F4D
:100480007FF431AF3868410502D5E8680028ECD028
:100490007868296920F0F85040EA0160786028788F
:1004A00001070ED56869002870683FF43FAF40F03F
:1004B0000100706000F052FA8046706881077FF595
:1004C0000BAF2878410739D5B86DC1004FF000084F
:1004D0000AD4B86D40F08050B8654FF00108B86D8F
:1004E00000F0805000900098DFF80094D9F80000E8
:1004F000C10513D4D9F8000040F48070C9F8000099
:1005000000F02CFA8246D9F80000C10506D400F0AC
:1005100025FAA0EB0A000328F5D391E6A868012884
:100520007FF414AF306840F0010030601FE7B8F18D
:10053000000F03D0B86D20F08050B8652878810690
:100540000ED5686A0028B0683FF438AF40F001006B
:10055000B06000F003FA8046B06881077FF527AFEE
:10056000A86A00286AD002287FF45EAFF868EA6AB9
:1005700000F00301914201BF00F070012A6B521E8E
:10058000B1EB021F1CD16A6B00F4FE41B1EB022FEC
:1005900002BF00F07841AA6BB1EBC26F10D1EA6BD9
:1005A000520800F4C001521EB1EB425F08D1296C21
:1005B000490800F0C060491EB0EB416F3FF41CAF2A
:1005C0000C2C3FF452AF386841013FF54EAF00F0BC
:1005D0004EF80446386881013FF500AFFA68DFF84D
:1005E0001013E86A0A40296B0243491E686B42EA0D
:1005F0000112E96B490842EA0022286C491E4008B2
:1006000042EA4152401E42EA4062A86B42EAC0629E
:10061000FA60396841F080713960F86840F08070A4
:10062000F86000F09BF90446386881017FF5DDAE83
:1006300004E0FA68DFF8BC020240FA600020BDE87E
:10064000F687A0EB080003287047386840F00800E0
:1006500038603968286A21F0F0010143396079680F
:10066000E86921F47F4141EA0021796070473868E8
:1006700020F08070386000F071B92DE9F04104007D
:10068000884675D0DFF87062306800F0070040459A
:1006900002D200F06FF86BD12078DFF83C5281076E
:1006A00006D5A068A96801F0F001814200F06CF85D
:1006B0002078C1074AD56068032802D129688A01D9
:1006C00008E0022802D129688A0303E0002829688B
:1006D00002D18A0702D44BE04A0549D5A9688908A6
:1006E00040EA8100A86000F039F90746A86861680F
:1006F00000F00C00B0EB810F28D000F02FF9C01BE8
:1007000041F289318842F1D303201DE0207841076E
:1007100005D5AA68E06822F4E0620243AA60217865
:10072000080706D5A968206921F4605141EAC00193
:10073000A96000F03AF8AA6800F02DF8BDE8F04191
:100740006748006800F0E8B8BDE8F08120788107CC
:1007500006D5A068A96801F0F001884200F014F8FD
:10076000306800F007008045D0D200F003F8CDD00B
:100770000120E9E73168C90848EAC1013160306801
:1007800000F007004045704704D2A96821F0F0014D
:100790000843A86070475949C2F30312895C4F4A65
:1007A00001F01F01C8401060704770B54A4A554BB0
:1007B0009068D6680025002110F00C0006F00306B2
:1007C000514C03D00C2812D1012E1AD115682E07D6
:1007D00004D4444D2E68C6F3032502E01568C5F322
:1007E00003154A4E56F8255048B9294624E00428F6
:1007F00008BF214620D008281ED119461CE00C282D
:100800001AD1D06800F00300022803D0032808BFE3
:100810001D4600E02546D168D068D268C0F30620A6
:100820004543C1F30210C2F34161401C491CB5FBB2
:10083000F0F04900B0FBF1F1084670BD2748304A9E
:10084000006813683249C3F3022206E023482C4AA9
:10085000006813682E49C3F3C222895C01F01F01AE
:10086000C84070477CB52B4E054630680024C10057
:1008700002D500F079F80EE0306840F0805030602A
:10088000316801F080510091009800F06DF83168F6
:1008900021F080513160B0F5007F04D1802D0CD95A
:1008A000A12D09D304E0802D88BF032405D801D1F0
:1008B000022402E0702D00D101240F480168C9080C
:1008C00044EAC1010160006800F00700A04201D0C5
:1008D000012076BD002076BD001002400C000020F3
:1008E0000800002094100240901002400070004068
:1008F0008C809D01FCFFEEFE0020024034190008B0
:100900000810024000127A000024F4005818000871
:10091000DC1900085810024070B50E4E04463078BD
:100920000025A0B14FF47A710B4AB1FBF0F11068C9
:10093000B0FBF1F000F094F848B9102C07D2002277
:1009400021464FF0FF3000F06DF8B46000E0012563
:10095000284670BD000000200C00002001484068BF
:10096000704700BF00000020DFF87800006800F446
:10097000C060704710B5DFF86C10B0F5007F0868F4
:1009800000F4C06015D1B0F5007F1BD00868DFF817
:100990005820DFF8584020F4C06040F4007000F0A8
:1009A00018F84A6953050FD5002818BF401EF8D122
:1009B0000AE0B0F5806F05D0086820F4C06040F40C
:1009C00080600860002010BD48694105FAD5032009
:1009D00010BD0860322013684343B3FBF4F0401CA1
:1009E00070470000007000400C00002040420F00E3
:1009F0000901020002D4244881547047234B02F0BD
:100A00000F021A4402F8041C7047214B19684FF674
:100A1000FF020002114000F4E06008431D49084352
:100A20001860704738B51A4B1C68C4F30223C3F131
:100A30000704052C28BF04241D1D072D34BF0023E7
:100A4000DB1E012505FA04F4641E2140994005FAD5
:100A500003F35B1E1A401143BDE83440C8E70000B1
:100A600010B5401EB0F1807F01D3012010BD0A4CAB
:100A700060600F214FF0FF30FFF7BAFF0021A16047
:100A800007202060002010BD00E400E018ED00E029
:100A90000CED00E00000FA0510E000E038B50400BD
:100AA00009D004F17405696809B900F01EF800F076
:100AB00021F8012801D1012032BD606A08B100F09F
:100AC0002AF800F00AF821F02A01FFE7816000F01F
:100AD0001BF8BDE8324000F086B92068416821F477
:100AE000904141602068816870470020287020464E
:100AF00000F00EBA24216960206802685208520092
:100B00000260204600F014B82068016841F001013D
:100B1000016020467047204600F002B9296851E87C
:100B2000002F22F4D07241E8002000287047000016
:100B3000F8B5044673482268734F1368A1680340F0
:100B400020690B4361690343E0690B43034313606E
:100B500000255168E06821F4405101435160A369C8
:100B600067498A421CBF206A03439668674826F497
:100B7000306633439360BA424FF40043644E2FD142
:100B8000366806F00306032E37D8DFE806F0026F5A
:100B90005C710127E169B1F5004F4FF6F07640F046
:100BA000868047B1012F7AD0022F08D0042F79D048
:100BB000082F7AD09DE0FFF741FE00280FD0616832
:100BC0004A0802EB4002B2FBF1F0A0F11001B14281
:100BD000F0D20640C0F3420006432068C66089E0B8
:100BE0004C4FBA4221D1366816F00C063CD0042E88
:100BF0003CD0082E27D00C2E3AD010278A42C9D1DB
:100C000037B1022F08D0042F34D0082F35D070E030
:100C1000FFF714FE00286DD0626802EB42018842A3
:100C200067D3130383422AD263E03B4FBA420CD10D
:100C3000366816F0300617D0102E17D0202E02D0AE
:100C4000302E15D0D9E70227D8E78A42D5D13668A9
:100C500016F4406608D0B6F5806F07D0B6F5006F81
:100C6000F1D0B6F5406FECE70027C7E70427C5E7EA
:100C70000827C3E7FFF799FDCCE71846CCE7010E3C
:100C8000560816EB00206941002300F085F9A0F515
:100C90004071224A91422CD22168C8602AE0FFF7B5
:100CA000D5FD8AE7FFF781FD87E7184687E747B15B
:100CB000012F16D0022F07D0042F15D0082F16D0E1
:100CC00017E0FFF7BBFDA8B1616800EB5100B0FB76
:100CD000F1F0A0F11001B1420BD2226880B2D060D5
:100CE00008E0FFF7B3FDEEE7FFF75FFDEBE718461F
:100CF000EAE7012500206066A0662846F2BD0000F4
:100D000000800040F369FFEF003801400024F40048
:100D100088100240004400400048004000FD0F00E1
:100D200090F82410CA0706D502685368816A23F434
:100D300000330B43536090F824108A0706D50268ED
:100D40005368C16A23F480330B43536090F8241036
:100D50004A0706D502685368016B23F480230B43CE
:100D6000536090F824100A0706D502685368416B57
:100D700023F400430B43536090F82410CA0606D5B1
:100D800002689368816B23F480530B43936090F85F
:100D900024108A0606D502689368C16B23F40053B9
:100DA0000B43936090F824104A0610D502685368EC
:100DB000016C23F480130B435360036CB3F5801F65
:100DC00005D15368416C23F4C0030B43536090F882
:100DD00024100A0606D501684A68806C22F40022B5
:100DE00002434A607047F8B5044604F174050020D8
:100DF000E8606FF07E47FFF7B1FD064620680168A6
:100E00000A0708D50097334600224FF40011204608
:100E100000F017F860B9206801684A070AD5009702
:100E2000334600224FF48001204600F00AF808B152
:100E30000320F2BD20206860A86000202066287092
:100E4000F2BD2DE9F041069C05460E4690461F4630
:100E50002868C1693140B1420CBF012000204045E3
:100E60002AD114F1010FF3D0FFF778FDC01B8442A3
:100E700000D354B9FFF752FEFCD100F026F8FCD1A4
:100E800000F01DF80021017014E0286801684A078D
:100E9000DED5C1690A05DBD54FF400610162FFF7B9
:100EA0003DFEFCD100F011F8FCD100F008F8C16063
:100EB00000220270032000E00020BDE8F08105F16F
:100EC00074002021416081607047286800F10801AA
:100ED00051E8001F490800F10802490042E80010EB
:100EE00000287047294881B0816841F00101816084
:100EF000816801F0010100910099026842F080527E
:100F00000260006800F080500090009801B07047C7
:100F100010B59EB0044601A8142100F0DDF806A823
:100F2000602100F0D9F82068194988422BD10222AB
:100F3000002106920F9106A800F0D2F808B100F047
:100F400074FB1448C16841F40031C160C16801F408
:100F5000003100910099026842F0010202600C2108
:100F6000006800F0010000900222009801910292B6
:100F700000210391032207210591049201A94FF05A
:100F8000904000F055FB1EB010BD0000581002400C
:100F9000004400404C100240D3BBD9B1B2F5803FB1
:100FA0005BD2022A1ED98C46B1FBF2F102FB11C3BF
:100FB0001B0443EA1043B3FBF2FC02FB1C3380B278
:100FC00040EA0343B3FBF2F002FB103240EA0C406C
:100FD00000237047022A05D98446B0FBF2F002FBD9
:100FE00010C270474AB105D100F0010249085FEA1A
:100FF0003000704700220023704700F0FBBB0B005D
:101000000200002100207047F7D300220023704720
:10101000904271EB030CF2D370B5B1FA81F4B3FADC
:1010200083F52C1BA340C4F1200532FA05F63343A7
:10103000A2405FF00046E64002E05B085FEA320251
:10104000841A71EB030524BF204629467641F4D368
:1010500002000B003000002170BD70B5B1FA81F4C0
:10106000B2FA82F5C4F120046419B4F12006DAD38F
:10107000B2405FF00044F440002502E052085FEA0D
:101080003303C61A71EB020E24BF30467146644129
:101090006D41F3D302000B002000290070BD30B475
:1010A000002513E050F8042BD30744BFA9F1010336
:1010B0009A18091F042942F8045BFAD213468C07D8
:1010C00044BF15809B1CC90748BF1D7050F8041B06
:1010D0000029E7D130BC7047002200F08DBB000032
:1010E0002DE9FC47054600242868DFF88C630105DC
:1010F000A1461BD5686C58B1B0F5000F03D0B0F510
:10110000400F09D010E0326842F48032326004E0CF
:10111000002100F02AF904463CB9F16F686C21F413
:1011200040010143F16701E00124A14628688103E1
:101130002BD5F06CC1004FF000080AD4F06C40F0E1
:101140008050F0644FF00108F06C00F08050009087
:101150000098DFF82873386840F480703860FFF733
:10116000FDFB82463868C10500F1D180FFF7F6FB30
:10117000A0EB0A000328F5D30324A146B8F1000F21
:1011800003D0F06C20F08050F0642878C10705D5BA
:10119000F26F286A920840EA8202F267297888078B
:1011A00005D5F16F686A21F00C010143F1672978D8
:1011B000480705D5F16FA86A21F030010143F167B6
:1011C0002978880605D5F16FE86A21F4406101436A
:1011D000F1672968880505D5F16FE86B21F4402196
:1011E0000143F1672968480505D5F16F286C21F4A2
:1011F00040110143F1672978480605D5F16F286B46
:1012000021F440510143F1672978080605D5F16FB3
:10121000686B21F440410143F1672968C80505D591
:10122000F16FA86B21F440310143F167296888040C
:101230001ED5F16FA86C21F040610143F167A86CE5
:10124000B0F1006F0CD100F08AF811E0FFF786FBD7
:10125000001B41F28931884276D34FF003098DE7B4
:10126000B0F1806F04D100F07FF8010018BF814613
:101270002868010314D5F26FE86C22F04062024343
:10128000F267E86CB0F1006F02D100F068F807E097
:10129000B0F1806F04D100F067F8010018BF8146FB
:1012A0002868410314D5F26F286D22F04062024392
:1012B000F267286DB0F1006F02D100F050F807E03E
:1012C000B0F1806F04D100F04FF8010018BF8146E3
:1012D000286841040FD5F26F686D22F04052024336
:1012E000F267696DB1F1805F05D1022100F03DF830
:1012F000010018BF81462868010405D5F26FA86D6A
:1013000022F080420243F2674846BDE8F687002C8F
:101310007FF433AFDFF86871386810F440701CBF99
:10132000E96D88420BD03868396841F48031396002
:1013300020F440703A6822F480323A603860C00786
:1013400006D5FFF70BFB0446386881077FF57EAFB3
:101350003A68E86D22F4407202433A600EE7306862
:1013600040F48010306070470121281DFFE72DE90F
:10137000F0410746434E38680C46F168002511F0ED
:10138000030F0DD0F16801F00301814237D1B0B3F2
:10139000F0687968C0F30210401C884213D02EE038
:1013A000012804D02BD3032823D01ED327E0326892
:1013B000910724D5F268796822F073021043491E20
:1013C00040EA0110F060306820F080603060FFF784
:1013D000C5FA80463068010134D5FFF7BFFAA0EBAB
:1013E00008000328F6D303253CE031684A05E1D420
:1013F00005E031688A03DDD431684A03DAD4012577
:1014000030E0012C326906D13B691F4800F02DF80D
:1014100041EA435105E07B691C4800F026F841EAA7
:1014200043613161306840F080603060FFF796FAC8
:1014300004463068010111D4FFF790FA001B03281D
:10144000F7D3D0E7B968002CDBD132691048FB68CC
:10145000024042EA012141EAC361E2E73169B86929
:10146000014331612846BDE8F08102405B0842EA51
:1014700001215B1E704700000C100240007000400C
:101480009010024000100240FF809FFFFF80FFF994
:10149000FF80FF0780B500F0C9F900F018F800F0F0
:1014A00053F85A485A4901604FF4E13200230C21A5
:1014B00042608360C360036141618361C361036211
:1014C0004362FFF7EBFA08B100F0AFF8FEE780B532
:1014D00096B005A84421FFF7FFFD68461421FFF7E9
:1014E000FBFD4FF40070FFF745FA08B100F09DF8DE
:1014F00002214FF480720591089210210222099175
:101500000F9210920A2101221192129107220221B8
:1015100013921491159105A8FEF738FE08B100F05A
:1015200084F8032101910F204FF4E0610090002224
:1015300003910292049204216846FFF79EF808B1D5
:1015400000F073F817B000BD38B586B068461421B6
:10155000FFF7C2FD2F48046844F0040404604FF410
:10156000005501682C4C01F00401059105990268B1
:1015700042F080020260036803F08003059305993E
:10158000026842F001020260036803F00103059360
:101590000599026842F0020202600022006800F031
:1015A00002000590B02105984FF0904000F00EF930
:1015B00000224FF40051204600F008F94FF4881142
:1015C00001910022029200956946144800F030F81B
:1015D000B02100910122002102910391019200F0BB
:1015E0001FF840200021009001910122029200F09A
:1015F00017F801200190002202920392009569469B
:10160000204600F015F807B030BD000010000020A3
:10161000004400404C10024000040048000800480C
:1016200069464FF0904000F003B872B6FEE7000044
:101630002DE9F84F0026684A0F2380460D4634E016
:10164000664CA04514BF072404248C4044EA0E04D1
:101650004CF82740C74362498C6807EA040C6C6861
:10166000E40248BF40EA0C0CC1F808C0CC6807EAA5
:10167000040C6C68A40248BF40EA0C0CC1F80CC012
:101680004C6807EA040C6C68A40348BF40EA0C0CE1
:10169000C1F804C00C6807EA040C6F68FC0348BF7B
:1016A00040EA0C0CC1F800C0761C296831FA06F03B
:1016B00000F08A80012000FA06FE1EEA0100F3D045
:1016C00077000321B9406FEA010C696801F0030457
:1016D000012C1CBF01F00301022913D1D8F8081016
:1016E000EC680CEA0101BC402143C8F80810D8F8A6
:1016F000041021EA0E046968C1F30011B1402143CE
:10170000C8F80410B1002C7904F00304032C21D094
:10171000D8F80C400CEA040EAC68BC4044EA0E0455
:10172000C8F80C402C7904F00304022C12D1F40800
:1017300008EB840E01F01C09DEF82040D5F810B04B
:1017400003FA09FA24EA0A040BFA09F949EA04043B
:10175000CEF82040D8F8004095F804E00EF0030ED3
:101760000CEA04040EFA07F72743C8F800706F6804
:1017700017F4403F98D01768DFF868C047F00107BA
:10178000176001F00C01146804F00104009403FADE
:1017900001FE009FB7085CF8274024EA0E0EB8F15E
:1017A000904F08BF00240ED00F4CA04508BF012465
:1017B00009D00E4CA04508BF022404D00C4CA04513
:1017C0007FF43EAF032440E7BDE8F18F0AB18161A9
:1017D00070478162704700006010024000100048AE
:1017E00000040140080001400004004800080048CF
:1017F000000C00487047000000B500BF130096467B
:101800009446103928BFA0E80C50FAD85FEA417C12
:1018100028BF0CC048BF40F8042BC90728BF20F8D8
:10182000022B48BF00F8012B00BD0000094810B58D
:10183000016841F4807101600320FFF7E6F80020A1
:10184000FFF76AF80024002814BF0124FFF74AFBC1
:10185000204610BD00200240A0860100400D03007C
:10186000801A060000350C0040420F0080841E00E4
:1018700000093D0000127A000024F40000366E01D9
:101880000048E801006CDC0230B450F8041B79B168
:101890000268436802440830DC0744BFA9F1010430
:1018A000E31852F8045B43F8045B091FF9D1ECE735
:1018B00030BC704710B5074979441831064C7C4458
:1018C000163404E00A68081D114488470146A14205
:1018D000F8D110BD2C0000004C0000004EF68851DD
:1018E000CEF20001086840F470000860BFF34F8F2B
:1018F000BFF36F8F4FF00070E1EE100A70470000E9
:101900009FF7FFFF8400000010000020000000008F
:1019100079FFFFFF10000000A80000000000002079
:10192000000000000248016841F470010160704746
:1019300088ED00E000000000000000000102030448
:101940000607080900F00DF8002801D0FFF7B2FFE4
:10195000AFF300800020AFF30080FFF79BFD00F0A5
:1019600002F80120704700F001B800000746384631
:1019700000F002F8FBE7000080B5AFF30080024AF8
:1019800011001820ABBEFBE726000200FEE7FEE7D1
:10199000FEE7FEE7FEE770477047704700F000B8CB
:1019A0000248416802788A184260704700000020AF
:1019B000014880470148004725190008D11900084F
:1019C00001000000000000001000000000093D00C0
:1019D000AFF30080FFF782FFFFF7B4FF00000000C5
:1019E00001020304FFF7FEBFFFF7FEBFFFF7FEBFD4
:1019F000FFF7FEBFFFF7FEBFFFF7FEBFFFF7FEBF1B
:101A0000FFF7FEBFFFF7FEBFFFF7FEBFFFF7FEBF0A
:101A1000FFF7FEBFFFF7FEBFFFF7FEBFFFF7FEBFFA
:101A2000FFF7FEBFFFF7FEBFFFF7FEBFFFF7FEBFEA
:101A3000FFF7FEBFFFF7FEBFFFF7FEBFFFF7FEBFDA
:101A4000FFF7FEBFFFF7FEBFFFF7FEBFFFF7FEBFCA
:101A5000FFF7FEBFFFF7FEBFFFF7FEBFFFF7FEBFBA
:101A6000FFF7FEBFFFF7FEBFFFF7FEBFFFF7FEBFAA
:101A7000FFF7FEBFFFF7FEBFFFF7FEBFFFF7FEBF9A
:101A8000FFF7FEBFFFF7FEBFFFF7FEBFFFF7FEBF8A
:101A9000FFF7FEBFFFF7FEBFFFF7FEBFFFF7FEBF7A
:101AA000FFF7FEBFFFF7FEBFFFF7FEBFFFF7FEBF6A
:101AB000FFF7FEBFFFF7FEBFFFF7FEBFFFF7FEBF5A
:101AC000FFF7FEBFFFF7FEBFFFF7FEBFFFF7FEBF4A
:101AD000FFF7FEBFFFF7FEBFFFF7FEBFFFF7FEBF3A
:0C1AE000FFF7FEBFFFF7FEBFFFF7FEBFE1
:04000005080019D105
:00000001FF
